:100000000C94F0150C9430160C9430160C94301699
:100010000C9430160C9430160C9430160C94301648
:100020000C9430160C9430160C9430160C94301638
:100030000C9430160C9430160C9430160C94301628
:100040000C9430160C9430160C9430160C94301618
:100050000C9430160C9442960C9430160C94301676
:100060000C9430160C9430160C9430160C943016F8
:100070000C9430160C9430160C9430160C943016E8
:100080000C9442A70C946EA70C9430160C94301666
:100090000C9430160C9430160C9430160C943016C8
:1000A0000C9430160C9430160C9430160C943016B8
:1000B0000C9430160C9430160C9430160C943016A8
:1000C0000C9430160C9430160C9430160C94301698
:1000D0000C9430160C9430160C9430160C94301688
:1000E0000C9430160C9403590C94D9D30C9487A813
:1000F0000C94EA860C9495330C94244D0C94FE9A3F
:100100000C9435940C948E940C9405930C949E88C6
:100110000C94E83F0C94498B0C94537B0C9463A093
:100120000C94CC170C94C19A0C94A8380C94F34DF1
:100130000C94B06B0C944FCC0C94BC7D0C94D2827C
:100140000C9434EE0C945D3B0C9440CD0C943ACD61
:100150000C94009E0C9441CC0C94C8A80C94AEDE78
:100160000C94E4D30C941E820C946ECD0C94BB9E24
:100170000C94B08A0C94B3BA0C94FA410C94605667
:100180000C940B1D0C94FA680C9481D30C948BCABC
:100190000C94B4A80C94D7540C943D160C94F32EE4
:1001A0000C94847D0C9448C90C9451C80C94A07B89
:1001B0000C94E0C40C943BD30C94A59A0C94114875
:1001C0000C940B3F0C9468A00C94448C0C94D7ECCA
:1001D0000C943B180C9406AE0C94BF8B0C94BA8212
:1001E0000C9486D40C948CD30C94408B0C9414E80F
:1001F0000C94199A0C942ECC0C9479BF0C941F90EB
:100200000C94FCC80C945EA00C94B91A0C946989E7
:100210000C94D08F0C9401B90C9477650C9435E84C
:100220000C9416690C944E880C945FE40C948BC467
:100230000C94E3E80C94D3ED0C947F790C94C08E6D
:100240000C942A410C94288C0C94AE350C948AB6EC
:100250000C9459C40C9446CD0C949E4B0C94483786
:100260000C94FEB50C945A560C94F04E0C947B2CC6
:100270000C94E5890C94E48C0C94B5540C94078987
:100280000C94F4E10C9403D40C947E570C94538793
:100290000C94B2270C944BCD0C943F880C94CDBE9B
:1002A0000C9435590C9489AD0C9401310C9499B689
:1002B0000C94DA400C94BCEB0C94D86F0C94C9A944
:1002C0000C9462360C94E8EF0C948C4E0C948BE1F9
:1002D0000C94437B0C9407EA0C94B8C80C94764EAB
:1002E0000C94BE290C94C55B0C94BD860C94A99CFF
:1002F0000C94CC270C944F160C94951B0C949BEBF0
:100300000C9460CC0C943B590C94C69F0C94229096
:100310000C94F4680C94AF540C94D78A0C9476C95E
:100320000C94ECE80C9435180C947C4E0C947437B7
:100330000C9409D40C94CFB80C948EB60C940CD4B5
:100340000C947D9D0C9488420C94AAE60C9419D7C9
:100350000C9458EA0C94E3B50C948BA80C94738F0E
:100360000C9436880C941FB60C94AF6F0C9473E108
:100370000C941B410C9466CB0C941D440C941DE80A
:100380000C9480240C9492B60C941B5E0C94EE6F2B
:100390000C9464320C945EC40C94FC330C94FAAE4E
:1003A0000C94CA4D0C9423C70C94D1270C94E7608D
:1003B0000C944F7B0C941D940C9446B60C9465A140
:1003C0000C94D9430C9486C80C9471880C94F986CB
:1003D0000C9455930C94F8CC0C9410BC0C943216DD
:1003E0000C94DED20C943BB90C949ED60C9443CA68
:1003F0000C94CD890C94C2D10C94B1C00C94AA4E2B
:100400000C9434E20C94A4EB0C94A7CC0C94B9BAE1
:100410000C943E4E0C945A4E0C949F300C946DEC00
:100420000C94E3CB0C942ED40C9412A00C94918DCC
:100430000C94FE270C94856E0C94ABCB0C945E4F01
:100440000C94FBA80C94CBCB0C94A2180C941EEB30
:100450000C94FAB80C94DBC40C949D950C94B68B58
:100460000C94F8E90C94C2E60C94842F0C940BCAFB
:100470000C9414780C94EB830C9475730C941E906C
:100480000C94C9EC0C945FA90C942A990C94F6B5C1
:100490000C94FC8C0C94DDB50C949DD50C947C8B49
:1004A0000C94539D0C946D280C949F3E0C9465778E
:1004B0000C9450B70C94F6C80C94DCB50C940B4714
:1004C0000C9403400C9434930C94EA270C941B87EF
:1004D0000C9416B60C945CCD0C94ED280C940CB9CD
:1004E0000C94971C0C94F9B30C94ED8C0C9464163A
:1004F0000C940E800C941B4E0C947B9C0C9486D315
:100500000C940B230C9477A80C9493A80C940FD400
:100510000C943AC30C947ED40C94B0A80C943E7DF9
:100520000C9467A90C947DD30C94291D0C944B4614
:100530000C94B2CE0C944E730C9479E30C94354128
:100540000C9448B00C94AF4A0C94F3A80C9477A088
:100550000C9440650C9434CC0C9466390C946EC0A9
:100560000C94B3370C94D18D0C94F7A80C9412D240
:100570000C94DC4F0C94199B0C94BE780C94B3EB48
:100580000C94C2670C94D6890C94889B0C94B41973
:100590000C94477B0C9459A00C94D54E0C94479C1A
:1005A0000C9418440C94B1CB0C94CF8E0C946FD453
:1005B0000C94B8820C94AC540C9471650C94EFE9D3
:1005C0000C9416890C94AC1D0C94812C0C94408CCA
:1005D0000C94DF710C9489D60C94EC890C9482C530
:1005E0000C94FCB80C94EB7A0C94D2CB0C949EA493
:1005F0000C9477D00C9426BF0C9437B60C947CE105
:100600000C94FB300C946D800C94562D0C94122895
:100610000C94CA8F0C94724B0C94E1EB0C94B8CDF3
:100620000C9446BE0C942FB70C94B8270C943194BC
:100630000C94FCC30C944B7B0C947B8A0C94AB679E
:100640000C94545E0C9455330C94E79C0C94094123
:100650000C940B8F0C94A7970C94B0B80C94A5171E
:100660000C94C9410C94FE880C94C11F0C9407A9EA
:100670000C9483810C94C1DA0C94C4A80C940A796C
:100680000C9417B70C94EAA80C94FFA80C94A465DA
:100690000C9480B80C9456870C9423440C94ED6809
:1006A0000C940A500C9405770C944E8D0C94333CAA
:1006B0000C94F4910C94E19A0C9442C40C9420B7DD
:1006C0000C94B4670C94BB1B0C94F6750C9448CC3A
:1006D0000C9477A50C94EC920C94BE2B0C94ABC3A9
:1006E0000C94BA8A0C94219C0C943CA00C946FA995
:1006F0000C94CEEC0C9464EC0C94A0700C944FB65B
:100700000C94983D0C94D7D30C94C9650C94231D7C
:100710000C9400D40C946BA90C9423670C94209037
:100720000C94F94D0C94184E0C9422940C944D4357
:100730000C943D1B0C94C0A80C9484300C94ACE138
:100740000C9450CD0C9483A80C9484210C94E5282F
:100750000C947A240C9499700C94E9D10C944E5E0C
:100760000C94CC3E0C9436EB0C9476B60C9475D36A
:100770000C94F6990C9418720C9439940C94FAD346
:100780000C9499330C94B23F0C94E5710C940BA922
:100790000C9440EA0C94D4E80C94BD3A0C9447991C
:1007A0000C9410880C9497330C9482580C9457A98D
:1007B0000C94CBE80C945BA90C94E4780C940F8A0D
:1007C0000C943D940C94E2930C94FEB80C94114755
:1007D0000C9480D40C941AD20C94C4E10C94EC2A9E
:1007E0000C94785A0C94BF6F0C94F8CE0C9476BD90
:1007F0000C94B8A80C9478D30C946DA00C94BCA85D
:100800000C941C690C94C3490C94DE650C9462CE64
:100810000C948EBE0C94B09B0C94914F0C94978AC0
:100820000C94FA540C94CB8D0C946C650C942ACED9
:100830000C946ABE0C9479790C9420410C94B19A72
:100840000C943BD40C940AD20C9439240C9414804C
:100850000C94DED30C94F1EF0C9494E10C9438B723
:100860000C949CC80C945F670C943A780C94DCE16F
:100870000C94B7820C94C3820C9456CD0C9410EA5D
:100880000C945AA40C94C99A0C94F1D10C949FB670
:100890000C9435900C946B770C94D3C90C94D3E1E1
:1008A0000C941ED40C94154E0C9468840C94D17F37
:1008B0000C9420890C9407B60C94E7280C9447B745
:1008C0000C94B2C80C94E8B80C94F55C0C94C18AF2
:1008D0000C94FE4E0C9452F00C9492670C94103AC7
:1008E0000C946F730C948C5B0C9482E30C945FB744
:1008F0000C941AC90C94C5A70C9420A30C944EC94F
:100900000C9465B80C947C8F0C945EB60C94E186C4
:100910000C94F6E30C943F7B0C94A8780C948E42D4
:100920000C9482600C944A8C0C94159D0C9403A931
:100930000C94B9180C94058F0C944CF00C94AE19CF
:100940000C94A9D30C94BA4D0C947E210C9463A9F9
:100950000C9404700C9480D60C949BB80C94F8E61C
:100960000C947A290C94CC710C94BA180C942650DF
:100970000C94CDB80C94998C0C9481620C949D339A
:100980000C944FEA0C94DEB50C9484570C9401CB74
:100990000C94B6320C9490330C94551E0C94A96FA1
:1009A0000C9412720C94CD3F0C940A3A0C946D94F2
:1009B0000C942B7B0C948D380C9428CC0C94005503
:1009C0000C9435C20C9467B60C94B98B0C946D9B47
:1009D0000C94FB490C94C42B0C94C9270C943A7BBF
:1009E0000C94774A0C949EE00C946DEA0C94807CF5
:1009F0000C9466700C94D1540C941A890C94313B6D
:100A00000C94588B0C9457E90C947D540C949B33A4
:100A10000C9418980C94EAB90C9473800C9468CDDB
:100A20000C944E1A0C9461D40C94BBE10C941FEA04
:100A30000C94D7980C94E3D10C9437EA0C94572972
:100A40000C94318C0C94D7510C94161B0C9435CF0C
:100A50000C94141D0C94BCA60C947FA80C9488854F
:100A60000C94B78E0C9406D40C94567F0C949A8DEB
:100A70000C94938C0C94C9740C94A6210C943D7B1B
:100A80000C94B99A0C94E18A0C94973F0C94AAC4E4
:100A90000C9489650C943ACC0C94BDCB0C94F2E682
:100AA0000C9419D50C9442280C94A3E10C94E5B84D
:100AB0000C947BA80C9434770C94D3990C9426E86E
:100AC0000C943FEB0C9486B60C94CB920C94E6DB22
:100AD0000C9446230C9472A00C94B4CF0C94D99A25
:100AE0000C9475700C944DE80C94E1600C9427EB19
:100AF0000C9422BE0C94B5A00C9433880C9416412F
:100B00000C94045D0C946F890C94D7D70C94FE97C9
:100B10000C944B900C948FA80C94C88A0C94F9B543
:100B20000C94E0B10C94AA6B0C94BFC40C9424D325
:100B30000C9420C90C9465B70C9435500C945C2D22
:100B40000C941FD50C9442190C9411410C944DA98E
:100B50000C94D9840C94B7CB0C94ACA80C9444E8B6
:100B60000C94EBE10C9439700C94941B0C94C71FFB
:100B70000C94D2C60C942EB60C94DAE60C94ECAA23
:100B80000C94D19A0C942AD30C94557B0C94C88D58
:100B90000C94B84F0C94A48A0C9488D30C944F8670
:100BA0000C9462CD0C94E6350C94528A0C94FC366D
:100BB0000C94F9D10C9415240C94B6990C945AC148
:100BC0000C9428EA0C949F330C9471D40C948B8F62
:100BD0000C9425410C94C11B0C947B7D0C94C4CBCC
:100BE0000C94DD820C9402D20C944ED4202122234A
:100BF0002425262728292A2B2C2D2E2F303132333D
:100C00003435363738393A3B3C3D3E3F404142432C
:100C10004445464748494A4B4C4D4E4F505152531C
:100C20005455565758595A5B5C5D5E5F606162630C
:100C30006465666768696A6B6C6D6E6F70717273FC
:100C40007475767778797A7B7C7D7E868788898AC9
:100C50008B206162636465666768696A6B6C6D6E40
:100C60006F707172737475767778797A3031323348
:100C70003435363738392D2B5F2F26253F3D868773
:100C800088898A8B303132333435363738392D2BD9
:100C9000868788898A8B20212223242526272829B4
:100CA0002A2B2C2D2E2F303132333435363738392C
:100CB0003A3B3C3D3E3F404142434445464748491C
:100CC0004A4B4C4D4E4F505152535455565758590C
:100CD0005A5B5C5D5E5F60616263646566676869FC
:100CE0006A6B6C6D6E6F70717273747576777879EC
:100CF0007A7B7C7D7E868788898A8B2061626364AB
:100D000065666768696A6B6C6D6E6F70717273741B
:100D100075767778797A30313233343536373839F9
:100D20002D2B5F2F26253F3D868788898A8B303182
:100D300032333435363738392D2B868788898A8B7C
:100D4000202122232425262728292A2B2C2D2E2F2B
:100D5000303132333435363738393A3B3C3D3E3F1B
:100D6000404142434445464748494A4B4C4D4E4F0B
:100D7000505152535455565758595A5B5C5D5E5FFB
:100D8000606162636465666768696A6B6C6D6E6FEB
:100D9000707172737475767778797A7B7C7D7E86D4
:100DA0008788898A8B206162636465666768696A7F
:100DB0006B6C6D6E6F707172737475767778797A0B
:100DC000303132333435363738392D2B5F2F2625E5
:100DD0003F3D868788898A8B3031323334353637C8
:100DE00038392D2B868788898A8B20212223242538
:100DF000262728292A2B2C2D2E2F3031323334351B
:100E0000363738393A3B3C3D3E3F4041424344450A
:100E1000464748494A4B4C4D4E4F505152535455FA
:100E2000565758595A5B5C5D5E5F606162636465EA
:100E3000666768696A6B6C6D6E6F707172737475DA
:100E4000767778797A7B7C7D7E868788898A8B2005
:100E50006162636465666768696A6B6C6D6E6F700A
:100E60007172737475767778797A303132333435BC
:100E7000363738392D2B5F2F26253F3D86878889C9
:100E80008A8B303132333435363738392D2B8687DB
:100E900088898A8B202122232425262728292A2B6A
:100EA0002C2D2E2F303132333435363738393A3B0A
:100EB0003C3D3E3F404142434445464748494A4BFA
:100EC0004C4D4E4F505152535455565758595A5BEA
:100ED0005C5D5E5F606162636465666768696A6BDA
:100EE0006C6D6E6F707172737475767778797A7BCA
:100EF0007C7D7E868788898A8B20616263646566D3
:100F00006768696A6B6C6D6E6F70717273747576F9
:100F10007778797A303132333435363738392D2B8A
:100F20005F2F26253F3D868788898A8B3031323373
:100F30003435363738392D2B868788898A8B556822
:100F40007220556E74656E00556872204F62656E32
:100F50000052656368747320556E74656E00526547
:100F600063687465205365697465004C696E6B73C2
:100F700020556E74656E004C696E6B652053656913
:100F80007465004350553A2041546D6567612032C5
:100F90003536300045787465726E65722053706521
:100FA00069636865723A20253575202F2025356CD8
:100FB0007500496E7465726E657220537065696361
:100FC0006865723A20253575202F2025357500512A
:100FD00075656C6C656E3A20253375202F2025339E
:100FE0007520202825752900547970656E3A2020D7
:100FF00020253375202F202532752020282575299E
:10100000004D6F64656C6C653A20253375202F2088
:10101000253275202028257529004B65696E2053DF
:10102000797374656D737065696368657220766540
:10103000726675656762617221004B65696E204D4D
:101040006F64656C6C737065696368657220766542
:10105000726675656762617221004B65696E20502A
:10106000726F787920766572667565676261722144
:10107000005479702022257322206C6F6573636899
:10108000656E3F005472696D6D6572202225732272
:10109000206C6F65736368656E3F0055687220222F
:1010A000257322206C6F65736368656E3F00517510
:1010B000656C6C652022257322206C6F65736368F4
:1010C000656E3F0053706569636865722022257301
:1010D00022206C6F65736368656E3F0050726F7895
:1010E000792022257322206C6F65736368656E3FDB
:1010F000004D6973636865722022257322206C6F2E
:1011000065736368656E3F004B75727665202225B6
:101110007322206C6F65736368656E3F004765627C
:1011200065722022257322206C6F65736368656E7B
:101130003F00466F6C6765722022257322206C6F1A
:1011400065736368656E3F004D6F64656C20222592
:101150007322206C6F65736368656E3F0057697218
:101160006B6C6963682064656E20547970207765C4
:10117000636873656C6E3F0044657220547970201B
:101180006B616E6E206E696368742067656C6F6555
:10119000736368742077657264656E2100446173BF
:1011A000204D6F64656C6C206B616E6E206E6963A0
:1011B00068742067656C6F65736368742077657207
:1011C00064656E21004D6F64656C6C652025752F1C
:1011D0002575205175656C6C656E2025752F2575FC
:1011E00000547970202564004D6F64656C6C202577
:1011F00064005472696D6D657220256400556872D3
:101200002025640053706569636865722025640059
:1012100050726F7879202564004D69736368657238
:10122000202564004B757276652025640047656251
:10123000657220256400466F6C6765722025640026
:101240004D6F64756C202564004B616E616C2025C8
:1012500064004F62656E004D6974746500556E746C
:10126000656E004E65696E004A61004B7572766569
:10127000005761726E756E67205061757365005717
:1012800061726E756E67204E696564726967004BA6
:1012900072697469736368005761726E756E670076
:1012A000566F6C756D656E00756E62656B616E6E06
:1012B0007400547970656E00547970005472696DD1
:1012C0006D6572005472696D6D6572005472696D5E
:1012D0006D004F62656E004C696D697420556E74C7
:1012E000656E00547269676765720057656368735D
:1012F000656C00556872656E0055687200556872BD
:10130000005469636B657200536F6C6C00537973A2
:1013100074656D7A6569740053797374656D0053F3
:101320006368616C7465720053746F700053636816
:101330007269747477656974650053706569636870
:10134000657200537065696368657200496E766501
:101350007274696572656E005374617475730041CF
:101360006C6C65205175656C6C656E005175656CB3
:101370006C6500536C6F740045696E7374656C6CBA
:10138000756E670053657269656C6C652056657291
:1013900062696E64756E6720616B7469762E2E2E9D
:1013A0000053657269656C6C0053657269656C6C9D
:1013B000652056657262696E64756E670044726579
:1013C000686765626572004265696465004D6F64B7
:1013D000756C2032004D6F64756C2031004B65696F
:1013E0006E73004846204D6F64756C00484620447B
:1013F00065616B74697669657274002048462041A6
:101400006B746976696572742000556D6B656872DE
:1014100000416C6C652045696E7374656C6C756E0B
:1014200067656E207A75727565636B7365747A652E
:101430006E3F00526573657400426572656963684A
:101440000050726F78790050726F78696573005040
:10145000504D0042657369747A6572004F6B004BA2
:1014600065696E65205175656C6C65004E616D65D2
:10147000004D6F64656C6C65004D6F64656C6C004D
:1014800041627363686E656964656E004B75727660
:1014900065004D6F647573004D6973636865720014
:1014A0004D697363686572004D696E696D756D0095
:1014B0004D6178696D756D004B757276656E004B88
:1014C00075727665004D61696E004E69656472697A
:1014D00067004C696D697400496E76657274696560
:1014E00072740047656265720047656265722055D7
:1014F0006E74656E004765626572204F62656E00AE
:101500004765626572005374617274776572740026
:10151000496E666F00476C6F62616C00466573745C
:10152000005A75727565636B004C6565720042699F
:101530006C6473636869726D004C6F657363686592
:101540006E00446562756700466F6C6765720046A1
:101550006F6C676572004B72697469736368004BE6
:101560006F6E7472617374005363686E6974740093
:101570004B616E61656C65004B616E616C7A75776D
:10158000656973756E67004B616E616C00416262E4
:1015900072656368656E004B616C69627269657241
:1015A000756E67005461737465720042696C647390
:1015B000636869726D20417573004261747465726D
:1015C0006965004C6963687400416E616C6F670007
:1015D00048696E7A7566756567656E006865726DD7
:1015E00065734F4E45002020417573003025002D56
:1015F00031303025002020302500313030250025C5
:1016000031752E253175206D7320002532752E25FC
:1016100031757620002D253032753A25303275200F
:1016200000253032753A2530327520002563256358
:1016300000256300253664002534640025750025E7
:1016400064002D2D2D2500253464252500253364C7
:101650002525000000000000000000000000000040
:101660000000C0C0C0C0C0C0C0C00000C0C00000FA
:1016700000D8D8D8D800000000000000000000000A
:101680006666FFFF66666666FFFF66660000001816
:101690007EDB98D8781E1B19DB7E18000000E3A3C0
:1016A000E6060C1818306067C5C700000078CCCC7F
:1016B000CCD8707BDFCCCEFF73000000606060C0D0
:1016C0000000000000000000000000183060C0C0F2
:1016D000C0C0C0C0603018000000C06030181818CA
:1016E0001818183060C0000000000018DBFF3C3CF8
:1016F000FFDB1800000000000000181818FFFF189A
:1017000018180000000000000000000000000000A9
:1017100000606060C0000000000000FFFF000000EB
:10172000000000000000000000000000000000C0F9
:10173000C0000000030306060C1818306060C0C02B
:101740000000007EFFC3C3CBCBD3D3C3C3FF7E0057
:101750000000070F1F3B7303030303030303000091
:10176000007EFFC30303060C183060FFFF0000007B
:101770007EFFC303031E1E0303C3FF7E000000C3DE
:10178000C3C3C3C3FFFF0303030303000000FFFF42
:10179000C0C0C0FE7F0303C3FF7E0000007EFFC306
:1017A000C0C0FEFFC3C3C3FF7E000000FFFF0303F2
:1017B000070E1C18181818180000007EFFC3C3C3BA
:1017C0007E7EC3C3C3FF7E0000007EFFC3C3C3FF92
:1017D0007F0303C3FF7E000000000000C0C00000C4
:1017E000C0C00000000000000000000000606000B9
:1017F00000606060C00000000E1C3870E0E07038CF
:101800001C0E00000000000000FFFF0000FFFF00B2
:1018100000000000000070381C0E07070E1C387016
:10182000000000007EFFC303060C18180000181803
:101830000000003E7FE3CFDFDBDBDFCEE17F3E0059
:1018400000007EFFC3C3C3FFFFC3C3C3C3C3000005
:1018500000FEFFC3C3C3FEFFC3C3C3FFFE000000FF
:101860007EFFC3C0C0C0C0C0C0C3FF7E000000FE7A
:10187000FFC3C3C3C3C3C3C3C3FFFE000000FFFF56
:10188000C0C0C0FCFCC0C0C0FFFF000000FFFFC024
:10189000C0C0FCFCC0C0C0C0C00000007EFFC3C010
:1018A000C0CFCFC3C3C3FF7E000000C3C3C3C3C345
:1018B000FFFFC3C3C3C3C3000000C0C0C0C0C0C0DB
:1018C000C0C0C0C0C0C0000000FEFE06060606067E
:1018D0000606C6FE7C000000C3C7CEDCF8F0F8FCAC
:1018E000CEC7C3C3000000C0C0C0C0C0C0C0C0C01D
:1018F000C0FFFF000000C3E7FFFFDBC3C3C3C3C3D8
:10190000C3C3000000C3C3E3F3FBDFCFC7C3C3C33C
:10191000C30000007EFFC3C3C3C3C3C3C3C3FF7EF2
:10192000000000FEFFC3C3C3FFFEC0C0C0C0C000B4
:1019300000007EFFC3C3C3C3C3C3C3C3FF7E07038B
:1019400000FEFFC3C3C3FEFEC3C3C3C3C300000086
:101950007EFFC3C0C0FE7F0303C3FF7E000000FF05
:10196000FF18181818181818181818000000C3C302
:10197000C3C3C3C3C3C3C3C3FF7E000000C3C3C389
:10198000C3C3C3C3C3E77E3C18000000C3C3C3C3C3
:10199000C3C3C3DBDBDBFF66000000C3C366663C7A
:1019A00018183C6666C3C3000000C3C366663C3CAF
:1019B000181818181818000000FFFF03070E1C382D
:1019C00070E0C0FFFF000000F8F8C0C0C0C0C0C099
:1019D000C0C0F8F8000000C0C060603018180C06E5
:1019E000060303000000F8F818181818181818183B
:1019F000F8F8000000183C7EE7000000000000003E
:101A00000000000000000000000000000000FFFFD8
:101A1000000000C0C0606000000000000000000086
:101A2000000000000000007EFEC6C6C6FE7E00006C
:101A300000C0C0C0C0C0FCFEC6C6C6FEFC000000A0
:101A400000000000007EFEC0C0C0FE7E0000000658
:101A5000060606067EFEC6C6C6FE7E000000000024
:101A60000000007CFEC6FCC0FE7E0000003C7C60E6
:101A70006060F8F8606060606000000000000000D6
:101A8000007EFEC6C6C6FE7E06FE7CC0C0C0C0C0CC
:101A9000FCFEC6C6C6C6C60000000000C0C000C02E
:101AA000C0C0C0C0F0700000000000181800181876
:101AB000181818181818F870C0C0C0C0CCD8F0F0AA
:101AC000D8CCC6C6000000C0C0C0C0C0C0C0C0C026
:101AD000C0F87800000000000000007CFED6D6C6EA
:101AE000C6C600000000000000007CFEC6C6C6C6D8
:101AF000C600000000000000007CFEC6C6C6FE7CDA
:101B00000000000000000000FCFEC6C6C6FEFCC0CF
:101B1000C0C000000000007EFEC6C6C6FE7E0606EF
:101B2000060000000000D8F8E0C0C0C0C0000000FF
:101B300000000000007CFEC07C06FE7C000000303F
:101B40003030FCFC30303030303E1E0000000000F1
:101B5000000000C6C6C6C6C6FE7C0000000000002D
:101B60000000C6C6C6C6EE7C3800000000000000BB
:101B700000C6C6C6D6D6FE7C0000000000000000ED
:101B8000C6C67C387CC6C60000000000000000C647
:101B9000C6C6C6C6FE7E06FE7C0000000000FEFE35
:101BA0000C3860FEFE0000001C3C303030E0E030BD
:101BB00030303C1C000000C0C0C0C0C0C0C0C0C0AD
:101BC000C0C0C0000000E0F03030301C1C303030AD
:101BD000F0E000000073FBDFCE000000000000001A
:101BE0000000000000000000480000780C7CCCCC15
:101BF000760000000000004800007CC6C6C6C67C17
:101C0000000000000000480000CCCCCCCCCC76001A
:101C1000000000440010386CC6C6FEC6C6C60000F0
:101C2000000044007CC6C6C6C6C6C6C67C0000000E
:101C3000004400C6C6C6C6C6C6C6C67C00000000B4
:101C4000000078CCCCF8CCCCCCF8C0C0C000183C9C
:101C50007EFF181818181818181800000000001334
:101C60003373FFFF73331300000000000000C2C68F
:101C7000CEFFFFCEC6C200000000000000C8CCCEE0
:101C8000FFFFCECCC800000000000000103070FF45
:101C9000FF70301000000000000000080C0EFFFF75
:101CA0000E0C080000000000000000000000000012
:101CB000000C0C0C0C000C0C00001B1B1200000094
:101CC0000000000A0A1F0A1F0A0A0000040F140E6F
:101CD000051E04000019190204081313000008145B
:101CE000140815120D000018181000000000000064
:101CF000081010101010080000100808080808103C
:101D00000000000A041F040A0000000004041F046D
:101D1000040000000000000000181810000000007F
:101D20001F00000000000000000000181800000163
:101D300001020408101000000E11111111110E0003
:101D400000040C140404041F00000E110106081006
:101D50001F00000E11010E01110E00001111111FC4
:101D600001010100001F10101E01110E00000608E5
:101D7000101E11110E00001F0102040808080000C7
:101D80000E11110E11110E00000E11110F01020C97
:101D900000000018180018180000000000181800B3
:101DA0001818100002040810080402000000001FA8
:101DB000001F000000001008040204081000000EBC
:101DC00011010204000400000E11171517100E0077
:101DD000000E11111F11111100001E11111E111101
:101DE0001E00000E11101010110E00001E11111116
:101DF00011111E00001F10101E10101F00001F10D8
:101E0000101E10101000000E11101711110F0000FD
:101E10001111111F11111100001F04040404041FEB
:101E200000001F01010101110E000011121C12110E
:101E3000111100001010101010101F0000111B15C0
:101E40001111111100001119151311111100000EBB
:101E500011111111110E00001E11111E1010100091
:101E6000000E11111111110E03001E11111E11117E
:101E70001100000E11100E01110E00001F040404C9
:101E800004040400001111111111110E00001111B0
:101E90001111110A04000011111111151B1100007C
:101EA00011110A040A111100001111110A0404048D
:101EB00000001F01020408101F00001C1010101069
:101EC000101C00001010080402010100001C040492
:101ED0000404041C0000040A1100000000000000BB
:101EE00000000000001F00001008000000000000BB
:101EF0000000000D1311110F000010101619111120
:101F00001E000000000E1110110E000001010D1343
:101F100011110F000000000E111E100F000003042D
:101F2000041F040404000000000D1311110F010E22
:101F30001010161911111100001000101010100CC3
:101F40000000040004040404040418101012141AFD
:101F5000111100001010101010100C000000001AD9
:101F600015151111000000001E11111111000000C3
:101F7000000E1111110E00000000161911111E1093
:101F80001000000D1311110F010100001B0C0808B7
:101F900008000000000F100E011E000004041F04C2
:101FA00004040300000000111111130D00000000D3
:101FB00011110A0A04000000001111151B11000084
:101FC0000000110A040A11000000001111110A0694
:101FD000040800001F0204081F000006080810087B
:101FE000080600000404040404040400000C0202B7
:101FF0000102020C00000D16000000000000000AA3
:10200000000E010F110F00000A000E1111110E0039
:10201000000A00121212160A00000A0E111F1111F6
:102020001100000A0E111111110E00000A111111F8
:1020300011110E00000E1111161111161010040EC0
:102040001F04040404000000050D1F0D050000001E
:102050000012161F16120000000014161F1614009E
:1020600000000004081F08040000000004021F0212
:10207000040000000000000000000404040004004C
:102080000500000000000207020702000306020329
:102090000600050102040500020502050300040014
:1020A0000000000002040404020004020202040012
:1020B00002070707020000020702000000000000FC
:1020C00002040000070000000000000004000101FD
:1020D00002040400020505050200020602020700D0
:1020E00006010204070006010201070005050701B9
:1020F00001000704060107000304060507000701A5
:102100000202020007050705070007050301060094
:1021100000040004000000000200020401020402A6
:10212000010000070007000004020102040006018C
:10213000020002000601030507000205070505006D
:10214000060506050600030404040300060505054C
:10215000060007040604070007040604040003043D
:102160000505030005050705050007020202070033
:102170000701010106000505060505000404040425
:102180000700050705050500050707050500020509
:102190000505020006050604040002050505030006
:1021A00006050605050003040701060007020202F2
:1021B00002000505050502000505050202000505EA
:1021C00005070500050502050500050502020200D8
:1021D00007010204070006040404060004040201C7
:1021E00001000602020206000205000000000000D5
:1021F00000000700040200000000000003050300C7
:1022000004040605060000000304030001010305A1
:102210000300000007060700010207020200000099
:102220000305030304040605050004000404040078
:10223000020002020204040405060500040404046A
:102240000200000007070500000006050500000069
:10225000070507000000060506040000030503014A
:102260000000050604000000030206000207020247
:102270000100000005050300000005050200000044
:102280000507070000000502050000000505030220
:10229000000007020700020204020200020202021A
:1022A0000200020201020200060300000000000515
:1022B00003050300000507050700000505050300E9
:1022C00005020507050005020505020005050505CF
:1022D00002000205060506040207020202000003CE
:1022E00007030000000507050000000607060000C0
:1022F00000040704000000010701000000000000C6
:1023000000000000040404040004000009090000A7
:1023100000000000060F06060F06000002070E0769
:102320000E0400000D0D02040B0B0000040A040B48
:102330000A05000008080000000000000408080862
:1023400008040000080404040408000009060F063D
:102350000900000000040E0400000000000000005E
:102360000404080000000E0000000000000000004F
:102370000808000001020204040800000609090917
:102380000906000002060A02020200000E01020411
:10239000080F00000E010201010E00000809090FDC
:1023A000010100000F080E01010E000006080E09D1
:1023B000090600000F0102040404000006090609D2
:1023C00009060000060907010106000000080800D0
:1023D00008080000000004040004040802040808BF
:1023E0000402000000000F000F00000008040202B9
:1023F00004080000060902040004000006090B0D91
:102400000A06000006090F09090900000E090A0959
:10241000090E000007080808080700000E0909094E
:10242000090E00000F080E08080F00000F080E0824
:102430000808000007080B090907000009090F092F
:10244000090900000E040404040E00000701010144
:10245000110E0000090A0C0A090900000808080802
:10246000080F0000090F090909090000090D0B09EF
:102470000909000006090909090600000E090E08ED
:102480000808000006090909090603000E090E09DB
:102490000909000007080601010E00000E040404EB
:1024A00004040000090909090906000009090909CD
:1024B00006060000090909090F09000009090606B6
:1024C0000909000009090A04040400000F010204BC
:1024D000080F00000E080808080E00000804040297
:1024E000020100000E020202020E0000040A0000B7
:1024F0000000000000000000000F000008040000C1
:1025000000000000000007090907000008080E0984
:10251000090E000000000708080700000101070974
:10252000090700000000070F0807000003040E045D
:1025300004040000000007090907010608080E0945
:102540000909000008000808080400000400040449
:102550000404040808080A0C0A090000080808080E
:10256000080600000000090F0909000000000E091C
:10257000090900000000060909060000000006091C
:10258000090E0808000007090907010100000A0CEC
:10259000080800000000070E010E000000040E04F1
:1025A00004030000000009090907000000000909F0
:1025B00006060000000009090F09000000000906D6
:1025C00006090000000009090906020400000F02C4
:1025D000040F0000030206020203000004040404C6
:1025E0000404000006020302020600000D0B0000B6
:1025F000000000000A000E010F110F000A000E116A
:1026000011110E000A00121212160A000A0E111FF2
:10261000111111000A0E111111110E000A111111E0
:1026200011110E000C12121C12121C10040E1F04A9
:102630000404040000050D1F0D0500000012161F04
:10264000161200000014161F161400000004081FC4
:10265000080400000004021F020400000000000043
:10266000000000000000000000303030303030004A
:102670000030300000003636363600000000000022
:1026800000000012123F121212123F12120000003C
:102690000C1E2D2C1C0E0D2D1E0C0000003B2B3E85
:1026A000060C0C181F35370000001C3E36361C3F48
:1026B00037363F1B000000181830000000000000F3
:1026C00000000000060C1830303030180C060000F6
:1026D0000030180C060606060C1830000000000C2E
:1026E0002D3F1E3F2D0C000000000000000C0C3F91
:1026F0003F0C0C0000000000000000000000000083
:102700000018183000000000003F3F0000000000EB
:102710000000000000000000000030300000000356
:102720000306060C0C181830300000001E3F33332F
:10273000373B33333F1E000000070F1F3B030303EB
:102740000303030000001E3F330303060C183F3F42
:102750000000001E3F33030E0E03333F1E00000037
:10276000333333333F3F030303030000003F3F3065
:10277000303E1F03333F1E0000001E3F33303E3FFC
:1027800033333F1E0000003F3F030306060C0C0CD2
:102790000C0000001E3F33331E1E33333F1E00006B
:1027A000001E3F33333F1F03333F1E000000000075
:1027B0000030300000303000000000000000001841
:1027C000180000181830000000070E1C38381C0EC6
:1027D00007000000000000FFFF0000FFFF000000F6
:1027E000000000381C0E07070E1C38000000001EF9
:1027F0003F3303060C0C000C0C0000001E3F333767
:10280000373737303F1E0000001E3F33333F3F3322
:102810003333330000003E3F33333E3F33333F3EDC
:102820000000001E3F3330303030333F1E000000C8
:102830003E3F3333333333333F3E0000003F3F30BE
:10284000303C3C30303F3F0000003F3F30303C3CAC
:10285000303030300000001E3F3330373733333FE5
:102860001E000000333333333F3F33333333000034
:1028700000303030303030303030300000003E3EFC
:102880000606060606363E1C0000003333373E3C83
:102890003E373333330000003030303030303030AA
:1028A0003F3F000000333F3F3F3333333333330088
:1028B000000033333B3F3F37333333330000001ED8
:1028C0003F3333333333333F1E0000003E3F333357
:1028D0003F3E303030300000001E3F33333333335F
:1028E000333F1E0700003E3F33333E3F3333333325
:1028F0000000001E3F33303E1F03333F1E00000028
:102900003F3F0C0C0C0C0C0C0C0C00000033333350
:1029100033333333333F1E00000033333333333329
:10292000333F1E0C000000333333333333333F3F28
:10293000120000003333331E0C0C1E3333330000FF
:10294000003333331E1E0C0C0C0C0C0000003F3FF8
:1029500003070E1C38303F3F0000003E3E30303051
:102960003030303E3E000000303018180C0C0606A7
:1029700003030000003E3E0606060606063E3E0035
:1029800000000C1E330000000000000000000100E9
:10299000000000000000003F3F0000003030181829
:1029A000000000000000000000000000001F3F3396
:1029B000333F1F000000303030303E3F33333F3E66
:1029C000000000000000001F3F30303F1F000000EB
:1029D000030303031F3F33333F1F000000000000C9
:1029E000001E333E303F1F0000000F1F18183E3EF0
:1029F00018181818000000000000001F3F33333F74
:102A00001F033F1E303030303E3F3333333300003E
:102A10000000303000303030303C1C000000000638
:102A20000600060606060606063E1C303030333E1B
:102A30003C3633333300000030303030303030300B
:102A40003C1C000000000000001A3F373333330005
:102A50000000000000001E3F33333333000000004D
:102A60000000001E3F33333F1E0000000000000046
:102A70003E3F33333F3E303030000000001F3F33D5
:102A8000333F1F03030300000000363E3830303070
:102A9000000000000000001E3F30033F1E00000049
:102AA0000C0C3F3F0C0C0C0C0F070000000000004A
:102AB00000333333333F1E00000000000000333387
:102AC000333F1E0C00000000000000333333373F5B
:102AD0001E0000000000000033330C1E33330000E2
:102AE0000000000000333333333F1F033F1E00005C
:102AF00000003F3F06183F3F000000070F0C0C3856
:102B0000380C0C0F0700000018181818181818189F
:102B10001818000000383C0C0C07070C0C3C38005F
:102B20000000193927260000000000000000000006
:102B3000003333001F3F33333F1F000000003333A7
:102B4000001E3F33333F1E00000000333300333399
:102B500033333F1E0000002200081C36637F63638E
:102B60006300000022003E6363636363633E000012
:102B7000002200636363636363633E000000001E22
:102B800033333E3333333E303030000C1E3F0C0CB9
:102B90000C0C0C0C0C000000000009193F3F190937
:102BA0000000000000000022263F3F262200000017
:102BB0000000000024263F3F262400000000000003
:102BC0000008183F3F18080000000000000004063D
:102BD0003F3F0604000000000000CDBE4CF0D9D3FA
:102BE00011241FBECFEFD1E2DEBFCDBF00E00CBF8E
:102BF00084B78093881314BE0FB6F894A89580917B
:102C00006000886180936000109260000FBE16E043
:102C1000A0E0B2E0EAE8FFEE01E00BBF02C00790DF
:102C20000D92AE3AB107D9F723E1AEEAB6E001C0A2
:102C30001D92A838B207E1F715E1CFEED5E100E02B
:102C400006C021970109802FFE010E942CF1CD3E84
:102C5000D10780E00807A9F70E94C6BE0C94CCF605
:102C60000C9400008454944F0E948C9160E070E0BA
:102C70008DE493E10E940C190895CF93DF93EC014A
:102C800081E793E099838883CE018156934F0E9418
:102C9000FEB5CE010E943DB9DF91CF910895CF934B
:102CA000DF93D82FC92F0E943D1668EB7CE08D2F53
:102CB0009C2F0E94DBB5DF91CF910895A0E0B0E09A
:102CC000E4E6F6E10C9467F1EC018DEB92E0998378
:102CD00088831B821A821C827E0185E0E80EF11C2B
:102CE000C7010E946F96CE018B549F4F9F838E83A6
:102CF000835A91099987888782E390E0998B888B22
:102D0000BE01665F7F4FC7010E9415978A858F8736
:102D1000CE018F969B8B8A8B1D8A1C8A1F8A1E8AE6
:102D2000198E188E1B8E1A8E1C8E1E8E1D8E0E9462
:102D30002FA78E010C501F4F6E01E8EBCE1AEEEF5D
:102D4000DE0AC8010E94A7A00A5F1F4F0C151D05CF
:102D5000C1F7CE018554944F0E949DB48E01045456
:102D6000144FC8010E94AB946E01FCE3CF1AF4EF3C
:102D7000DF0A40E050E0BA01C6010E943A9081E8C3
:102D800095E0F6019183808310870783B8961183BD
:102D90000083138212821582148223E02683178215
:102DA0001186108613861286148615861686178657
:102DB000BF961183008313821282158214822683A8
:102DC000178211861086138612861486158616863B
:102DD00017867096118300831282138214821582E3
:102DE0003696118300831382128215821482268301
:102DF000178211861086138612861486158616860B
:102E000017867696118300831382128215821482AC
:102E100026831782118610861386128614861586DD
:102E200016861786DE01A25AB34F11961C930E9395
:102E300013961C921E92129715961C921E9214972E
:102E400017962C93179718961C9218971A961C92FF
:102E50001E9219971C961C921E921B971E961C92EE
:102E60001E921D97AE014359534FFA0111830083FF
:102E7000138212821582148227831086128611868D
:102E80001486138616861586CE018458934FFC014E
:102E90001183008313821282158214821682278383
:102EA00010861286118614861386168615860F964E
:102EB000FC01118300831382128215821482168210
:102EC0002783108612861186148613861686158629
:102ED00081E016968C93FA01868381E793E09983CB
:102EE0008883C7010E94D596FE01E556F34F918372
:102EF0008083C7010E94F996FE01E356F34F918348
:102F000080830D511F4FC8010E94BF1883ED92E0CE
:102F1000F8019183808339968BEC92E091838083D2
:102F2000C655D34F1B861C861D86CDB7DEB7E8E09D
:102F30000C9483F18C53944F0E94F9900895A9E06A
:102F4000B0E0E5EAF7E10C946DF140E068E0CE0115
:102F500001960E94D7828DE593E09A838983CE0102
:102F600001960E94F990CE0101960E9416B629960C
:102F7000E2E00C9489F1EC018C010C53144FC80170
:102F80000E94F990CE010E949F17F9CFA3ECB1E007
:102F9000ECECF7E10C946DF1CE0101960E944546F0
:102FA000CE0101960E94F99085E894E09A83898386
:102FB000CE0101960E940B1DCD53DE4FE2E00C9432
:102FC00089F10F93CF93DF93CDB7DEB7AD970FB6EF
:102FD000F894DEBF0FBECDBF01E025EC34E145EA39
:102FE0005BEC60E070E0CE0101960E945B1D8FE01B
:102FF00093E09A838983CE0101960E94F990CE01D5
:1030000001960E9417B7AD960FB6F894DEBF0FBEBB
:10301000CDBFDF91CF910F910895FC01E556F34F9D
:10302000718360830895FC01E356F34F71836083DD
:103030000895EC018C010156134F62E0C8010E9413
:10304000EC18CE0105960E94C896682FC8010E9410
:1030500086C8CE018C53944F0E942290CE010E94CC
:10306000C617CE010E94E117F9CFA0E0B0E0EBE374
:10307000F8E10C9465F1EC010E94E3B55E0125E6F0
:10308000A21A23EFB20AF501808191819E01235695
:10309000334F6901892B29F4F90180819181892BB2
:1030A000A1F10091CB061091CC068DEC96E00E9428
:1030B00029957C01FE01E656F34F8081882399F023
:1030C000F50120813181CE018156934F21153105C3
:1030D00039F0A8014E195F0961E04217530708F45F
:1030E00060E00E949CC8F60120813181CE018454A9
:1030F000944F2115310531F00E191F0961E00217B7
:10310000130708F460E00E945491CDB7DEB7EAE0FF
:103110000C9481F10F931F93CF93DF93D82FC92F76
:10312000062F672F142F0E944BC8882331F0412FA0
:10313000602F8D2F9C2F0E944BC8DF91CF911F9144
:103140000F910895EC0162E370E08156934F0E9465
:1031500076C9FE01E656F34F8083811103C0CE018C
:103160000E94BB1782E390E00E94B9B5CE010E9495
:103170001918089562E070E00E94DBB50895FC0123
:1031800087E893E09183808384E68783108608959F
:10319000FC0187E893E091838083CF010E94B918F6
:1031A0000895CF93DF93D82FC92F0E94C81869E0E4
:1031B00070E08D2F9C2F0E94DBB5DF91CF91089599
:1031C000FC0173836283558344830895FC01678304
:1031D0000895FC0160870895FC0166830895FC0151
:1031E000868181FF03C084819581089582819381C6
:1031F0000895FC01868181FF03C082819381089537
:10320000848195810895FC0187810895FC01808562
:103210000895FC0186810895AF92BF92CF92EF92FC
:10322000FF920F931F93CF93DF93EC017B01E88113
:10323000F981A680B7800E94F9188C01CE010E9406
:10324000EF189C01C12C40E050E060E070E0CE013E
:10325000F5011995DF91CF911F910F91FF90EF909C
:10326000CF90BF90AF900895DC01ED91FC91048068
:10327000F581E02D19950895A0E0B0E0E2E4F9E1D0
:103280000C9467F1EC018B017A01690161507109BD
:10329000E881F9810480F581E02D1995A70141505D
:1032A0005109E881F9810480F581E02D9601B8018A
:1032B000CE011995E881F9810480F581E02D960110
:1032C000A701B801CE011995A7014F5F5F4FE881B3
:1032D000F9810480F581E02D9601B801CE011995A0
:1032E000B8016F5F7F4FE881F9810480F581E02D9F
:1032F0009601A701CE011995CDB7DEB7E8E00C9491
:1033000083F1CF92EF92FF920F931F93DC0178012C
:10331000ED91FC910680F781E02DC12C890121E01F
:1033200030E019951F910F91FF90EF90CF90089585
:10333000CF92EF92FF920F931F93DC017801ED91F2
:10334000FC910680F781E02DC12C01E010E0199579
:103350001F910F91FF90EF90CF900895ACE0B0E0F7
:10336000E4EBF9E10C945DF189839A836B014A01E6
:103370001C830B8387018B819C81841B950B9C870D
:103380008B873901661A770A2617370749F49C019B
:1033900089819A810E9481192C96E2E10C9479F13D
:1033A000AB85BC85AB2B31F4930189819A810E9456
:1033B0009819F2CFEB84FC84F7FE03C0F194E194FA
:1033C000F108C30177FE04C0882799278619970959
:1033D000E816F90608F47C01A12CB12C1701412C48
:1033E000512C9501AB85BC850E944BF16B837C838E
:1033F0008D839E83A20191010E940DF1C401820F71
:10340000931F9C838B839501D3010E944BF16F83A3
:10341000788789879A87A20191010E940DF1B601F0
:10342000620F731FA981BA81ED91FC9111970480FD
:10343000F581E02D98014B815C81CD011995BFEF9D
:10344000AB1ABB0AEA14FB0460F6A6CFEF92FF9218
:103450000F931F93DC01ED91FC910284F385E02D25
:1034600019951F910F91FF90EF900895CF92EF92D1
:10347000FF920F931F93DC01ED91FC910680F78181
:10348000E02D19951F910F91FF90EF90CF90089527
:10349000A4E0B0E0EEE4FAE10C945DF189839A8354
:1034A0005B014A012B833C832801380181E0681AC3
:1034B0007108640E751E8701C0FE34C0CB80DC80AD
:1034C00082E0C81AD10896011B018FEF281A380A2A
:1034D000B10189810E9498199601A301B1018981E6
:1034E0009A810E949819620182E0C81AD1088FEF70
:1034F000881A980A87019601A401B50189819A81E9
:103500000E9481196B817C81615071096A0D7B1D5C
:103510009601A40189819A810E9481192496E2E191
:103520000C9479F12B813C8189819A810E949819B0
:103530002B813C81A301B501D2CFAF92BF92CF9234
:10354000EF92FF920F931F93DC01ED91FC910084A9
:10355000F185E02D19951F910F91FF90EF90CF907D
:10356000BF90AF900895ACE3B0E0E9EBFAE10C94C2
:103570005DF13C01562ED72E342E452E222EA5016C
:10358000D4012D913C916CE370E0CE0101960E9434
:103590004CF3D301ED91FC910084F185E02DCE0137
:1035A00001965C01222D432D542D652D7D2DC301E7
:1035B0001995EC96E2E10C9479F18F929F92AF927B
:1035C000BF92CF92EF92FF920F931F93CF93DF930F
:1035D0000F920F92CDB7DEB7CE014F969A838983B3
:1035E0004E974C01AD8CBE8CCC8CEA8CFB8C088D3C
:1035F000198D2F894D895E896B897C8989899A8982
:103600000E94B31A0F900F90DF91CF911F910F91ED
:10361000FF90EF90CF90BF90AF909F908F900895C4
:10362000ACE3B0E0E6E1FBE10C945FF14C01762EF7
:10363000D72E542E652E422EB5014CE350E0CE011C
:1036400001960E9408F2D401ED91FC910084F1856D
:10365000E02DCE0101965C01242D452D562D672DC0
:103660007D2DC4011995EC96E0E10C947BF1ACE35F
:10367000B0E0EDE3FBE10C945DF13C01562ED72E5A
:10368000342E452E222EA501D4012D913C916CE3C0
:1036900070E0CE0101960E9489F3D301ED91FC9177
:1036A0000084F185E02DCE0101965C01222D432D91
:1036B000542D652D7D2DC3011995EC96E2E10C94F6
:1036C00079F18F929F92AF92BF92CF92EF92FF9239
:1036D0000F931F93CF93DF930F920F92CDB7DEB767
:1036E000CE014F969A8389834E974C01AD8CBE8C48
:1036F000CC8CEA8CFB8C088D198D2F894D895E89C5
:103700006B897C8989899A890E94371B0F900F9059
:10371000DF91CF911F910F91FF90EF90CF90BF90CD
:10372000AF909F908F9008950895EF92FF920F931E
:103730001F93CF93DF93EC017901E881F98102882F
:10374000F389E02D01E010E021E030E01995E881F7
:10375000F9810488F589E02DB701CE011995E8813A
:10376000F9810688F789E02DCE011995CDB7DEB72E
:10377000E6E00C9485F1A4E1B0E0E1ECFBE10C940F
:103780005DF18B8B9C8B1B014F87588B822F098B94
:103790001A8BEB82FC821C2D0E944FB44C01DC0181
:1037A00012967C90129713968C9113971496EC9026
:1037B000149715966C90B62DB81BBD83A982BA825A
:1037C000A12CB12CE82FF0E0F987E887262D30E016
:1037D0003B872A878E2D90E09D878C8711701E87EE
:1037E000E981FA818191FA83E983811105C0C501DC
:1037F0006496E2E10C9479F190EE980F9C3608F013
:103800008FE390EEF92EF80EA885B985FA9E600137
:10381000FB9ED00C11248B899C890E94EF182816DE
:10382000390628F7AB89BC89ED91FC911197028884
:10383000F389E02D0A851B852C853D854F855889A8
:10384000B101CD011995412C512C46101EC0AB89F8
:10385000BC89ED91FC9111970688F789E02DCD0187
:103860001995FF2009F461C0BE85BB2309F45DC032
:10387000552021F0852D5E2C80FF54C0852D90E0D1
:10388000A80EB91E280E391EABCFBD814B1608F409
:1038900047C086010F5F1F4FD401ED91FC91EC0DE5
:1038A000FD1DE4915E2AC72CD12C2E2F30E03F83E2
:1038B0002E83AB89BC89ED91FC91872D8C198E15D7
:1038C00018F043946801C1CF0488F589E02D87156D
:1038D00068F4C6010197AE81BF8102C0B595A79576
:1038E0008A95E2F769897A89A0FD02C06B817C81A3
:1038F0008B899C891995B1E0CB1AD108DACF04885D
:10390000F589E02D6B817C818B899C8919951F5FDE
:10391000AB89BC89ED91FC911E11F1CF8601D1CF0D
:1039200010E0F6CF5A948695A7CF5E2CA7CF8F9242
:103930009F92AF92BF92CF92EF92FF920F931F93FD
:10394000CF93DF93EC015901C8012115310589F0AE
:10395000009779F0E881F98137FF17C022273327D4
:103960002A193B096A0D7B1D0680F781E02DCE01E7
:103970001995DF91CF911F910F91FF90EF90CF900C
:10398000BF90AF909F908F900895480117FF0AC095
:1039900000271127081B190B480F591F0680F781B4
:1039A000E02DE5CF0288F389E02DCE011995850140
:1039B000E881F9810488F589E02DB701CE011995D8
:1039C000015011090115110599F781E0881A910834
:1039D0008114910461F7E881F9810688F789E02D67
:1039E000CE011995C6CFFC018DE993E091838083C8
:1039F000CF010E94C8180895CF93DF93D82FC92F05
:103A00000E94F31C69E070E08D2F9C2F0E94DBB5B3
:103A1000DF91CF910895FC0181ED93E09183808344
:103A2000CF010E941E900895CF93DF93D82FC92F06
:103A30000E940B1D6DE270E08D2F9C2F0E94DBB564
:103A4000DF91CF910895A0E0B0E0E9E2FDE10C94B0
:103A500067F1EC018F81882349F17E018AE1E80E4C
:103A6000F11C8E810E851F859FE0899F000D111D21
:103A70001124CC84DD848CA1882371F08DA19EA1BA
:103A8000C816D90629F48FA198A50817190771F04F
:103A900060E0C7010E9497D5DEA2CDA218A70FA3B0
:103AA00081E08CA361E0C7010E9497D5CDB7DEB756
:103AB000E8E00C9483F1FF920F931F93CF93DF9371
:103AC000EC01F22E132F0E943A9081ED93E099833E
:103AD00088830F83F88619871B861A861B8A1A8AA1
:103AE0001D8A1C8A8DE493E10E94EF189F8B8E8BB8
:103AF0008DE493E10E94F918998F888F1B8E1A8E9E
:103B00001D8E1C8E1AA285E08BA31CA21EA21DA2D4
:103B100018A61FA28FEF9FEF9AA789A71CA61BA626
:103B20008DE493E10E94EF1801979F8F8E8F8DE4B3
:103B300093E10E94F918019799A388A381E08AA3D1
:103B40001CA284E08BA380EE9DEF9AA789A7CDB736
:103B5000DEB7E5E00C9486F1DC01ED91FC91068086
:103B6000F781E02D199508958F929F92AF92BF92A1
:103B7000CF92EF92FF920F931F93CF93DF93EC01BD
:103B800088859985892B09F484C084E00E944FB40C
:103B90004C018DE493E10E94EF1863E070E00E9415
:103BA000C3F05B01F401058110E00F5F1F4FC12CD2
:103BB000EE24EA94FE2C9B0140E050E08DE493E17A
:103BC0000E94361A950122503109F401458150E0D6
:103BD0004F5F5F4FB5016F5F7F4F0FEF1FEF8DE4BA
:103BE00093E10E949819888599850E94FFF1F4015C
:103BF0002481289F8001299F100D11248DE493E1D9
:103C00000E94EF18A884B984BC01601B710B7695E3
:103C10006795CC24C39400E010E024E041E050E03C
:103C20008DE493E10E94101B1B8A1A8A81E090E0C8
:103C30009D8B8C8B8DE493E10E94EF182A893B8940
:103C4000821B930B9F8B8E8B8DE493E10E94F9185E
:103C50009C014C895D89841B950B998F888F8A897B
:103C60009B899D878C87BA016A5F7F4F7F876E87AC
:103C70009B8F8A8F5D8F4C8FAC014D5F5F4F5F8F45
:103C80004E8F2150310939A328A31CA20696998B87
:103C9000888BDF91CF911F910F91FF90EF90CF9084
:103CA000BF90AF909F908F900895CF93DF93EC01DA
:103CB00060E070E08DE493E10E940C19CE010E9457
:103CC000B41DE881F9810480F581E02DCE011995BC
:103CD000E881F9810190F081E02DCE011995DF9105
:103CE000CF910895DF92EF92FF920F931F93CF939E
:103CF000DF93EC018B01F42E8C8181702F8138854C
:103D00002115310509F473C09A894B895E855F934B
:103D10005D855F935C855F935B855F933F932F9396
:103D20008F934F939F934F939F938D818F938B810D
:103D30008F938A818F9389818F9388818F938DE46C
:103D400093E19F938F930E94DD1A8DB79EB74296A1
:103D50000FB6F8949EBF0FBE8DBF1E829FEF6FE51A
:103D600074E1F91629F08EEFF81271C06CE175E17B
:103D7000CE010E944AD68F819885009709F48DC0A4
:103D80002C8121701B850C85FD84EE84A889B9895E
:103D9000EA89FB897D815A816B8138814981DF8481
:103DA000D110B1C0EF92FF920F931F939F938F9307
:103DB0002F93FF93EF93BF93AF937F936F935F9393
:103DC0004F933F938DE493E19F938F930E94DD1A6D
:103DD0008DB79EB742960FB6F8949EBF0FBE8DBFAB
:103DE00081E08E83CDB7DEB7E7E00C9484F12985BE
:103DF0003A852115310509F4B0CF9A894B895E8542
:103E00005F935D855F935C855F935B855F933F9375
:103E10002F938F934F939F934F939F938D818F9366
:103E20008B818F938A818F9389818F9388818F93E0
:103E30008DE493E19F938F930E94611B8DB79EB792
:103E400042960FB6F8949EBF0FBE8DBF86CF6F2DE2
:103E500083E697E00E9452A67C010E9444A869E292
:103E600075E1882309F484CFC7010E945CA8BC01D6
:103E70002AE1A80183EB96E00E94F0988E818823C6
:103E800031F08F8198850817190709F474CF1887C6
:103E90000F831A8619861E826ECF89859A850097B0
:103EA00009F49ECF2C8121701B850C85FD84EE8446
:103EB000A889B989EA89FB897D815A816B8138811A
:103EC0004981DF84D1103EC0EF92FF920F931F9380
:103ED0009F938F932F93FF93EF93BF93AF937F9312
:103EE0006F935F934F933F938DE493E19F938F93F1
:103EF0000E94611B8DB79EB742960FB6F8949EBF85
:103F00000FBE8DBF6DCFEF92FF920F931F939F93C4
:103F10008F932F93BF93AF93FF93EF937F936F9301
:103F20005F934F933F938DE493E19F938F930E9410
:103F3000DD1A8DB79EB742960FB6F8949EBF0FBE9E
:103F40008DBF4ECFEF92FF920F931F939F938F934E
:103F50002F93BF93AF93FF93EF937F936F935F93F1
:103F60004F933F938DE493E19F938F930E94611B46
:103F70008DB79EB742960FB6F8949EBF0FBE8DBF09
:103F80002FCFA0E0B0E0E7ECFFE10C9467F18C01EB
:103F900082E792E10E941E828091B206882309F492
:103FA00061C08DED96E00E9471A49C01F8018285AC
:103FB00093852817390709F455C033872287C289AA
:103FC000D38986899789C80FD91FEC9704891589E9
:103FD0002DB73EB78FEF91E2821B930B9F938F9388
:103FE00085EB93E09F938F931F921F921F9288EF10
:103FF000C82ECF921F92DD24D394DF92C801019680
:104000009F938F93DF93CF939DE4E92E93E1F92E55
:10401000FF92EF920E94DD1A8DB79EB720910002A9
:1040200030910102821B930B9F938F9381EC93E05D
:104030009F938F931F921F921F92CF921F92DF9296
:10404000055F1F4F1F930F93DF93CF93FF92EF9264
:104050000E94DD1A8DB79EB780960FB6F8949EBF6A
:104060000FBE8DBFCDB7DEB7E8E00C9483F10F93A0
:104070001F93CF93DF93EC019B0100E04FEF5FEFC5
:10408000BA010E945B1D8BEE92E099838883CE017A
:104090008D960E945AD68E01005C1F4FC8010E9467
:1040A0005AD6FE01ED5AFF4F108231968EE0808382
:1040B00082E08DAB1FAA23E02EAB80EE9DEF9DAF7B
:1040C0008CAF38E0F801308712862187C15BDF4F63
:1040D00099838883DF91CF911F910F9108950F935A
:1040E0001F93CF93DF93FC01848995897FE09C0126
:1040F000769F200D311D11244289538956A745A76B
:1041000030AB27A7EA012496D2ABC1ABD9011396F5
:10411000B4ABA3AB17AA8A010E5F1F4F11AF00AF5C
:104120002C5F3F4F33AF22AF61509F012C5A3F4F5E
:10413000D9012C91620F769F800D911D11249C0155
:104140002A5F3F4FE05CFF4F5183408333832283DC
:10415000D583C48309969783868312861487038741
:1041600036872587DF91CF911F910F910895CF92C8
:10417000DF92FF920F931F93CF93DF93EC01F62E04
:104180008D966E0123E5C20ED11CF60120812223FB
:1041900021F121E02FAB61E00E9497D58E01005CF8
:1041A0001F4F6F2D70E0F6018081CC5ADF4F988150
:1041B000890F9927991F86179707BCF481E0F801AA
:1041C000828761E0C8010E9497D5DF91CF911F914E
:1041D0000F91FF90DF90CF9008952FA92223F1F245
:1041E00060E00E9497D51FAAD9CFF8018285882365
:1041F00061F360E0C8010E9497D5F8011286E5CF0F
:104200000F931F93CF93DF93FC01DC01AC5ABF4F98
:104210005C919FEF940F561750F5950F8681891783
:1042200080F1DF01AD5ABF4F4C91242F30E0C52FF4
:10423000D0E0A62FB0E089010C0F1D1F0A171B0745
:10424000ECF48F5F891B280F311D2C0F3D1FA21727
:10425000B3077CF0840F9150DF01AD5ABF4F8C93B0
:10426000968381E0DF91CF911F910F910895960F72
:10427000D5CF862F851BF0CF80E0EECF968380E0F0
:10428000F1CF4817E0F3DF01AD5ABF4F2C91222345
:10429000B1F34F5F942F981B291770F3820F841B83
:1042A000942FDACFCF93DF93FC01DC01AC5ABF4FE0
:1042B0008C914150861700F5480FDF01AD5ABF4F72
:1042C0009C91292F280F3327331FE901262F30E037
:1042D000C217D30754F02681890F861B981708F45C
:1042E000892F981B9C93820F86838681481708F438
:1042F0004683DF91CF910895460FDFCFA6E0B0E06F
:10430000E4E8F1E20C946DF16E837D83CA01550FF0
:10431000AA0BBB0BBC01CD0124E630E040E050E02D
:104320000E940DF1BA01A9018E819D810E94DCDC01
:104330008E819D810E94F1DC2696E2E00C9489F149
:10434000A8E0B0E0E6EAF1E20C945DF17C0169835B
:1043500001E027E835E145E757E360E070E00E94BF
:104360005B1D83EE93E0F70191838083898185A7AC
:10437000F696FA83E983CF010E94BBDCC701865B16
:104380009F4F0E94BBDC870108581F4FF801118224
:10439000108213821282148283E085838EE185A3CA
:1043A00016A281E487A310A6CC24CA94DC2CD2A642
:1043B000C1A614A613A690EEA92E9DEFB92EB6A6FF
:1043C000A5A61682C70189559F4F0E94BBDC270115
:1043D00095ED490E511CC2010E94BBDCC7018751FB
:1043E0009F4F0E94BBDC3701E9EE6E1AEEEF7E0AAA
:1043F000C3010E94BBDCC701855D9E4F0E94BBDCF0
:104400004701F7EA8F1AFEEF9F0AC4010E94BBDC46
:10441000F701E359FE4F1182108213821282158236
:10442000148217821682108683E081871286138693
:10443000D586C48617861686B18AA08AC701805899
:104440009E4F0E94BBDCF701EC56FE4FFE83ED83CE
:10445000CF010E94BBDCC70188559E4F9C838B8394
:104460000E94BBDC170194E4291A9EEF390AC101AE
:104470000E94BBDCF701E053FE4F1082D282C18262
:10448000148213821682158281E08783118610863A
:10449000108ED28EC18E148E138EB68EA58E7F9600
:1044A000F887EF831182108213821282108685E0D2
:1044B000818712861486138616861586D08AC7864B
:1044C000128A118A8DE493E10E94EF180197EF811F
:1044D000F885958384838DE493E10E94F918019710
:1044E000EF81F88597838683148A138A168A158A42
:1044F000108E178A128E118E138ED58EC48E178E43
:10450000168EB1A2A0A283E082A313A215A214A2C8
:1045100017A216A211A610A613A612A615A614A6D7
:1045200017A616A611AA10AA13AA12AA15AA14AAA7
:1045300017AA16AA11AE10AE13AE12AE15AE14AE77
:1045400017AE16AECF010E9413D7EF81F88580A178
:1045500091A1908B8787868D978D928B818BF701A8
:1045600065A583E697E00E9445A6F70197A786A771
:10457000A701425A5F4F2AE165A583EB96E00E94AE
:10458000109C6CE674E189819A810E944AD682E08F
:10459000F801848367E476E1C2010E944AD6F20101
:1045A000148267E476E1C3010E944AD6F3011482C3
:1045B00067E476E1C4010E944AD6F4011482FF96B2
:1045C000108267E476E18D819E810E944AD6F701D0
:1045D000E455FE4F108267E476E18B819C810E9456
:1045E0004AD6F701E054FE4F108267E476E1C1013C
:1045F0000E944AD687E1EF81F885838FCF010E9420
:1046000013D72896E2E10C9479F1A0E0B0E0EBE05A
:10461000F3E20C9467F1EC016C018AE4C80ED11C42
:10462000C6010E94A7DD8E0108581F4F7E018EE54E
:10463000E80EF11C49E1B701C8010E94A8DEB801EB
:104640006A5F7F4F49E150E0C7010E947BF2FE01A3
:10465000E958FF4F1082A7016DA583EB96E00E94F9
:10466000099CC8010E9457DECE01C6960E94F1DC6B
:10467000C6010E94F1DCCDB7DEB7E8E00C9483F10F
:10468000A7E0B0E0E6E4F3E20C945DF16C016E8328
:104690007F833A01490158012E2C2C018AE1480EF2
:1046A000511C1A82198281E08D8380E098EFF60117
:1046B00092A781A7C2010E940BD761E0C8010E94A6
:1046C000D5DCC8010E94F1DC312C8CEA9DE1892BFC
:1046D00019F0C6010E94AC1D00E010E020E030E0BF
:1046E000AE014D5F5F4FBE016C5F7F4F8DEC96E07A
:1046F0000E9400951B814C81442321F1E12C21E093
:10470000EE81FF81608183E697E00E94B6A6EE818C
:10471000FF818083C5010E94A7DDEE81FF8160815A
:104720006F3F09F04BC08FEF9FEFF30191838083C0
:104730006FE574E1C5010E944AD6C5010E94F1DC13
:1047400033243394AE014B5F5F4FBE016F5F7F4FE9
:10475000C5010E9463E0112309F4B7CF80EE9DEFFD
:10476000F60192A781A7C2010E940BD760E0C501A4
:104770000E94D5DCC5010E94F1DCF601E05DFD4F31
:104780002082F1828EE7882E81E2982E9CEAA92E63
:104790009DE1B92EE22C820124E630E040E355E7AA
:1047A00060ED7AE8C30102960E9498E0311001C0E2
:1047B000382E832D2796E2E10C9479F16E3F41F477
:1047C0008EEF9FEFF301918380836CE175E1B2CFAF
:1047D00083E697E00E9452A6082F392E0E945CA81B
:1047E000F30191838083802F932D0E945CA8BC01EC
:1047F0002AE1A40183EB96E00E94F098F5018681FE
:10480000882331F0878190858816990609F495CF21
:10481000F501908687821286118616828ECFA6E0D9
:10482000B0E0E5E1F4E20C946DF124E1629F800DCB
:10483000911D1124DC01AC56BE4FBE83AD83CA016D
:10484000550FAA0BBB0BBC01CD012CE231E040E0BF
:1048500050E00E940DF1BA01A9018D819E810E9454
:10486000DCDC8D819E810E94F1DC2696E2E00C94D6
:1048700089F1FC01E15DFD4F60810E940F240895E4
:10488000FF920F931F93CF93DF93EC018B01F42ED4
:10489000CB010E94A7DDFF2059F081E0F816D1F08E
:1048A000C8010E94F1DCCDB7DEB7E5E00C9486F1DB
:1048B0006BE672E1C8010E944AD6C053DE4F8F8179
:1048C000813071F360E0CE010E94BBDA81E08F831A
:1048D0001882E6CF68E675E1C8010E944AD6C05347
:1048E000DE4F8F818823E1F260E0CE010E94BBDAC7
:1048F0001F82EECFACE0B0E0E0E8F4E20C945DF1B2
:104900001C0183E00E944FB48D839E83AD81BE81E4
:1049100014968C91BCE08B9FA0011124F101228997
:104920003389BA01620F731F78876F8326893789AD
:1049300021503109D901A41BB50BBA87A987608919
:104940007189FB0127E0829FE00DF11D1124FC8796
:10495000EB874F0139E1839F800C911C1124D10119
:1049600054964D915C9111E2A12E15E1B12ECC240B
:10497000C394E12CF12C00EE1DEF23E08DE493E1D4
:104980000E94101BF101848995894E9620893189F6
:1049900037AB26AB91AF80AFC101C6960E94F1DC68
:1049A000F101E65BFF4FD10154968D919C91559793
:1049B0004E962B853C853183208393838283A1018E
:1049C00048585F4F50962D913C91DA0111963C93D7
:1049D0002E9313969C938E931297C101825A9F4FE8
:1049E0002681222329F0278130858217930739F009
:1049F0009087878312861186CF010E94F1DCF10136
:104A000044895589445C5F4F60897189ECE6AE2E1C
:104A1000E3E1BE2ECC24C394E12CF12C0FEF1FEF69
:104A200023E08DE493E10E94101BD10154962D9157
:104A30003C915597245C3F4FC10189559F4F4B8551
:104A40005C85FC0151834083338322839E96ED91E4
:104A5000FC914689B10165547F4F0E94721E81010D
:104A60000B521F4FD10154968D919C915597CC9626
:104A7000F80191828082938382839E96ED91FC91CE
:104A8000848195819C01990F440B550B29833A83AE
:104A90004B835C83F4E64F2E512C612C712CCA01A0
:104AA000B901A30192010E940DF1BA01A901C80147
:104AB0000E94DCDCC8010E94F1DCD10154964D91CA
:104AC0005C915597455B5F4F50966D917C91ACEC36
:104AD000AA2EA2E1BA2E0FEF1FEF23E08DE493E19F
:104AE0000E94101BF10124893589255B3F4FC101CC
:104AF00087519F4FEB85FC85DC011196FC93EE936B
:104B000013963C932E931297D1019E96ED91FC91B2
:104B10004789B10163507F4F0E94721E8101095E77
:104B20001E4FF10184899589855B9F4FD8011196AD
:104B30009C928E9213969C938E93129706A4F7A53F
:104B4000E02D808591859C01990F440B550B29839D
:104B50003A834B835C83CA01B901A30192010E948D
:104B60000DF1BA01A901C8010E94DCDCC8010E9454
:104B7000F1DCD10154964D915C915597465A5F4FA7
:104B800050966D917C91B2EDAB2EB4E1BB2E0FEF40
:104B90001FEF23E08DE493E10E94101BF1012489B3
:104BA0003589265A3F4FC101855D9E4FEB85FC85B7
:104BB000DC011196FC93EE9313963C932E9312977F
:104BC000D1019E96ED91FC91408DB101615C7E4FCB
:104BD0000E94721EF101E75AFE4FFC87EB87D1015C
:104BE00054968D919C915597865A9F4F91828082C1
:104BF000938382839E96ED91FC91848595859C019B
:104C0000990F440B550B29833A834B835C83CA016C
:104C1000B901A30192010E940DF1BA01A9018B858E
:104C20009C850E94DCDC8B859C850E94F1DCAD813B
:104C3000BE8114968C91B0E18B9FA0011124F101EB
:104C4000A088B188A40EB51E4501FBE08F9F800CA3
:104C5000911C1124D10154962D913C9155972858BF
:104C60003F4F58968D919C91599756964D915C91D6
:104C700048195909821B930B4817590708F4CA01B0
:104C8000F101E053FE4FFA83E983948283823683F5
:104C900025839187808782E00E944FB4FC01848144
:104CA0002581281708F4282FA981BA8118968D919B
:104CB0009C911997821B910919969C938E93189732
:104CC0001C92F101EC56FE4FFC87EB8758E7C52E8E
:104CD000D12C612C712C00EE13E06DE4E62E63E123
:104CE000F62E862DD10154964D905C904C0C5D1C97
:104CF000813009F42CC1823009F42DC1EDE5F2E1D7
:104D0000CF019F938F9351E05F931F921F926DEF9E
:104D10006F930F931F935F924F92D10151968C9195
:104D200051978F9350968C918F93FF92EF920E94A0
:104D3000611BEB85FC85B182A08253824282D10146
:104D40009E968D919C919301220F331F820F931F8A
:104D5000FC01878590899C01990F440B550B298391
:104D60003A834B835C83CA01B9012CE231E040E015
:104D700050E00E940DF1BA01A9018B859C850E942B
:104D8000DCDC8B859C850E94F1DC3FEF631A730AA3
:104D90004FE0C40ED11C6B857C856C5E7F4F7C8799
:104DA0006B870FB6F894DEBF0FBECDBF93E06916D8
:104DB000710409F096CFD10154964D915C915597AD
:104DC0004C545F4F50966D917C919AE0A92E94E1DE
:104DD000B92ECC24C394E12CF12C0FEF1FEF23E06C
:104DE0008DE493E10E94101BF101E359FE4FFA8319
:104DF000E983D10154964D915C914C545F4F2F81C2
:104E00003885318320835383428369857A8575830E
:104E100064838CE090E0978386831286E684F7842F
:104E20000CE010E02CE030E06F8178858DE493E1B8
:104E30000E94481AA981BA8116962D913C91179724
:104E4000225031091E96ED90FC901F9712964D91BD
:104E50005C9113974F5F5F4F6D917C916F5F7F4FB8
:104E6000C12C89018DE493E10E94361AD1019E96EE
:104E7000ED91FC918685E981FA819285992319F05B
:104E80009385891759F0A981BA811B968C931B973A
:104E90001A961C921A97CD010E94E4B9F101448937
:104EA00055894D535F4F6089718982E9A82E84E14D
:104EB000B82ECC24C394E12CF12C0FEF1FEF23E08C
:104EC0008DE493E10E94101BD10154968D919C9129
:104ED00055978D539F4FB10160587E4F2F81388574
:104EE000FB0131832083938382839E96ED91FC9115
:104EF0004589C1010E944024D1011C962D913C910D
:104F00001D97ED81FE818481820F932F911D881A58
:104F1000990A54968D919C91559758964D915C9114
:104F2000840F951F0E97F101E151FE4F348B238BB7
:104F3000968B858B908E878A8CE090E0928F818F04
:104F4000CF010E9413D72C96E2E10C9479F127E56A
:104F500032E1C901D6CE42E552E1CA01D2CE0E9469
:104F600040240895A5E0B0E0E8EBF7E20C945FF18F
:104F70003C01623089F4DC0116969C9116979E30B4
:104F800058F4E92FF0E08827E15CF8408F4F0C944B
:104F90002CF1C3010E94052381E02596E0E10C94E9
:104FA0007BF1F30166A577A5AB014E5F5F4F6A5EAB
:104FB0007F4F7301F5EDEF0EF11C830109551F4F73
:104FC000930125543F4FC3010E944023582E552082
:104FD00019F375C09E966D917C91AB014A5F5F4F4E
:104FE000695E7F4F7301B9EEEB1ABEEFFB0A8301D6
:104FF00007511F4F930123503F4FE5CFF30166A5A3
:1050000077A5AB01465F5F4F685E7F4F7301F7EA9C
:10501000EF1AFEEFFF0A8301055D1E4F9301215C2D
:105020003E4FD1CF9850F301E15DFD4F9083292F82
:1050300030E0730184E1989FE00CF11C1124D7014A
:10504000AC56BE4F7D01220F331FC9010F96D3010D
:105050009E96ED91FC9129E3822E24E2922E3CEA69
:10506000A32E3DE1B32E63018301065E1F4F2CE2A8
:1050700031E040E355E760ED7AE88E0F9F1F0E9414
:1050800098E0A4CF9E96ED91FC9186850E94C6B5CE
:1050900091E0811101C090E0D3019E96ED91FC91C9
:1050A0009687F301E359FE4F8285882319F08385A3
:1050B000981729F093871286CF010E94E4B9D30193
:1050C0009E964D915C919F974E5F5F4F9D966C9120
:1050D00083EB96E00E94679C5FCF7301B0E8EB1A08
:1050E000BEEFFB0A6301EAE1CE0ED11CD3019E960E
:1050F000AD90BC909F971A82198281E08D8380E0E9
:1051000098EF9A969C938E939997C6010E940BD71D
:1051100061E0C7010E94D5DCC7010E94F1DC512C7F
:105120008CEA882E8DE1982EF50145888114910432
:1051300019F0C3010E94AC1D00E010E020E030E057
:10514000AE014D5F5F4FBE016C5F7F4F8DEC96E00F
:105150000E9400951B814C814423D9F0042E000C41
:10516000550B440D511D47FC5A95423051051CF01A
:1051700042505109FACF57FF03C04E5F5F4FF5CF42
:10518000D50155964C93B701C3010E944024552484
:105190005394AE014B5F5F4FBE016F5F7F4FC701FE
:1051A0000E9463E0112309F4BFCF80EE9DEFF3016D
:1051B00092A781A7C6010E940BD760E0C7010E9499
:1051C000D5DCC7010E94F1DC02CF80E0E6CEA0E092
:1051D000B0E0EDEEF8E20C9467F1EC010E94C11F23
:1051E000EEA5FFA52481358140E157E2668983E67B
:1051F00097E00E94E8A77C01EEA5FFA520853185F8
:1052000040E050E0678983E697E00E94E8A76C01E0
:10521000EEA5FFA52485358540E157E2608D83E644
:1052200097E00E94E8A78C01EEA5FFA5AC0160E322
:1052300075E7878590890E94BFA799AB88ABEEA5DB
:10524000FFA5B601818992890E949CA79BAB8AAB7E
:10525000EEA5FFA5A80160E375E7838994890E9404
:10526000BFA79DAB8CABAE01405D5F4F23E0B701A4
:10527000CE0180539E4F0E94E0DB6DA583E697E050
:105280000E9470A69C0140E355E760ED7AE8CE01EC
:1052900081519E4F0E94D1D7CDB7DEB7E8E00C9484
:1052A00083F1A2E3B2E0E7E5F9E20C946BF18C0143
:1052B000FC01ED5AFF4F8081680FCE0101960E94DC
:1052C000A021CE0101960E94F990D801ED91FC91A8
:1052D0000484F585E02DC801199583EE93E09A8347
:1052E0008983CE0101960E940B1DCE5CDD4FE4E068
:1052F0000C9487F1AF92BF92CF92DF92EF92FF9220
:105300001F93CF93DF93EC010E94C11F10E06E0149
:1053100084E5C80ED11C5E01E3E5AE0EB11CF601BA
:105320008081181750F0DF91CF911F91FF90EF907F
:10533000DF90CF90BF90AF900895F0E41F9F700171
:10534000112483EFE81A8CEFF80AEC0EFD1EF5012C
:105350006081610F83E697E00E9470A69C0140E3A4
:1053600055E760ED7AE8C7010E94D1D71F5FD7CF1C
:10537000A0E0B0E0EEEBF9E20C9461F18C0160E7A3
:1053800075E10E94372085EF93E0F80191838083D7
:1053900083EB96E00E94F59A682FF801EB5AFF4FD5
:1053A000808383EB96E00E94829BF801EA5AFF4FCC
:1053B00080834801F7E58F0E911CF4011182108261
:1053C0001382128281E0848383E0858316821086B3
:1053D00017821286118613861486158616861786FE
:1053E0008FEF9FEF918B808B138A128AF296C80100
:1053F0008F559E4F51E043E02FEF3FEF1182108217
:105400001382128254834583168210861782128675
:10541000118613861486158616861786318B208B87
:10542000138A128A7496E817F90741F7E801C35FF7
:10543000DC4FC8018357994F6C0165E0662EEE245E
:10544000EA94FE2CE0EEAE2EEDEFBE2EF3E07F2EC2
:10545000198218821B821A82188669861A861C860F
:105460001B861E861D86F88AEF861A8A198A8DE4A5
:1054700093E10E94EF1801979D838C838DE493E163
:105480000E94F91801979F838E831C8A1B8A1E8AAB
:105490001D8A188E1F8A1A8E198E1B8EFD8EEC8E19
:1054A0001F8E1E8EB9A2A8A27AA21BA21DA21CA2A8
:1054B0001FA21EA219A618A61BA61AA61DA61CA6E8
:1054C0001FA61EA619AA18AA1BAA1AAA1DAA1CAAB8
:1054D0001FAA1EAA19AE18AE1BAE1AAE1DAE1CAE88
:1054E0001FAE1EAECE010E9413D788A199A1988B42
:1054F0008F878E8D9F8D9A8B898BC05CDF4FCC15EB
:10550000DD0509F0A5CFE801CC5ADF4F89E088839B
:10551000F12C3AE1D32E44E1E42E57E1C52E8881E7
:10552000F816B0F005591F4FF4018681882329F041
:10553000878190850817190731F0F40110870783D8
:10554000128611861682CDB7DEB7EEE00C947DF19F
:105550008F2D90E0A801DF9C400D511D11244F5567
:105560005E4F9801EF9C200D311D1124F901E15788
:10557000FF4F6081662331F03196208131814217DF
:10558000530789F0E89E9001E99E300D1124200F09
:10559000311FF901E057FF4F51834083329611824A
:1055A00010823397108226E0880F991F2A95E1F721
:1055B000F801E80FF91FE85DFC4FC082835F9C4F44
:1055C000800F911F0E9413D7F394A9CFA0E0B0E001
:1055D000ECEEFAE20C9462F15C01D12C4C0184E512
:1055E000880E911CF4018081D816B0F0C0E0D4E19F
:1055F0008AE1782E7501F3E5EF0EF11CF40180814C
:10560000C81708F443C069E0C5010E94B720CDB7B0
:10561000DEB7EDE00C947EF1E0E4DE9EE0011124C3
:1056200085010C0F1D1FF801E85DFC4F808184FF90
:1056300010C0095E1C4FF8018081882351F060E0A2
:10564000CE01835F9C4F8A0D9B1D0E9497D5F80168
:105650001082CA0DDB1DFE01E55DFC4FE080F1808C
:1056600035970081118132972081318132974081B5
:105670005181329760817181C12C8DE493E10E9448
:10568000361AC05DDC4F1882D394ACCFCC2ED12C0F
:105690008501DC9F000D111D112407571F4FC80104
:1056A0000E94A7DD7C9CA0017D9C500D11244F55CC
:1056B0005E4F4A0D5B1DF70160816C0F2AE183EBA1
:1056C00096E00E94109CC8010E94F1DCCF5F96CF4B
:1056D000FC01968180E0992331F081E0890F8330CD
:1056E00010F082E0890F468557859FE0899F400D25
:1056F000511D112464857585CF014A960E94E2D61A
:105700000895FC01EC5AFF4F2081621710F40E94AB
:1057100051290895CF93DF93D82FC92F42E069E034
:105720000E940021882321F08D2F9C2F0E94E62AC1
:105730008D2F9C2F0E94682BDF91CF910895FF92AF
:105740000F931F93CF93DF93EC018B01F42ECB01CA
:105750000E94A7DDBE0165597F4F4EE18F2D0E944B
:1057600081A06F2D83E697E00E9459A5C8010E9491
:10577000F1DCCDB7DEB7E5E00C9486F1A0E0B0E057
:10578000E4ECFBE20C945FF12C010E94682B83E0B7
:105790000E944FB4D2015296CD91DC915397FC01F7
:1057A00084813E01FCE08F9F600C711C1124509697
:1057B0006D917C9151974B0129E1829F800C911C46
:1057C000112456968D919C915797C80FD91F2197F8
:1057D000C819D90954964D915C9181E2A82E85E1B2
:1057E000B82ECC24C394E12CF12C00EE1DEF23E065
:1057F0008DE493E10E94101BD20154964D915C916F
:105800005597425E5F4F50966D917C9193EEA92E15
:1058100093E1B92E0FEF1FEF23E08DE493E10E9497
:10582000101BF201848995894E96B201695A7F4F07
:10583000DB0111967C926E9213969C938E93129735
:10584000EA5AFF4F4081C2010E949F2B64E0C201CF
:105850000E946F2010E03201B4E56B0E711C2FE046
:10586000D22E04E13CE0E32EF12C94E0910FF30101
:105870008081181740F0C2010E94E62ACDB7DEB73A
:10588000E0E10C947BF1F20144895589D99E400DE9
:10589000511D1124C201019F800D911D1124FC0195
:1058A000E757FF4FD20150962D913C9131832083D1
:1058B000329651834083B0E41B9FC00111249201B2
:1058C000280F391FF901E05EFC4F918280823296E9
:1058D000518340833296D183C0833296F182E08235
:1058E000835F9C4F840D951D0E9413D71F5FBDCF12
:1058F0000E949F2B0895A4E0B0E0E1E8FCE20C9444
:105900005DF17C01613009F4CEC0623009F0BBC0AA
:10591000DC0116961C9180E0112309F4B5C011300A
:1059200009F0B6C06701B7E5CB0ED11C5701EAE11B
:10593000AE0EB11C80E098EFD7019A969C938E939F
:10594000999794961C9361E0C5010E9497D5F60142
:105950008785811102C017871682C6010E94F1DC7B
:1059600055245394812C912C1B823701F6E56F0E40
:10597000711C8CEA282E8DE1382ED3014C90211415
:10598000310419F0C7010E94AC1D00E010E020E0D6
:1059900030E0AE014F5F5F4FBE016E5F7F4F8DEC19
:1059A00096E00E940095B981BC834A814423D1F0DE
:1059B000042E000C550B440D511D47FC5A954430E4
:1059C00051051CF044505109FACF57FF03C04C5FFA
:1059D0005F4FF5CFF3014083B601C7010E949F2BB3
:1059E000F1E0FB838BED96E00E943E968C01A0E0F7
:1059F000B0E088199909A109B109B7FF04C088511D
:105A00009C4FAF4FBF4F81329340A105B1058CF041
:105A100081E05826D6011F968C911F97581629F0C1
:105A20001F965C921F9716961C92C6010E94F1DC8D
:105A30004801BC81BB2309F4A0CF80EE9DEFF701A4
:105A400092A781A781E084A361E0C5010E9497D558
:105A5000D6011F968C911F97882329F01F961C92C0
:105A60001F9716961C92C6010E94F1DCBB81BB23D6
:105A700051F0F701EB5AFF4FD3014C91608183EB5A
:105A800096E00E94679B81E02496E2E10C9479F114
:105A90006EEF610FF701ED5AFF4F8081681BC70160
:105AA0000E94812BF0CF0E948A2BEDCFA0E0B0E0C6
:105AB000ECE5FDE20C9463F1EC0183E00E944FB44D
:105AC000FC0184818A889B88FCE08F9F800C911C5C
:105AD00011244C895D8968897989F1E2AF2EF5E15D
