:100000000C94E4150C9424160C9424160C942416C9
:100010000C9424160C9424160C9424160C94241678
:100020000C9424160C9424160C9424160C94241668
:100030000C9424160C9424160C9424160C94241658
:100040000C9424160C9424160C9424160C94241648
:100050000C9424160C9424960C9424160C942416B8
:100060000C9424160C9424160C9424160C94241628
:100070000C9424160C9424160C9424160C94241618
:100080000C9405A70C9431A70C9424160C942416F8
:100090000C9424160C9424160C9424160C942416F8
:1000A0000C9424160C9424160C9424160C942416E8
:1000B0000C9424160C9424160C9424160C942416D8
:1000C0000C9424160C9424160C9424160C94F658B4
:1000D0000C949CD30C944AA80C94D9860C94883325
:1000E0000C94174D0C94E09A0C9424940C947D94E9
:1000F0000C94F4920C948D880C94DB3F0C94388B08
:100100000C94427B0C9445A00C94A39A0C949B38BD
:100110000C94E64D0C94A36B0C9412CC0C94AB7D18
:100120000C94C1820C94F7ED0C94503B0C9403CDCD
:100130000C94FDCC0C94E29D0C9404CC0C948BA8F4
:100140000C9471DE0C94A7D30C940D820C9431CDD9
:100150000C949D9E0C949F8A0C9476BA0C94ED415D
:100160000C9453560C94FE1C0C94ED680C9444D3E0
:100170000C944ECA0C9477A80C94CA540C94311663
:100180000C94E62E0C94737D0C940BC90C9414C83B
:100190000C948F7B0C94A3C40C94FED20C94879A7D
:1001A0000C9404480C94FE3E0C944AA00C94338C9E
:1001B0000C949AEC0C94C9AD0C94AE8B0C94A9825F
:1001C0000C9449D40C944FD30C942F8B0C94D7E7F8
:1001D0000C94FB990C94F1CB0C943CBF0C940E90B6
:1001E0000C94BFC80C9440A00C94AC1A0C94588981
:1001F0000C94BF8F0C94C4B80C946A650C94F8E707
:100200000C9409690C943D880C9422E40C944EC41F
:100210000C94A6E80C9496ED0C946E790C94AF8E29
:100220000C941D410C94178C0C94A1350C944DB674
:100230000C941CC40C9409CD0C94914B0C943B373A
:100240000C94C1B50C944D560C94E34E0C94E5758A
:100250000C946E2C0C94D4890C94D38C0C94A854CC
:100260000C94F6880C94B7E10C94C6D30C94BB7430
:100270000C9471570C9442870C94A5270C940ECDC6
:100280000C942E880C9490BE0C9428590C944CAD70
:100290000C94F4300C945CB60C94CD400C947FEB31
:1002A0000C94CB6F0C948CA90C9455360C94ABEF3A
:1002B0000C947F4E0C944EE10C94327B0C94CAE962
:1002C0000C947BC80C94694E0C94B1290C94B85BC7
:1002D0000C94AC860C948B9C0C94BF270C94431606
:1002E0000C94881B0C945EEB0C9423CC0C942E592C
:1002F0000C94A89F0C9411900C94E7680C94A25451
:100300000C94C68A0C9439C90C94AFE80C942377EA
:100310000C946F4E0C9467370C94CCD30C9492B819
:100320000C9451B60C94CFD30C945F9D0C947B42EB
:100330000C946DE60C94DCD60C941BEA0C94A6B5D8
:100340000C944EA80C94628F0C9425880C94E2B502
:100350000C94A26F0C9436E10C940E410C9429CBB2
:100360000C9410440C94E0E70C9473240C9455B650
:100370000C940E5E0C94E16F0C9457320C9421C4D3
:100380000C94EF330C94BDAE0C94BD4D0C94E6C6AA
:100390000C94C4270C94DA600C943E7B0C940C945F
:1003A0000C9409B60C9447A10C94CC430C9449C806
:1003B0000C9460880C94E8860C9444930C94BBCC09
:1003C0000C94D3BB0C9426160C94A1D20C94FEB8BA
:1003D0000C9461D60C9406CA0C94BC890C9485D1FB
:1003E0000C9474C00C949D4E0C94F7E10C9467EB44
:1003F0000C946ACC0C947CBA0C94314E0C944D4EF7
:100400000C9492300C9430EC0C94A6CB0C94F1D359
:100410000C94F49F0C9498170C94808D0C94F127F5
:100420000C94786E0C946ECB0C94514F0C947FA668
:100430000C94BEA80C948ECB0C94E1EA0C94BDB83D
:100440000C949EC40C947F950C94A58B0C94BBE9E2
:100450000C9485E60C94772F0C94CEC90C940378F9
:100460000C94DA830C9468730C940D900C948CECBF
:100470000C9422A90C940C990C94B9B50C94EB8CA7
:100480000C94A0B50C9460D50C946B8B0C94359D9A
:100490000C9460280C94923E0C9454770C9413B7EF
:1004A0000C94B9C80C949FB50C94FE460C94F63F7E
:1004B0000C9423930C94DD270C940A870C94D9B5E3
:1004C0000C941FCD0C94E0280C94CFB80C94BF175B
:1004D0000C948A1C0C94BCB30C94DC8C0C945816B1
:1004E0000C94FD7F0C940E4E0C945D9C0C9449D39F
:1004F0000C94FE220C943AA80C9456A80C94D2D3D7
:100500000C94FDC20C9441D40C9473A80C942D7DD2
:100510000C942AA90C9440D30C941C1D0C943E46B8
:100520000C9475CE0C9441730C943CE30C942841CC
:100530000C940BB00C94A24A0C94B6A80C9459A03D
:100540000C9433650C94F7CB0C9459390C9431C04E
:100550000C94A6370C94C08D0C94BAA80C94D5D1E9
:100560000C94CF4F0C94FB9A0C94AD780C9476EBD2
:100570000C94B5670C94C5890C946A9B0C94A719CC
:100580000C94367B0C943BA00C94C84E0C94299C84
:100590000C940B440C9474CB0C94BE8E0C9432D4FB
:1005A0000C94A7820C949F540C9464650C94B2E94B
:1005B0000C9405890C949F1D0C94742C0C942F8C16
:1005C0000C94D2710C944CD60C94DB890C9445C5D8
:1005D0000C94BFB80C94DA7A0C9495CB0C945EA46E
:1005E0000C943AD00C94E9BE0C94FAB50C943FE10B
:1005F0000C943AA50C94EE300C945C800C94492D2C
:100600000C9405280C94B98F0C94654B0C94A4EBB6
:100610000C947BCD0C9409BE0C94F2B60C94AB27D1
:100620000C9420940C94BFC30C943A7B0C946A8A6B
:100630000C949E670C94475E0C9448330C94C99CB0
:100640000C94FC400C94FA8E0C9489970C9473B81B
:100650000C94BC410C94ED880C94B41F0C94CAA863
:100660000C9472810C9484DA0C9487A80C94F97819
:100670000C94DAB60C94ADA80C94C2A80C949765AF
:100680000C9443B80C9445870C9416440C94E06881
:100690000C94FD4F0C943D8D0C94263C0C94E391EE
:1006A0000C94C39A0C9405C40C94E3B60C94A767FD
:1006B0000C94AE1B0C940BCC0C94DB920C94B12BD1
:1006C0000C946EC30C94A98A0C94039C0C941EA0E9
:1006D0000C9432A90C9491EC0C9427EC0C9493702C
:1006E0000C9412B60C948B3D0C949AD30C94BC656C
:1006F0000C94161D0C94C3D30C942EA90C9416675D
:100700000C940F900C94EC4D0C940B4E0C94119493
:100710000C9440430C94301B0C9483A80C947730B9
:100720000C946FE10C9413CD0C9446A80C94772193
:100730000C94D8280C946D240C948C700C94ACD12F
:100740000C94415E0C94BF3E0C94F9EA0C9439B6BB
:100750000C9438D30C94D8990C940B720C94289464
:100760000C94BDD30C948C330C9428180C94A53F96
:100770000C94D8710C94CEA80C9403EA0C9497E8CE
:100780000C94B03A0C9429990C94FF870C948A33FA
:100790000C9475580C941AA90C948EE80C941EA90C
:1007A0000C94D3780C94FE890C942C940C94D193D3
:1007B0000C94C1B80C9404470C9443D40C94DDD130
:1007C0000C9487E10C94DF2A0C946B5A0C94B26F52
:1007D0000C94BBCE0C9439BD0C947BA80C943BD3E9
:1007E0000C944FA00C947FA80C940F690C94B649FC
:1007F0000C94D1650C9425CE0C9451BE0C94929B14
:100800000C94844F0C94868A0C94ED540C94BA8DFD
:100810000C945F650C94EDCD0C942DBE0C9468790E
:100820000C9413410C94939A0C94FED30C94CDD158
:100830000C942C240C9403800C94A1D30C94B4EF4E
:100840000C9457E10C94FBB60C945FC80C9452675F
:100850000C9429780C949FE10C94A6820C94B2829B
:100860000C9419CD0C94D3E90C94AB9A0C94B4D19C
:100870000C9462B60C9424900C945A770C9496C9FC
:100880000C9496E10C94E1D30C94084E0C9457848C
:100890000C94C07F0C940F890C94CAB50C94DA2880
:1008A0000C940AB70C9475C80C94ABB80C94E85C23
:1008B0000C94B08A0C94F14E0C9415F00C9485674E
:1008C0000C94033A0C9462730C947F5B0C9445E394
:1008D0000C9422B70C94DDC80C9488A70C9402A346
:1008E0000C9411C90C9428B80C946B8F0C9421B6FD
:1008F0000C94D0860C94B9E30C942E7B0C949778CE
:100900000C9481420C9475600C94398C0C94F79C77
:100910000C94C6A80C94AC180C94F48E0C940FF0A4
:100920000C94A1190C946CD30C94AD4D0C947121C2
:100930000C9426A90C94F76F0C9443D60C945EB8D3
:100940000C94BBE60C946D290C94BF710C94AD18FB
:100950000C9419500C9490B80C94888C0C9474627C
:100960000C9490330C9412EA0C94A1B50C94775724
:100970000C94C4CA0C94A9320C9483330C94481E72
:100980000C949C6F0C9405720C94C03F0C94FD3930
:100990000C945C940C941A7B0C9480380C94EBCBE4
:1009A0000C94F3540C94F8C10C942AB60C94A88BB4
:1009B0000C944F9B0C94EE490C94B72B0C942E186E
:1009C0000C94BC270C94297B0C946A4A0C9461E02B
:1009D0000C9430EA0C946F7C0C9459700C94C454B1
:1009E0000C9409890C94243B0C94478B0C941AE9C1
:1009F0000C9470540C948E330C94FA970C94ADB9FB
:100A00000C9462800C942BCD0C94411A0C9424D439
:100A10000C947EE10C94E2E90C94B9980C94A6D164
:100A20000C94FAE90C944A290C94208C0C94951897
:100A30000C94CA510C94091B0C94F8CE0C94071D0D
:100A40000C9442A80C9477850C94A68E0C94C9D370
:100A50000C94457F0C94898D0C94828C0C94992174
:100A60000C942C7B0C949B9A0C94D08A0C948A3F07
:100A70000C946DC40C947C650C94FDCB0C9480CBD1
:100A80000C94B5E60C94DCD40C9435280C9466E1F7
:100A90000C94A8B80C943EA80C94B5990C941AA484
:100AA0000C94E9E70C94F4760C9402EB0C9449B6A0
:100AB0000C94BA920C94A9DB0C9439230C9454A096
:100AC0000C9477CF0C94BB9A0C9468700C9410E83B
:100AD0000C94D4600C94EAEA0C94E5BD0C9497A0B5
:100AE0000C9422880C9409410C94F75C0C945E8958
:100AF0000C949AD70C94E0970C943A900C9452A8CA
:100B00000C94B78A0C94BCB50C94A3B10C949D6B57
:100B10000C9482C40C94E7D20C94E3C80C9428B7CC
:100B20000C9428500C944F2D0C94E2D40C9435194D
:100B30000C9404410C9410A90C94C8840C947ACBA6
:100B40000C946FA80C9407E80C94AEE10C942C70F4
:100B50000C94871B0C94BA1F0C9495C60C94F1B599
:100B60000C949DE60C94AFAA0C94B39A0C94EDD21D
:100B70000C94447B0C94B78D0C94AB4F0C94938ADB
:100B80000C944BD30C943E860C9425CD0C94D93503
:100B90000C94418A0C94EF360C94BCD10C9408242C
:100BA0000C9498990C941DC10C94EBE90C9492331D
:100BB0000C9434D40C947A8F0C9418410C94B41B7C
:100BC0000C946A7D0C9487CB0C94CC820C94C5D188
:100BD0000C9411D4202122232425262728292A2BCE
:100BE0002C2D2E2F303132333435363738393A3BCD
:100BF0003C3D3E3F404142434445464748494A4BBD
:100C00004C4D4E4F505152535455565758595A5BAC
:100C10005C5D5E5F606162636465666768696A6B9C
:100C20006C6D6E6F707172737475767778797A7B8C
:100C30007C7D7E868788898A8B2061626364656695
:100C40006768696A6B6C6D6E6F70717273747576BC
:100C50007778797A303132333435363738392D2B4D
:100C60005F2F26253F3D868788898A8B3031323336
:100C70003435363738392D2B868788898A8B202161
:100C800022232425262728292A2B2C2D2E2F3031CC
:100C900032333435363738393A3B3C3D3E3F4041BC
:100CA00042434445464748494A4B4C4D4E4F5051AC
:100CB00052535455565758595A5B5C5D5E5F60619C
:100CC00062636465666768696A6B6C6D6E6F70718C
:100CD00072737475767778797A7B7C7D7E86878867
:100CE000898A8B206162636465666768696A6B6C78
:100CF0006D6E6F707172737475767778797A303142
:100D000032333435363738392D2B5F2F26253F3D8A
:100D1000868788898A8B3031323334353637383993
:100D20002D2B868788898A8B20212223242526271C
:100D300028292A2B2C2D2E2F3031323334353637BB
:100D400038393A3B3C3D3E3F4041424344454647AB
:100D500048494A4B4C4D4E4F50515253545556579B
:100D600058595A5B5C5D5E5F60616263646566678B
:100D700068696A6B6C6D6E6F70717273747576777B
:100D800078797A7B7C7D7E868788898A8B206162F0
:100D9000636465666768696A6B6C6D6E6F707172AB
:100DA000737475767778797A3031323334353637F3
:100DB00038392D2B5F2F26253F3D868788898A8BE2
:100DC000303132333435363738392D2B86878889A0
:100DD0008A8B202122232425262728292A2B2C2DE3
:100DE0002E2F303132333435363738393A3B3C3DAB
:100DF0003E3F404142434445464748494A4B4C4D9B
:100E00004E4F505152535455565758595A5B5C5D8A
:100E10005E5F606162636465666768696A6B6C6D7A
:100E20006E6F707172737475767778797A7B7C7D6A
:100E30007E868788898A8B206162636465666768BD
:100E4000696A6B6C6D6E6F7071727374757677789A
:100E5000797A303132333435363738392D2B5F2FAC
:100E600026253F3D868788898A8B30313233343559
:100E7000363738392D2B868788898A8B2021222383
:100E80002425262728292A2B2C2D2E2F30313233AA
:100E90003435363738393A3B3C3D3E3F404142439A
:100EA0004445464748494A4B4C4D4E4F505152538A
:100EB0005455565758595A5B5C5D5E5F606162637A
:100EC0006465666768696A6B6C6D6E6F707172736A
:100ED0007475767778797A7B7C7D7E868788898A37
:100EE0008B206162636465666768696A6B6C6D6EAE
:100EF0006F707172737475767778797A30313233B6
:100F00003435363738392D2B5F2F26253F3D8687E0
:100F100088898A8B303132333435363738392D2B46
:100F2000868788898A8B55687220556E74656E0035
:100F3000556872204F62656E005265636874732055
:100F4000556E74656E0052656368746520536569FB
:100F50007465004C696E6B7320556E74656E004C41
:100F6000696E6B65205365697465004350553A207E
:100F700041546D65676120323536310045787465BE
:100F8000726E65722053706569636865723A2025D8
:100F90003575202F2025356C7500496E7465726E8D
:100FA00065722053706569636865723A20253575EE
:100FB000202F20253575005175656C6C656E3A20C3
:100FC000253375202F2025337520202825752900ED
:100FD000547970656E3A202020253375202F202506
:100FE0003275202028257529004D6F64656C6C656D
:100FF0003A20253375202F2025327520202825758D
:1010000029004B65696E2053797374656D73706543
:10101000696368657220766572667565676261727C
:1010200021004B65696E204D6F64656C6C73706553
:10103000696368657220766572667565676261725C
:1010400021004B65696E2050726F78792076657249
:10105000667565676261722100547970202225737C
:1010600022206C6F65736368656E3F005472696D12
:101070006D65722022257322206C6F65736368652D
:101080006E3F005568722022257322206C6F6573B5
:101090006368656E3F005175656C6C652022257331
:1010A00022206C6F65736368656E3F0053706569DD
:1010B000636865722022257322206C6F65736368F4
:1010C000656E3F0050726F78792022257322206C64
:1010D0006F65736368656E3F004D69736368657221
:1010E0002022257322206C6F65736368656E3F0054
:1010F0004B757276652022257322206C6F657363B1
:1011000068656E3F00476562657220222573222064
:101110006C6F65736368656E3F00466F6C676572E0
:101120002022257322206C6F65736368656E3F0013
:101130004D6F64656C2022257322206C6F6573638C
:1011400068656E3F005769726B6C696368206465FF
:101150006E20547970207765636873656C6E3F000C
:1011600044657220547970206B616E6E206E6963E5
:1011700068742067656C6F65736368742077657247
:1011800064656E2100446173204D6F64656C6C2052
:101190006B616E6E206E696368742067656C6F6545
:1011A000736368742077657264656E21004D6F64A7
:1011B000656C6C652025752F2575205175656C6CE7
:1011C000656E2025752F25750054797020256400E3
:1011D0004D6F64656C6C202564005472696D6D659B
:1011E000722025640055687220256400537065697B
:1011F000636865722025640050726F7879202564D9
:10120000004D697363686572202564004B757276C2
:101210006520256400476562657220256400466F7D
:101220006C676572202564004D6F64756C202564C1
:10123000004B616E616C202564004F62656E004D4D
:101240006974746500556E74656E004E65696E0054
:101250004A61004B75727665005761726E756E67F4
:10126000205061757365005761726E756E67204E10
:10127000696564726967004B7269746973636800B9
:101280005761726E756E6700566F6C756D656E0096
:10129000756E62656B616E6E7400547970656E0078
:1012A000547970005472696D6D6572005472696D85
:1012B0006D6572005472696D6D004F62656E004C11
:1012C000696D697420556E74656E00547269676744
:1012D0006572005765636873656C00556872656E6A
:1012E0000055687200556872005469636B6572003E
:1012F000536F6C6C0053797374656D7A6569740013
:1013000053797374656D00536368616C7465720022
:1013100053746F700053636872697474776569748D
:101320006500537065696368657200537065696331
:1013300068657200496E76657274696572656E00E3
:1013400053746174757300416C6C65205175656CE4
:101350006C656E005175656C6C6500536C6F740044
:1013600045696E7374656C6C756E67005365726960
:10137000656C6C652056657262696E64756E672077
:10138000616B7469762E2E2E0053657269656C6CE4
:101390000053657269656C6C652056657262696E92
:1013A00064756E67004472656867656265720042C5
:1013B00065696465004D6F64756C2032004D6F6423
:1013C000756C2031004B65696E73004846204D6F87
:1013D00064756C004846204465616B746976696584
:1013E00072740020484620416B7469766965727496
:1013F0002000556D6B65687200416C6C6520456915
:101400006E7374656C6C756E67656E207A75727537
:1014100065636B7365747A656E3F005265736574BE
:1014200000426572656963680050726F7879005098
:10143000726F786965730050504D0042657369742E
:101440007A6572004F6B004B65696E65205175655A
:101450006C6C65004E616D65004D6F64656C6C650C
:10146000004D6F64656C6C0041627363686E656902
:1014700064656E004B75727665004D6F6475730020
:101480004D697363686572004D69736368657200C6
:101490004D696E696D756D004D6178696D756D0092
:1014A0004B757276656E004B75727665004D61699D
:1014B0006E004E696564726967004C696D697400FD
:1014C000496E76657274696572740047656265720B
:1014D00000476562657220556E74656E00476562EF
:1014E0006572204F62656E004765626572005374D5
:1014F0006172747765727400496E666F00476C6F35
:1015000062616C0046657374005A75727565636B31
:10151000004C6565720042696C6473636869726D42
:10152000004C6F65736368656E00446562756700A3
:10153000466F6C67657200466F6C676572004B7230
:10154000697469736368004B6F6E747261737400C1
:101550005363686E697474004B616E61656C6500FD
:101560004B616E616C7A7577656973756E67004B58
:10157000616E616C0041626272656368656E004B0A
:10158000616C696272696572756E6700546173742B
:1015900065720042696C6473636869726D2041759D
:1015A00073004261747465726965004C69636874A4
:1015B00000416E616C6F670048696E7A756675658B
:1015C00067656E006865726D65734F4E450020203B
:1015D000417573003025002D31303025002020303A
:1015E000250031303025002531752E253175206DCF
:1015F0007320002532752E2531757620002D25307B
:1016000032753A253032752000253032753A253052
:1016100032752000256325630025630025366400AC
:10162000253464002575002564002D2D2D25002509
:1016300034642525002533642525000000000000C2
:1016400000000000000000000000C0C0C0C0C0C01A
:10165000C0C00000C0C0000000D8D8D8D80000002A
:1016600000000000000000006666FFFF6666666618
:10167000FFFF6666000000187EDB98D8781E1B19F5
:10168000DB7E18000000E3A3E6060C181830606744
:10169000C5C700000078CCCCCCD8707BDFCCCEFFA7
:1016A00073000000606060C00000000000000000E7
:1016B000000000183060C0C0C0C0C0C0603018005A
:1016C0000000C060301818181818183060C00000EA
:1016D00000000018DBFF3C3CFFDB180000000000AE
:1016E0000000181818FFFF1818180000000000006C
:1016F000000000000000000000606060C00000000A
:10170000000000FFFF0000000000000000000000DB
:1017100000000000000000C0C00000000303060637
:101720000C1818306060C0C00000007EFFC3C3CB3F
:10173000CBD3D3C3C3FF7E000000070F1F3B73034F
:101740000303030303030000007EFFC30303060C2F
:10175000183060FFFF0000007EFFC303031E1E035E
:1017600003C3FF7E000000C3C3C3C3C3FFFF030363
:10177000030303000000FFFFC0C0C0FE7F0303C3DC
:10178000FF7E0000007EFFC3C0C0FEFFC3C3C3FFD7
:101790007E000000FFFF0303070E1C18181818181E
:1017A0000000007EFFC3C3C37E7EC3C3C3FF7E00B1
:1017B00000007EFFC3C3C3FF7F0303C3FF7E00009F
:1017C00000000000C0C00000C0C000000000000019
:1017D000000000000060600000606060C000000069
:1017E0000E1C3870E0E070381C0E00000000000095
:1017F00000FFFF0000FFFF00000000000000703845
:101800001C0E07070E1C3870000000007EFFC3038B
:10181000060C1818000018180000003E7FE3CFDF08
:10182000DBDBDFCEE17F3E0000007EFFC3C3C3FFF2
:10183000FFC3C3C3C3C3000000FEFFC3C3C3FEFF97
:10184000C3C3C3FFFE0000007EFFC3C0C0C0C0C052
:10185000C0C3FF7E000000FEFFC3C3C3C3C3C3C336
:10186000C3FFFE000000FFFFC0C0C0FCFCC0C0C042
:10187000FFFF000000FFFFC0C0C0FCFCC0C0C0C034
:10188000C00000007EFFC3C0C0CFCFC3C3C3FF7E74
:10189000000000C3C3C3C3C3FFFFC3C3C3C3C300AC
:1018A0000000C0C0C0C0C0C0C0C0C0C0C0C0000038
:1018B00000FEFE06060606060606C6FE7C000000C2
:1018C000C3C7CEDCF8F0F8FCCEC7C3C3000000C02D
:1018D000C0C0C0C0C0C0C0C0C0FFFF000000C3E7A0
:1018E000FFFFDBC3C3C3C3C3C3C3000000C3C3E361
:1018F000F3FBDFCFC7C3C3C3C30000007EFFC3C376
:10190000C3C3C3C3C3C3FF7E000000FEFFC3C3C382
:10191000FFFEC0C0C0C0C00000007EFFC3C3C3C381
:10192000C3C3C3C3FF7E070300FEFFC3C3C3FEFEE2
:10193000C3C3C3C3C30000007EFFC3C0C0FE7F0398
:1019400003C3FF7E000000FFFF18181818181818AE
:10195000181818000000C3C3C3C3C3C3C3C3C3C3A1
:10196000FF7E000000C3C3C3C3C3C3C3C3E77E3C41
:1019700018000000C3C3C3C3C3C3C3DBDBDBFF6604
:10198000000000C3C366663C18183C6666C3C3000B
:101990000000C3C366663C3C1818181818180000ED
:1019A00000FFFF03070E1C3870E0C0FFFF000000BF
:1019B000F8F8C0C0C0C0C0C0C0C0F8F8000000C087
:1019C000C060603018180C06060303000000F8F829
:1019D0001818181818181818F8F8000000183C7E85
:1019E000E700000000000000000000000000000010
:1019F000000000000000FFFF000000C0C0606000A9
:101A00000000000000000000000000000000007E58
:101A1000FEC6C6C6FE7E000000C0C0C0C0C0FCFE40
:101A2000C6C6C6FEFC00000000000000007EFEC02E
:101A3000C0C0FE7E00000006060606067EFEC6C684
:101A4000C6FE7E00000000000000007CFEC6FCC058
:101A5000FE7E0000003C7C606060F8F860606060C2
:101A60006000000000000000007EFEC6C6C6FE7ECC
:101A700006FE7CC0C0C0C0C0FCFEC6C6C6C6C6004E
:101A800000000000C0C000C0C0C0C0C0F0700000B6
:101A90000000001818001818181818181818F870EE
:101AA000C0C0C0C0CCD8F0F0D8CCC6C6000000C0C2
:101AB000C0C0C0C0C0C0C0C0C0F8780000000000F6
:101AC0000000007CFED6D6C6C6C60000000000009E
:101AD00000007CFEC6C6C6C6C600000000000000AE
:101AE000007CFEC6C6C6FE7C0000000000000000B0
:101AF000FCFEC6C6C6FEFCC0C0C000000000007EE2
:101B0000FEC6C6C6FE7E0606060000000000D8F827
:101B1000E0C0C0C0C000000000000000007CFEC0AB
:101B20007C06FE7C000000303030FCFC3030303071
:101B3000303E1E0000000000000000C6C6C6C6C63B
:101B4000FE7C0000000000000000C6C6C6C6EE7C99
:101B5000380000000000000000C6C6C6D6D6FE7CD5
:101B60000000000000000000C6C67C387CC6C6002D
:101B700000000000000000C6C6C6C6C6FE7E06FE07
:101B80007C0000000000FEFE0C3860FEFE0000003D
:101B90001C3C303030E0E03030303C1C000000C0F5
:101BA000C0C0C0C0C0C0C0C0C0C0C0000000E0F025
:101BB0003030301C1C303030F0E000000073FBDFB0
:101BC000CE00000000000000000000000000000047
:101BD000480000780C7CCCCC760000000000004867
:101BE00000007CC6C6C6C67C00000000000048009D
:101BF00000CCCCCCCCCC7600000000440010386C7B
:101C0000C6C6FEC6C6C60000000044007CC6C6C6E6
:101C1000C6C6C6C67C000000004400C6C6C6C6C60E
:101C2000C6C6C67C00000000000078CCCCF8CCCC46
:101C3000CCF8C0C0C000183C7EFF1818181818183F
:101C400018180000000000133373FFFF73331300F4
:101C5000000000000000C2C6CEFFFFCEC6C20000DA
:101C60000000000000C8CCCEFFFFCECCC8000000B2
:101C700000000000103070FFFF7030100000000006
:101C8000000000080C0EFFFF0E0C08000000000012
:101C90000000000000000000000C0C0C0C000C0CFC
:101CA00000001B1B120000000000000A0A1F0A1F90
:101CB0000A0A0000040F140E051E04000019190280
:101CC0000408131300000814140815120D0000185E
:101CD000181000000000000008101010101008007C
:101CE00000100808080808100000000A041F040A71
:101CF0000000000004041F040400000000000000B5
:101D000000181810000000001F0000000000000074
:101D10000000001818000001010204081010000063
:101D20000E11111111110E0000040C140404041FF3
:101D300000000E11010608101F00000E11010E0117
:101D4000110E00001111111F01010100001F1010E0
:101D50001E01110E00000608101E11110E00001FBA
:101D600001020408080800000E11110E11110E00E6
:101D7000000E11110F01020C0000001818001818B5
:101D800000000000001818001818100002040810C5
:101D9000080402000000001F001F000000001008DF
:101DA000040204081000000E1101020400040000E7
:101DB0000E11171517100E00000E11111F11111121
:101DC00000001E11111E11111E00000E1110101026
:101DD000110E00001E11111111111E00001F101014
:101DE0001E10101F00001F10101E10101000000EFB
:101DF00011101711110F00001111111F11111100F5
:101E0000001F04040404041F00001F01010101114C
:101E10000E000011121C12111111000010101010F0
:101E200010101F0000111B151111111100001119C4
:101E3000151311111100000E11111111110E0000D6
:101E40001E11111E10101000000E11111111110E93
:101E500003001E11111E11111100000E11100E01B0
:101E6000110E00001F0404040404040000111111E9
:101E70001111110E000011111111110A04000011AD
:101E8000111111151B11000011110A040A11110082
:101E9000001111110A04040400001F0102040810BB
:101EA0001F00001C10101010101C0000101008045F
:101EB00002010100001C04040404041C0000040AC4
:101EC000110000000000000000000000001F0000E2
:101ED00010080000000000000000000D1311110F99
:101EE00000001010161911111E000000000E111034
:101EF000110E000001010D1311110F000000000E62
:101F0000111E100F00000304041F0404040000004D
:101F1000000D1311110F010E1010161911111100DF
:101F2000001000101010100C000004000404040441
:101F3000040418101012141A1111000010101010BF
:101F400010100C000000001A1515111100000000FF
:101F50001E11111111000000000E1111110E0000D0
:101F60000000161911111E101000000D1311110F91
:101F7000010100001B0C080808000000000F100EF3
:101F8000011E000004041F040404030000000011EB
:101F90001111130D0000000011110A0A04000000C5
:101FA000001111151B1100000000110A040A110094
:101FB0000000001111110A06040800001F020408A5
:101FC0001F000006080810080806000004040404A6
:101FD00004040400000C02020102020C00000D16B1
:101FE000000000000000000A000E010F110F0000A9
:101FF0000A000E1111110E00000A00121212160A28
:1020000000000A0E111F11111100000A0E1111110A
:10201000110E00000A11111111110E00000E111104
:10202000161111161010040E1F0404040400000001
:10203000050D1F0D050000000012161F16120000EE
:10204000000014161F16140000000004081F0804E6
:102050000000000004021F02040000000000000055
:102060000000040404000400050000000000020752
:102070000207020003060203060005010204050030
:10208000020502050300040000000000020404042D
:102090000200040202020400020707070200000215
:1020A000070200000000000002040000070000001A
:1020B00000000000040001010204040002050505FF
:1020C00002000206020207000601020407000601E0
:1020D00002010700050507010100070406010700CA
:1020E00003040605070007010202020007050705B1
:1020F00007000705030106000004000400000000BB
:1021000002000204010204020100000700070000AF
:102110000402010204000601020002000601030598
:10212000070002050705050006050605060003046D
:10213000040403000605050506000704060407005D
:10214000070406040400030405050300050507054C
:10215000050007020202070007010101060005054C
:10216000060505000404040407000507050505002D
:10217000050707050500020505050200060506041A
:102180000400020505050300060506050500030415
:10219000070106000702020202000505050502000C
:1021A00005050502020005050507050005050205F0
:1021B00005000505020202000701020407000604EB
:1021C00004040600040402010100060202020600E3
:1021D00002050000000000000000070004020000EB
:1021E00000000000030503000404060506000000CB
:1021F00003040300010103050300000007060700B4
:10220000010207020200000003050303040406059F
:102210000500040004040400020002020204040495
:102220000506050004040404020000000707050079
:102230000000060505000000070507000000060570
:102240000604000003050301000005060400000069
:102250000302060002070202010000000505030058
:102260000000050502000000050707000000050248
:102270000500000005050302000007020700020236
:102280000402020002020202020002020102020033
:102290000603000000000005030503000005070514
:1022A00007000005050503000502050705000502F6
:1022B00005050200050505050200020506050604E0
:1022C00002070202020000030703000000050705E1
:1022D00000000006070600000004070400000001DB
:1022E00007010000000000000000000004040404D6
:1022F000000400000909000000000000060F0606A7
:102300000F06000002070E070E0400000D0D020468
:102310000B0B0000040A040B0A050000080800006B
:102320000000000004080808080400000804040471
:102330000408000009060F060900000000040E044E
:1023400000000000000000000404080000000E006F
:102350000000000000000000080800000102020464
:1023600004080000060909090906000002060A021D
:10237000020200000E010204080F00000E0102011B
:10238000010E00000809090F010100000F080E01ED
:10239000010E000006080E09090600000F010204E4
:1023A00004040000060906090906000006090701E1
:1023B00001060000000808000808000000000404EE
:1023C00000040408020408080402000000000F00D2
:1023D0000F000000080402020408000006090204BD
:1023E0000004000006090B0D0A06000006090F098B
:1023F000090900000E090A09090E0000070808086B
:10240000080700000E090909090E00000F080E0850
:10241000080F00000F080E080808000007080B0945
:102420000907000009090F09090900000E04040446
:10243000040E000007010101110E0000090A0C0A38
:102440000909000008080808080F0000090F090919
:1024500009090000090D0B0909090000060909090D
:10246000090600000E090E080808000006090909FF
:10247000090603000E090E090909000007080601F4
:10248000010E00000E0404040404000009090909F7
:1024900009060000090909090606000009090909D9
:1024A0000F090000090906060909000009090A04C4
:1024B000040400000F010204080F00000E080808C1
:1024C000080E000008040402020100000E020202CD
:1024D000020E0000040A00000000000000000000DE
:1024E000000F0000080400000000000000000709C1
:1024F0000907000008080E09090E0000000007087F
:102500000807000001010709090700000000070F84
:102510000807000003040E0404040000000007097B
:102520000907010608080E09090900000800080843
:1025300008040000040004040404040808080A0C49
:102540000A09000008080808080600000000090F32
:102550000909000000000E09090900000000060931
:102560000906000000000609090E08080000070916
:102570000907010100000A0C080800000000070E0E
:10258000010E000000040E0404030000000009090D
:1025900009070000000009090606000000000909FB
:1025A0000F090000000009060609000000000909E3
:1025B0000906020400000F02040F000003020602D5
:1025C00002030000040404040404000006020302E1
:1025D000020600000D0B0000000000000A000E01C2
:1025E0000F110F000A000E1111110E000A00121235
:1025F00012160A000A0E111F111111000A0E1111F4
:1026000011110E000A11111111110E000C12121CE1
:1026100012121C10040E1F040404040000050D1FF8
:102620000D0500000012161F161200000014161FE0
:10263000161400000004081F080400000004021F14
:102640000204000000000000000000000000000084
:10265000003030303030300000303000000036368E
:10266000363600000000000000000012123F121277
:1026700012123F12120000000C1E2D2C1C0E0D2DEC
:102680001E0C0000003B2B3E060C0C181F353700BB
:1026900000001C3E36361C3F37363F1B000000183A
:1026A000183000000000000000000000060C183088
:1026B000303030180C0600000030180C06060606F4
:1026C0000C1830000000000C2D3F1E3F2D0C0000A8
:1026D00000000000000C0C3F3F0C0C00000000004C
:1026E000000000000000000000181830000000008A
:1026F000003F3F000000000000000000000000005C
:1027000000003030000000030306060C0C181830DF
:10271000300000001E3F3333373B33333F1E000091
:1027200000070F1F3B0303030303030000001E3FCA
:10273000330303060C183F3F0000001E3F33030E17
:102740000E03333F1E000000333333333F3F030398
:1027500003030000003F3F30303E1F03333F1E00A5
:1027600000001E3F33303E3F33333F1E0000003F2A
:102770003F030306060C0C0C0C0000001E3F333315
:102780001E1E33333F1E0000001E3F33333F1F0326
:10279000333F1E00000000000030300000303000E9
:1027A0000000000000000018180000181830000099
:1027B00000070E1C38381C0E07000000000000FF48
:1027C000FF0000FFFF000000000000381C0E07079C
:1027D0000E1C38000000001E3F3303060C0C000CDA
:1027E0000C0000001E3F3337373737303F1E0000E4
:1027F000001E3F33333F3F333333330000003E3F4F
:1028000033333E3F33333F3E0000001E3F33303012
:102810003030333F1E0000003E3F33333333333319
:102820003F3E0000003F3F30303C3C30303F3F00F7
:1028300000003F3F30303C3C303030300000001E64
:102840003F3330373733333F1E00000033333333E9
:102850003F3F3333333300000030303030303030DE
:102860003030300000003E3E0606060606363E1CAE
:102870000000003333373E3C3E3733333300000033
:1028800030303030303030303F3F000000333F3F99
:102890003F33333333333300000033333B3F3F3771
:1028A000333333330000001E3F3333333333333F8E
:1028B0001E0000003E3F33333F3E303030300000DA
:1028C000001E3F3333333333333F1E0700003E3F98
:1028D00033333E3F333333330000001E3F33303E4B
:1028E0001F03333F1E0000003F3F0C0C0C0C0C0C70
:1028F0000C0C00000033333333333333333F1E00CB
:102900000000333333333333333F1E0C00000033C6
:102910003333333333333F3F120000003333331E3E
:102920000C0C1E3333330000003333331E1E0C0CEB
:102930000C0C0C0000003F3F03070E1C38303F3FDB
:102940000000003E3E3030303030303E3E0000006F
:10295000303018180C0C060603030000003E3E063B
:1029600006060606063E3E0000000C1E3300000070
:102970000000000000000100000000000000003F17
:102980003F00000030301818000000000000000078
:1029900000000000001F3F33333F1F0000003030B5
:1029A00030303E3F33333F3E000000000000001F48
:1029B0003F30303F1F000000030303031F3F33334A
:1029C0003F1F000000000000001E333E303F1F008C
:1029D00000000F1F18183E3E1818181800000000BD
:1029E0000000001F3F33333F1F033F1E30303030A5
:1029F0003E3F33333333000000003030003030309E
:102A0000303C1C000000000606000606060606060E
:102A1000063E1C303030333E3C363333330000004A
:102A200030303030303030303C1C000000000000CE
:102A3000001A3F37333333000000000000001E3F10
:102A400033333333000000000000001E3F33333FB8
:102A50001E000000000000003E3F33333F3E303098
:102A600030000000001F3F33333F1F03030300000B
:102A70000000363E38303030000000000000001EFC
:102A80003F30033F1E0000000C0C3F3F0C0C0C0CB1
:102A90000F0700000000000000333333333F1E00F7
:102AA0000000000000003333333F1E0C0000000024
:102AB000000000333333373F1E00000000000000E9
:102AC00033330C1E33330000000000000033333377
:102AD000333F1F033F1E000000003F3F06183F3FEB
:102AE000000000070F0C0C38380C0C0F070000001A
:102AF00018181818181818181818000000383C0C66
:102B00000C07070C0C3C3800000019392726000080
:102B10000000000000000000003333001F3F33338B
:102B20003F1F000000003333001E3F33333F1E00C1
:102B3000000000333300333333333F1E00000022E4
:102B400000081C36637F63636300000022003E635D
:102B500063636363633E0000002200636363636337
:102B600063633E000000001E33333E3333333E3098
:102B70003030000C1E3F0C0C0C0C0C0C0C00000038
:102B8000000009193F3F1909000000000000002261
:102B9000263F3F26220000000000000024263F3F81
:102BA00026240000000000000008183F3F1808001D
:102BB00000000000000004063F3F06040000000083
:102BC000000090BE0FF09CD311241FBECFEFD1E2C6
:102BD000DEBFCDBF00E00CBF84B78093361314BEB8
:102BE0000FB6F894A895809160008861809360008A
:102BF000109260000FBE16E0A0E0B2E0E0E1FFEE50
:102C000001E00BBF02C007900D92AE3AB107D9F7B1
:102C100023E1AEEAB6E001C01D92A633B207E1F7A8
:102C200015E1C3EED5E100E006C021970109802F30
:102C3000FE010E94EFF0C13ED10780E00807A9F72E
:102C40000E9489BE0C948FF60C9400008659944F14
:102C50000E947B9160E070E08BEF92E10E94FF1890
:102C60000895CF93DF93EC0181E793E09983888304
:102C7000CE01835B934F0E94C1B5CE010E9400B983
:102C8000DF91CF910895CF93DF93D82FC92F0E9462
:102C9000311666E67CE08D2F9C2F0E949EB5DF9159
:102CA000CF910895A0E0B0E0E8E5F6E10C942AF1B8
:102CB000EC018DEB92E0998388831B821A821C823F
:102CC0007E0185E0E80EF11CC7010E945196CE01FD
:102CD0008D549F4F9F838E83815A9109998788874E
:102CE00082E390E0998B888BBE01665F7F4FC701BE
:102CF0000E94F7968A858F87CE018D969B8B8A8B53
:102D00001D8A1C8A1F8A1E8A198E188E1B8E1A8E87
:102D10001C8E1E8E1D8E0E94F2A68E010E521F4F1B
:102D20006E01E6EFCE0ED11CC8010E9489A00A5F99
:102D30001F4F0C151D05C1F7CE018759944F0E94F6
:102D400060B48E010659144FC8010E949A946E0116
:102D5000FEE8CF1AF4EFDF0A40E050E0BA01C60106
:102D60000E94299081E895E0F60191838083108785
:102D70000783B8961183008313821282158214820E
:102D800023E0268317821186108613861286148606
:102D9000158616861786BF961183008313821282CA
:102DA0001582148226831782118610861386128656
:102DB00014861586168617867096118300831282F4
:102DC0001382148215823696118300831382128235
:102DD0001582148226831782118610861386128626
:102DE00014861586168617867696118300831382BD
:102DF000128215821482268317821186108613860A
:102E000012861486158616861786DE01A45FB34FD8
:102E100011961C930E9313961C921E921297159660
:102E20001C921E92149717962C93179718961C9223
:102E300018971A961C921E9219971C961C921E9215
:102E40001B971E961C921E921D97AE01455E534F16
:102E5000FA01118300831382128215821482278360
:102E60001086128611861486138616861586CE0164
:102E7000865D934FFC0111830083138212821582B9
:102E80001482168227831086128611861486138672
:102E9000168615860F96FC01118300831382128219
:102EA0001582148216822783108612861186148654
:102EB00013861686158681E016968C93FA01868312
:102EC00081E793E099838883C7010E94B796FE014A
:102ED000E75BF34F91838083C7010E94DB96FE017D
:102EE000E55BF34F918380830D511F4FC8010E9412
:102EF000B21883ED92E0F8019183808339968BECD0
:102F000092E091838083C85AD34F1B861C861D860E
:102F1000CDB7DEB7E8E00C9446F18E58944F0E948E
:102F2000E8900895A9E0B0E0E8E9F7E10C9430F109
:102F300040E068E0CE0101960E94C6828DE593E0F4
:102F40009A838983CE0101960E94E890CE01019672
:102F50000E94D9B52996E2E00C944CF1EC018C0169
:102F60000E58144FC8010E94E890CE010E9492179B
:102F7000F9CFA3ECB1E0EFEBF7E10C9430F1CE0127
:102F800001960E943846CE0101960E94E89085E89D
:102F900094E09A838983CE0101960E94FE1CCD5352
:102FA000DE4FE2E00C944CF10F93CF93DF93CDB75B
:102FB000DEB7AD970FB6F894DEBF0FBECDBF01E010
:102FC0002DEA34E145EA5BEC60E070E0CE01019669
:102FD0000E944E1D8FE093E09A838983CE01019673
:102FE0000E94E890CE0101960E94DAB6AD960FB627
:102FF000F894DEBF0FBECDBFDF91CF910F91089542
:10300000FC01E75BF34F718360830895FC01E55B8E
:10301000F34F718360830895EC018C01035B134FC0
:1030200062E0C8010E94DF18CE0105960E94AA96B0
:10303000682FC8010E9449C8CE018E58944F0E9443
:103040001190CE010E94B917CE010E94D417F9CF7A
:10305000A0E0B0E0EEE2F8E10C9428F1EC010E946F
:10306000A6B55E0127EBA21A23EFB20AF501808113
:1030700091819E01255B334F6901892B29F4F90168
:1030800080819181892BA1F10091CB061091CC0612
:103090008DEC96E00E940E957C01FE01E85BF34FFB
:1030A0008081882399F0F50120813181CE01835BF5
:1030B000934F2115310539F0A8014E195F0961E0E0
:1030C0004217530708F460E00E945FC8F6012081B0
:1030D0003181CE018659944F2115310531F00E19F9
:1030E0001F0961E00217130708F460E00E94439192
:1030F000CDB7DEB7EAE00C9444F10F931F93CF9362
:10310000DF93D82FC92F062F672F142F0E940EC8C8
:10311000882331F0412F602F8D2F9C2F0E940EC8E5
:10312000DF91CF911F910F910895EC0162E370E060
:10313000835B934F0E9439C9FE01E85BF34F8083A4
:10314000811103C0CE010E94AE1782E390E00E947D
:103150007CB5CE010E940C18089562E070E00E94D8
:103160009EB50895FC0187E893E09183808384E60F
:10317000878310860895FC0187E893E0918380831C
:10318000CF010E94AC180895CF93DF93D82FC92F99
:103190000E94BB1869E070E08D2F9C2F0E949EB5A5
:1031A000DF91CF910895FC0173836283558344833B
:1031B0000895FC0167830895FC0160870895FC0170
:1031C00066830895FC01868181FF03C08481958117
:1031D0000895828193810895FC01868181FF03C057
:1031E000828193810895848195810895FC0187816E
:1031F0000895FC0180850895FC0186810895AF92B1
:10320000BF92CF92EF92FF920F931F93CF93DF93D2
:10321000EC017B01E881F981A680B7800E94EC185F
:103220008C01CE010E94E2189C01C12C40E050E0CC
:1032300060E070E0CE01F5011995DF91CF911F910B
:103240000F91FF90EF90CF90BF90AF900895DC0169
:10325000ED91FC910480F581E02D19950895A0E091
:10326000B0E0E5E3F9E10C942AF1EC018B017A017D
:10327000690161507109E881F9810480F581E02DCF
:103280001995A70141505109E881F9810480F58120
:10329000E02D9601B801CE011995E881F9810480ED
:1032A000F581E02D9601A701B801CE011995A7017E
:1032B0004F5F5F4FE881F9810480F581E02D960131
:1032C000B801CE011995B8016F5F7F4FE881F98190
:1032D0000480F581E02D9601A701CE011995CDB7A7
:1032E000DEB7E8E00C9446F1CF92EF92FF920F9395
:1032F0001F93DC017801ED91FC910680F781E02DB0
:10330000C12C890121E030E019951F910F91FF90A8
:10331000EF90CF900895CF92EF92FF920F931F936B
:10332000DC017801ED91FC910680F781E02DC12C44
:1033300001E010E019951F910F91FF90EF90CF9051
:103340000895ACE0B0E0E7EAF9E10C9420F189835C
:103350009A836B014A011C830B8387018B819C81BB
:10336000841B950B9C878B873901661A770A261771
:10337000370749F49C0189819A810E9474192C961F
:10338000E2E10C943CF1AB85BC85AB2B31F49301AD
:1033900089819A810E948B19F2CFEB84FC84F7FE1D
:1033A00003C0F194E194F108C30177FE04C08827BB
:1033B000992786199709E816F90608F47C01A12CCB
:1033C000B12C1701412C512C9501AB85BC850E9475
:1033D0000EF16B837C838D839E83A20191010E94F9
:1033E000D0F0C401820F931F9C838B839501D3017E
:1033F0000E940EF16F83788789879A87A2019101D5
:103400000E94D0F0B601620F731FA981BA81ED91BD
:10341000FC9111970480F581E02D98014B815C812E
:10342000CD011995BFEFAB1ABB0AEA14FB0460F695
:10343000A6CFEF92FF920F931F93DC01ED91FC91C9
:103440000284F385E02D19951F910F91FF90EF9065
:103450000895CF92EF92FF920F931F93DC01ED91AD
:10346000FC910680F781E02D19951F910F91FF9037
:10347000EF90CF900895A4E0B0E0E1E4FAE10C947D
:1034800020F189839A835B014A012B833C832801C5
:10349000380181E0681A7108640E751E8701C0FE4C
:1034A00034C0CB80DC8082E0C81AD10896011B01B1
:1034B0008FEF281A380AB10189810E948B19960171
:1034C000A301B10189819A810E948B19620182E076
:1034D000C81AD1088FEF881A980A87019601A401AB
:1034E000B50189819A810E9474196B817C81615038
:1034F00071096A0D7B1D9601A40189819A810E9440
:1035000074192496E2E10C943CF12B813C81898171
:103510009A810E948B192B813C81A301B501D2CFE6
:10352000AF92BF92CF92EF92FF920F931F93DC0165
:10353000ED91FC910084F185E02D19951F910F917B
:10354000FF90EF90CF90BF90AF900895ACE3B0E0C4
:10355000ECEAFAE10C9420F13C01562ED72E342EE1
:10356000452E222EA501D4012D913C916CE370E0F3
:10357000CE0101960E940FF3D301ED91FC910084DE
:10358000F185E02DCE0101965C01222D432D542DB5
:10359000652D7D2DC3011995EC96E2E10C943CF16B
:1035A0008F929F92AF92BF92CF92EF92FF920F9322
:1035B0001F93CF93DF930F920F92CDB7DEB7CE015B
:1035C0004F969A8389834E974C01AD8CBE8CCC8CE0
:1035D000EA8CFB8C088D198D2F894D895E896B894A
:1035E0007C8989899A890E94A61A0F900F90DF9191
:1035F000CF911F910F91FF90EF90CF90BF90AF9020
:103600009F908F900895ACE3B0E0E9E0FBE10C946B
:1036100022F14C01762ED72E542E652E422EB50166
:103620004CE350E0CE0101960E94CBF1D401ED9124
:10363000FC910084F185E02DCE0101965C01242DE2
:10364000452D562D672D7D2DC4011995EC96E0E191
:103650000C943EF1ACE3B0E0E0E3FBE10C9420F12C
:103660003C01562ED72E342E452E222EA501D401F4
:103670002D913C916CE370E0CE0101960E944CF3D9
:10368000D301ED91FC910084F185E02DCE010196EE
:103690005C01222D432D542D652D7D2DC3011995DF
:1036A000EC96E2E10C943CF18F929F92AF92BF9224
:1036B000CF92EF92FF920F931F93CF93DF930F92CE
:1036C0000F92CDB7DEB7CE014F969A8389834E977E
:1036D0004C01AD8CBE8CCC8CEA8CFB8C088D198D8A
:1036E0002F894D895E896B897C8989899A890E9495
:1036F0002A1B0F900F90DF91CF911F910F91FF9098
:10370000EF90CF90BF90AF909F908F9008950895C5
:10371000EF92FF920F931F93CF93DF93EC01790108
:10372000E881F9810288F389E02D01E010E021E0D1
:1037300030E01995E881F9810488F589E02DB70119
:10374000CE011995E881F9810688F789E02DCE012F
:103750001995CDB7DEB7E6E00C9448F1A4E1B0E0EE
:10376000E4EBFBE10C9420F18B8B9C8B1B014F87CE
:10377000588B822F098B1A8BEB82FC821C2D0E94A6
:1037800012B44C01DC0112967C90129713968C9126
:1037900013971496EC90149715966C90B62DB81B51
:1037A000BD83A982BA82A12CB12CE82FF0E0F98761
:1037B000E887262D30E03B872A878E2D90E09D8775
:1037C0008C8711701E87E981FA818191FA83E983E0
:1037D000811105C0C5016496E2E10C943CF190EEC4
:1037E000980F9C3608F08FE390EEF92EF80EA8851E
:1037F000B985FA9E6001FB9ED00C11248B899C89AF
:103800000E94E2182816390628F7AB89BC89ED9189
:10381000FC9111970288F389E02D0A851B852C8580
:103820003D854F855889B101CD011995412C512C09
:1038300046101EC0AB89BC89ED91FC91119706889A
:10384000F789E02DCD011995FF2009F461C0BE85EF
:10385000BB2309F45DC0552021F0852D5E2C80FF2F
:1038600054C0852D90E0A80EB91E280E391EABCF8E
:10387000BD814B1608F447C086010F5F1F4FD4016E
:10388000ED91FC91EC0DFD1DE4915E2AC72CD12C2D
:103890002E2F30E03F832E83AB89BC89ED91FC91C4
:1038A000872D8C198E1518F043946801C1CF0488B8
:1038B000F589E02D871568F4C6010197AE81BF81B7
:1038C00002C0B595A7958A95E2F769897A89A0FD26
:1038D00002C06B817C818B899C891995B1E0CB1AE0
:1038E000D108DACF0488F589E02D6B817C818B8942
:1038F0009C8919951F5FAB89BC89ED91FC911E11C4
:10390000F1CF8601D1CF10E0F6CF5A948695A7CF9C
:103910005E2CA7CF8F929F92AF92BF92CF92EF92E1
:10392000FF920F931F93CF93DF93EC015901C801CE
:103930002115310589F0009779F0E881F98137FF89
:1039400017C0222733272A193B096A0D7B1D0680E1
:10395000F781E02DCE011995DF91CF911F910F9145
:10396000FF90EF90CF90BF90AF909F908F90089571
:10397000480117FF0AC000271127081B190B480F21
:10398000591F0680F781E02DE5CF0288F389E02DED
:10399000CE0119958501E881F9810488F589E02D2A
:1039A000B701CE011995015011090115110599F7BB
:1039B00081E0881A91088114910461F7E881F98106
:1039C0000688F789E02DCE011995C6CFFC018DE957
:1039D00093E091838083CF010E94BB180895CF9319
:1039E000DF93D82FC92F0E94E61C69E070E08D2F6D
:1039F0009C2F0E949EB5DF91CF910895FC0181ED2F
:103A000093E091838083CF010E940D900895CF931E
:103A1000DF93D82FC92F0E94FE1C6DE270E08D2F1E
:103A20009C2F0E949EB5DF91CF910895A0E0B0E059
:103A3000ECE1FDE10C942AF1EC018F81882349F13E
:103A40007E018AE1E80EF11C8E810E851F859FE0C4
:103A5000899F000D111D1124CC84DD848CA1882345
:103A600071F08DA19EA1C816D90629F48FA198A541
:103A70000817190771F060E0C7010E945AD5DEA24D
:103A8000CDA218A70FA381E08CA361E0C7010E941B
:103A90005AD5CDB7DEB7E8E00C9446F1FF920F930C
:103AA0001F93CF93DF93EC01F22E132F0E942990E6
:103AB00081ED93E0998388830F83F88619871B86AD
:103AC0001A861B8A1A8A1D8A1C8A8BEF92E10E9431
:103AD000E2189F8B8E8B8BEF92E10E94EC18998FEE
:103AE000888F1B8E1A8E1D8E1C8E1AA285E08BA3CA
:103AF0001CA21EA21DA218A61FA28FEF9FEF9AA7BD
:103B000089A71CA61BA68BEF92E10E94E2180197E1
:103B10009F8F8E8F8BEF92E10E94EC18019799A3F3
:103B200088A381E08AA31CA284E08BA380EE9DEF92
:103B30009AA789A7CDB7DEB7E5E00C9449F1DC017F
:103B4000ED91FC910680F781E02D199508958F92F3
:103B50009F92AF92BF92CF92EF92FF920F931F93DB
:103B6000CF93DF93EC0188859985892B09F484C074
:103B700084E00E9412B44C018BEF92E10E94E218A3
:103B800063E070E00E9486F05B01F401058110E0C3
:103B90000F5F1F4FC12CEE24EA94FE2C9B0140E0E6
:103BA00050E08BEF92E10E94291A950122503109D1
:103BB000F401458150E04F5F5F4FB5016F5F7F4F6C
:103BC0000FEF1FEF8BEF92E10E948B19888599858B
:103BD0000E94C2F1F4012481289F8001299F100DC9
:103BE00011248BEF92E10E94E218A884B984BC01F1
:103BF000601B710B76956795CC24C39400E010E0B0
:103C000024E041E050E08BEF92E10E94031B1B8A0D
:103C10001A8A81E090E09D8B8C8B8BEF92E10E9461
:103C2000E2182A893B89821B930B9F8B8E8B8BEF2B
:103C300092E10E94EC189C014C895D89841B950BD4
:103C4000998F888F8A899B899D878C87BA016A5F43
:103C50007F4F7F876E879B8F8A8F5D8F4C8FAC01E4
:103C60004D5F5F4F5F8F4E8F2150310939A328A3DD
:103C70001CA20696998B888BDF91CF911F910F9193
:103C8000FF90EF90CF90BF90AF909F908F9008954E
:103C9000CF93DF93EC0160E070E08BEF92E10E9444
:103CA000FF18CE010E94A71DE881F9810480F581EB
:103CB000E02DCE011995E881F9810190F081E02D88
:103CC000CE011995DF91CF910895DF92EF92FF9287
:103CD0000F931F93CF93DF93EC018B01F42E8C8114
:103CE00081702F8138852115310509F473C09A89B7
:103CF0004B895E855F935D855F935C855F935B8594
:103D00005F933F932F938F934F939F934F939F93E3
:103D10008D818F938B818F938A818F9389818F93EC
:103D200088818F938BEF92E19F938F930E94D01A9B
:103D30008DB79EB742960FB6F8949EBF0FBE8DBF4B
:103D40001E829FEF67E474E1F91629F08EEFF812F6
:103D500071C064E075E1CE010E940DD68F81988517
:103D6000009709F48DC02C8121701B850C85FD8482
:103D7000EE84A889B989EA89FB897D815A816B81A2
:103D800038814981DF84D110B1C0EF92FF920F9347
:103D90001F939F938F932F93FF93EF93BF93AF93B3
:103DA0007F936F935F934F933F938BEF92E19F933A
:103DB0008F930E94D01A8DB79EB742960FB6F89493
:103DC0009EBF0FBE8DBF81E08E83CDB7DEB7E7E02B
:103DD0000C9447F129853A852115310509F4B0CFB6
:103DE0009A894B895E855F935D855F935C855F9360
:103DF0005B855F933F932F938F934F939F934F9345
:103E00009F938D818F938B818F938A818F938981EB
:103E10008F9388818F938BEF92E19F938F930E9472
:103E2000541B8DB79EB742960FB6F8949EBF0FBE37
:103E30008DBF86CF6F2D81E697E00E9415A67C018D
:103E40000E9407A861E175E1882309F484CFC701C6
:103E50000E941FA8BC012AE1A80183EB96E00E9402
:103E6000D2988E81882331F08F81988508171907A1
:103E700009F474CF18870F831A8619861E826ECFB5
:103E800089859A85009709F49ECF2C8121701B8526
:103E90000C85FD84EE84A889B989EA89FB897D8136
:103EA0005A816B8138814981DF84D1103EC0EF9205
:103EB000FF920F931F939F938F932F93FF93EF93F3
:103EC000BF93AF937F936F935F934F933F938BEF2A
:103ED00092E19F938F930E94541B8DB79EB7429699
:103EE0000FB6F8949EBF0FBE8DBF6DCFEF92FF92BD
:103EF0000F931F939F938F932F93BF93AF93FF9332
:103F0000EF937F936F935F934F933F938BEF92E188
:103F10009F938F930E94D01A8DB79EB742960FB68B
:103F2000F8949EBF0FBE8DBF4ECFEF92FF920F93BE
:103F30001F939F938F932F93BF93AF93FF93EF9311
:103F40007F936F935F934F933F938BEF92E19F9398
:103F50008F930E94541B8DB79EB742960FB6F8946C
:103F60009EBF0FBE8DBF2FCFA0E0B0E0EAEBFFE118
:103F70000C942AF18C0180E292E10E940D828091E2
:103F8000B206882309F461C08BED96E00E9431A44B
:103F90009C01F801828593852817390709F455C0DB
:103FA00033872287C289D38986899789C80FD91F09
:103FB000EC97048915892DB73EB78FEF91E2821BEC
:103FC000930B9F938F9385EB93E09F938F931F9217
:103FD0001F921F9288EFC82ECF921F92DD24D39498
:103FE000DF92C80101969F938F93DF93CF939BEF4E
:103FF000E92E92E1F92EFF92EF920E94D01A8DB72E
:104000009EB72091000230910102821B930B9F9377
:104010008F9381EC93E09F938F931F921F921F9237
:10402000CF921F92DF92055F1F4F1F930F93DF9375
:10403000CF93FF92EF920E94D01A8DB79EB78096D1
:104040000FB6F8949EBF0FBE8DBFCDB7DEB7E8E0C8
:104050000C9446F10F931F93CF93DF93EC019B01D8
:1040600000E04FEF5FEFBA010E944E1D8BEE92E031
:1040700099838883CE018D960E941DD68E01005CA7
:104080001F4FC8010E941DD6FE01ED5AFF4F10823E
:1040900031968EE0808382E08DAB1FAA23E02EABA9
:1040A00080EE9DEF9DAF8CAF38E0F801308712862F
:1040B0002187C15BDF4F99838883DF91CF911F9167
:1040C0000F9108950F931F93CF93DF93FC01848981
:1040D00095897FE09C01769F200D311D1124428936
:1040E000538956A745A730AB27A7EA012496D2AB40
:1040F000C1ABD9011396B4ABA3AB17AA8A010E5F6B
:104100001F4F11AF00AF2C5F3F4F33AF22AF615055
:104110009F012C5A3F4FD9012C91620F769F800D41
:10412000911D11249C012A5F3F4FE05CFF4F51839A
:10413000408333832283D583C48309969783868300
:1041400012861487038736872587DF91CF911F91C9
:104150000F910895CF92DF92FF920F931F93CF9309
:10416000DF93EC01F62E8D966E0123E5C20ED11C75
:10417000F6012081222321F121E02FAB61E00E9492
:104180005AD58E01005C1F4F6F2D70E0F6018081C3
:10419000CC5ADF4F9881890F9927991F8617970767
:1041A000BCF481E0F801828761E0C8010E945AD521
:1041B000DF91CF911F910F91FF90DF90CF900895E5
:1041C0002FA92223F1F260E00E945AD51FAAD9CF6D
:1041D000F8018285882361F360E0C8010E945AD506
:1041E000F8011286E5CF0F931F93CF93DF93FC0165
:1041F000DC01AC5ABF4F5C919FEF940F561750F5FE
:10420000950F8681891780F1DF01AD5ABF4F4C9120
:10421000242F30E0C52FD0E0A62FB0E089010C0F8D
:104220001D1F0A171B07ECF48F5F891B280F311D18
:104230002C0F3D1FA217B3077CF0840F9150DF01B4
:10424000AD5ABF4F8C93968381E0DF91CF911F9140
:104250000F910895960FD5CF862F851BF0CF80E064
:10426000EECF968380E0F1CF4817E0F3DF01AD5A3F
:10427000BF4F2C912223B1F34F5F942F981B291726
:1042800070F3820F841B942FDACFCF93DF93FC015E
:10429000DC01AC5ABF4F8C914150861700F5480F96
:1042A000DF01AD5ABF4F9C91292F280F3327331FB1
:1042B000E901262F30E0C217D30754F02681890F79
:1042C000861B981708F4892F981B9C93820F86836E
:1042D0008681481708F44683DF91CF910895460FF1
:1042E000DFCFA6E0B0E0E7E7F1E20C9430F16E83B7
:1042F0007D83CA01550FAA0BBB0BBC01CD0124E67F
:1043000030E040E050E00E94D0F0BA01A9018E8177
:104310009D810E949FDC8E819D810E94B4DC269647
:10432000E2E00C944CF1A8E0B0E0E9E9F1E20C9491
:1043300020F17C01698301E02FE635E145E757E391
:1043400060E070E00E944E1D83EE93E0F7019183E0
:104350008083898185A7F696FA83E983CF010E943D
:104360007EDCC701865B9F4F0E947EDC8701085878
:104370001F4FF8011182108213821282148283E08F
:1043800085838EE185A316A281E487A310A6CC24A1
:10439000CA94DC2CD2A6C1A614A613A690EEA92E10
:1043A0009DEFB92EB6A6A5A61682C70189559F4FC7
:1043B0000E947EDC270195ED490E511CC2010E942E
:1043C0007EDCC70187519F4F0E947EDC3701E9EEFA
:1043D0006E1AEEEF7E0AC3010E947EDCC701855D86
:1043E0009E4F0E947EDC4701F7EA8F1AFEEF9F0A7C
:1043F000C4010E947EDCF701E359FE4F1182108256
:10440000138212821582148217821682108683E02C
:10441000818712861386D586C48617861686B18A4A
:10442000A08AC70180589E4F0E947EDCF701EC569F
:10443000FE4FFE83ED83CF010E947EDCC7018855CD
:104440009E4F9C838B830E947EDC170194E4291A83
:104450009EEF390AC1010E947EDCF701E053FE4F56
:104460001082D282C182148213821682158281E068
:10447000878311861086108ED28EC18E148E138E75
:10448000B68EA58E7F96F887EF83118210821382F5
:104490001282108685E0818712861486138616861E
:1044A0001586D08AC786128A118A8BEF92E10E9404
:1044B000E2180197EF81F885958384838BEF92E171
:1044C0000E94EC180197EF81F88597838683148A00
:1044D000138A168A158A108E178A128E118E138EE1
:1044E000D58EC48E178E168EB1A2A0A283E082A3B1
:1044F00013A215A214A217A216A211A610A613A603
:1045000012A615A614A617A616A611AA10AA13AAD3
:1045100012AA15AA14AA17AA16AA11AE10AE13AEA3
:1045200012AE15AE14AE17AE16AECF010E94D6D69F
:10453000EF81F88580A191A1908B8787868D978DDB
:10454000928B818BF70165A581E697E00E9408A612
:10455000F70197A786A7A701425A5F4F2AE165A5F1
:1045600083EB96E00E94F29B64E574E189819A8175
:104570000E940DD682E0F80184836FE276E1C201E9
:104580000E940DD6F20114826FE276E1C3010E940F
:104590000DD6F30114826FE276E1C4010E940DD6BC
:1045A000F4011482FF9610826FE276E18D819E8184
:1045B0000E940DD6F701E455FE4F10826FE276E1BE
:1045C0008B819C810E940DD6F701E054FE4F108232
:1045D0006FE276E1C1010E940DD687E1EF81F88597
:1045E000838FCF010E94D6D62896E2E10C943CF14D
:1045F000A0E0B0E0EEEFF2E20C942AF1EC016C01E5
:104600008AE4C80ED11CC6010E946ADD8E010858DA
:104610001F4F7E018EE5E80EF11C49E1B701C8018C
:104620000E946BDEB8016A5F7F4F49E150E0C7012D
:104630000E943EF2FE01E958FF4F1082A7016DA5CE
:1046400083EB96E00E94EB9BC8010E941ADECE012C
:10465000C6960E94B4DCC6010E94B4DCCDB7DEB7BA
:10466000E8E00C9446F1A7E0B0E0E9E3F3E20C9453
:1046700020F16C016E837F833A01490158012E2C91
:104680002C018AE1480E511C1A82198281E08D8327
:1046900080E098EFF60192A781A7C2010E94CED6D2
:1046A00061E0C8010E9498DCC8010E94B4DC312C92
:1046B0008FE99DE1892B19F0C6010E949F1D00E042
:1046C00010E020E030E0AE014D5F5F4FBE016C5F57
:1046D0007F4F8DEC96E00E94E5941B814C81442332
:1046E00021F1E12C21E0EE81FF81608181E697E0FC
:1046F0000E9479A6EE81FF818083C5010E946ADD58
:10470000EE81FF8160816F3F09F04BC08FEF9FEF1B
:10471000F3019183808367E474E1C5010E940DD6A3
:10472000C5010E94B4DC33243394AE014B5F5F4F6C
:10473000BE016F5F7F4FC5010E9426E0112309F47F
:10474000B7CF80EE9DEFF60192A781A7C2010E942C
:10475000CED660E0C5010E9498DCC5010E94B4DCA1
:10476000F601E05DFD4F2082F18281E7882E81E233
:10477000982E9FE9A92E9DE1B92EE22C820124E614
:1047800030E040E355E760ED7AE8C30102960E940D
:104790005BE0311001C0382E832D2796E2E10C94A6
:1047A0003CF16E3F41F48EEF9FEFF30191838083E4
:1047B00064E075E1B2CF81E697E00E9415A6082F6C
:1047C000392E0E941FA8F30191838083802F932D9F
:1047D0000E941FA8BC012AE1A40183EB96E00E947D
:1047E000D298F5018681882331F0878190858816DB
:1047F000990609F495CFF501908687821286118675
:1048000016828ECFA6E0B0E0E8E0F4E20C9430F13E
:1048100024E1629F800D911D1124DC01AC56BE4F36
:10482000BE83AD83CA01550FAA0BBB0BBC01CD01E2
:104830002CE231E040E050E00E94D0F0BA01A90142
:104840008D819E810E949FDC8D819E810E94B4DCBF
:104850002696E2E00C944CF1FC01E15DFD4F608195
:104860000E9402240895FF920F931F93CF93DF932A
:10487000EC018B01F42ECB010E946ADDFF2059F080
:1048800081E0F816D1F0C8010E94B4DCCDB7DEB7E4
:10489000E5E00C9449F163E572E1C8010E940DD690
:1048A000C053DE4F8F81813071F360E0CE010E94F2
:1048B0007EDA81E08F831882E6CF60E575E1C8017A
:1048C0000E940DD6C053DE4F8F818823E1F260E055
:1048D000CE010E947EDA1F82EECFACE0B0E0E3E7CB
:1048E000F4E20C9420F11C0183E00E9412B48D8349
:1048F0009E83AD81BE8114968C91BCE08B9FA001FC
:104900001124F10122893389BA01620F731F78875C
:104910006F832689378921503109D901A41BB50B32
:10492000BA87A98760897189FB0127E0829FE00D22
:10493000F11D1124FC87EB874F0139E1839F800C27
:10494000911C1124D10154964D915C9119E0A12E36
:1049500015E1B12ECC24C394E12CF12C00EE1DEF17
:1049600023E08BEF92E10E94031BF101848995897A
:104970004E962089318937AB26AB91AF80AFC1010C
:10498000C6960E94B4DCF101E65BFF4FD10154965C
:104990008D919C9155974E962B853C853183208334
:1049A00093838283A10148585F4F50962D913C918B
:1049B000DA0111963C932E9313969C938E93129743
:1049C000C101825A9F4F2681222329F027813085F9
:1049D0008217930739F09087878312861186CF015B
:1049E0000E94B4DCF10144895589445C5F4F6089C1
:1049F0007189E4E5AE2EE3E1BE2ECC24C394E12C14
:104A0000F12C0FEF1FEF23E08BEF92E10E94031BCD
:104A1000D10154962D913C915597245C3F4FC10193
:104A200089559F4F4B855C85FC01518340833383BF
:104A300022839E96ED91FC914689B10165547F4F8A
:104A40000E94651E81010B521F4FD10154968D911A
:104A50009C915597CC96F8019182808293838283B2
:104A60009E96ED91FC91848195819C01990F440B58
:104A7000550B29833A834B835C83F4E64F2E512CEC
:104A8000612C712CCA01B901A30192010E94D0F0DE
:104A9000BA01A901C8010E949FDCC8010E94B4DCD0
:104AA000D10154964D915C915597455B5F4F50965F
:104AB0006D917C91A4EBAA2EA2E1BA2E0FEF1FEF0D
:104AC00023E08BEF92E10E94031BF10124893589D9
:104AD000255B3F4FC10187519F4FEB85FC85DC0172
:104AE0001196FC93EE9313963C932E931297D1015B
:104AF0009E96ED91FC914789B10163507F4F0E94D2
:104B0000651E8101095E1E4FF10184899589855BCF
:104B10009F4FD80111969C928E9213969C938E93E0
:104B2000129706A4F7A5E02D808591859C01990F29
:104B3000440B550B29833A834B835C83CA01B9012B
:104B4000A30192010E94D0F0BA01A901C8010E94FC
:104B50009FDCC8010E94B4DCD10154964D915C9158
:104B60005597465A5F4F50966D917C91BAEBAB2E9C
:104B7000B4E1BB2E0FEF1FEF23E08BEF92E10E9419
:104B8000031BF10124893589265A3F4FC101855DF8
:104B90009E4FEB85FC85DC011196FC93EE931396FA
:104BA0003C932E931297D1019E96ED91FC91408DEE
:104BB000B101615C7E4F0E94651EF101E75AFE4F14
:104BC000FC87EB87D10154968D919C915597865A1D
:104BD0009F4F91828082938382839E96ED91FC9178
:104BE000848595859C01990F440B550B29833A8345
:104BF0004B835C83CA01B901A30192010E94D0F0EA
:104C0000BA01A9018B859C850E949FDC8B859C85C0
:104C10000E94B4DCAD81BE8114968C91B0E18B9F73
:104C2000A0011124F101A088B188A40EB51E450190
:104C3000FBE08F9F800C911C1124D10154962D9183
:104C40003C91559728583F4F58968D919C91599774
:104C500056964D915C9148195909821B930B481740
:104C6000590708F4CA01F101E053FE4FFA83E983C2
:104C700094828382368325839187808782E00E9495
:104C800012B4FC0184812581281708F4282FA981FA
:104C9000BA8118968D919C911997821B910919964A
:104CA0009C938E9318971C92F101EC56FE4FFC8753
:104CB000EB8758E7C52ED12C612C712C00EE13E048
:104CC0006BEFE62E62E1F62E862DD10154964D90C3
:104CD0005C904C0C5D1C813009F42CC1823009F4CD
:104CE0002DC1E5E4F2E1CF019F938F9351E05F93F3
:104CF0001F921F926DEF6F930F931F935F924F92CE
:104D0000D10151968C9151978F9350968C918F939E
:104D1000FF92EF920E94541BEB85FC85B182A0822A
:104D200053824282D1019E968D919C919301220FD4
:104D3000331F820F931FFC01878590899C01990F77
:104D4000440B550B29833A834B835C83CA01B90119
:104D50002CE231E040E050E00E94D0F0BA01A9011D
:104D60008B859C850E949FDC8B859C850E94B4DC92
:104D70003FEF631A730A4FE0C40ED11C6B857C852C
:104D80006C5E7F4F7C876B870FB6F894DEBF0FBEDB
:104D9000CDBF93E06916710409F096CFD101549606
:104DA0004D915C9155974C545F4F50966D917C910D
:104DB00092EFA92E93E1B92ECC24C394E12CF12CCF
:104DC0000FEF1FEF23E08BEF92E10E94031BF10135
:104DD000E359FE4FFA83E983D10154964D915C91DA
:104DE0004C545F4F2F813885318320835383428316
:104DF00069857A85758364838CE090E097838683E8
:104E00001286E684F7840CE010E02CE030E06F813D
:104E100078858BEF92E10E943B1AA981BA811696A0
:104E20002D913C911797225031091E96ED90FC90E0
:104E30001F9712964D915C9113974F5F5F4F6D9145
:104E40007C916F5F7F4FC12C89018BEF92E10E94B3
:104E5000291AD1019E96ED91FC918685E981FA810E
:104E60009285992319F09385891759F0A981BA8100
:104E70001B968C931B971A961C921A97CD010E9431
:104E8000A7B9F101448955894D535F4F60897189F4
:104E90008AE7A82E84E1B82ECC24C394E12CF12C0F
:104EA0000FEF1FEF23E08BEF92E10E94031BD10174
:104EB00054968D919C9155978D539F4FB101605899
:104EC0007E4F2F813885FB0131832083938382833A
:104ED0009E96ED91FC914589C1010E943324D10138
:104EE0001C962D913C911D97ED81FE818481820F4E
:104EF000932F911D881A990A54968D919C915597DC
:104F000058964D915C91840F951F0E97F101E151D8
:104F1000FE4F348B238B968B858B908E878A8CE00B
:104F200090E0928F818FCF010E94D6D62C96E2E13D
:104F30000C943CF12FE332E1C901D6CE4AE352E1B1
:104F4000CA01D2CE0E9433240895A5E0B0E0EBEA76
:104F5000F7E20C9422F13C01623089F4DC011696F0
:104F60009C9116979E3058F4E92FF0E08827EE5F69
:104F7000F8408F4F0C94EFF0C3010E94F82281E0BB
:104F80002596E0E10C943EF1F30166A577A5AB010F
:104F90004E5F5F4F6A5E7F4F7301F5EDEF0EF11CC0
:104FA000830109551F4F930125543F4FC3010E94B0
:104FB0003323582E552019F375C09E966D917C9120
:104FC000AB014A5F5F4F695E7F4F7301B9EEEB1A29
:104FD000BEEFFB0A830107511F4F930123503F4F40
:104FE000E5CFF30166A577A5AB01465F5F4F685E2D
:104FF0007F4F7301F7EAEF1AFEEFFF0A8301055DA9
:105000001E4F9301215C3E4FD1CF9850F301E15DDB
:10501000FD4F9083292F30E0730184E1989FE00CCD
:10502000F11C1124D701AC56BE4F7D01220F331F56
:10503000C9010F96D3019E96ED91FC912CE2822E30
:1050400024E2922E3FE9A32E3DE1B32E63018301BA
:10505000065E1F4F2CE231E040E355E760ED7AE851
:105060008E0F9F1F0E945BE0A4CF9E96ED91FC9156
:1050700086850E9489B591E0811101C090E0D3013D
:105080009E96ED91FC919687F301E359FE4F828540
:10509000882319F08385981729F093871286CF010A
:1050A0000E94A7B9D3019E964D915C919F974E5F48
:1050B0005F4F9D966C9183EB96E00E94499C5FCF79
:1050C0007301B0E8EB1ABEEFFB0A6301EAE1CE0E12
:1050D000D11CD3019E96AD90BC909F971A821982E5
:1050E00081E08D8380E098EF9A969C938E939997B8
:1050F000C6010E94CED661E0C7010E9498DCC701BC
:105100000E94B4DC512C8FE9882E8DE1982EF50198
:1051100045888114910419F0C3010E949F1D00E08D
:1051200010E020E030E0AE014D5F5F4FBE016C5FEC
:105130007F4F8DEC96E00E94E5941B814C814423C7
:10514000D9F0042E000C550B440D511D47FC5A9507
:10515000423051051CF042505109FACF57FF03C0AD
:105160004E5F5F4FF5CFD50155964C93B701C30104
:105170000E94332455245394AE014B5F5F4FBE0110
:105180006F5F7F4FC7010E9426E0112309F4BFCF54
:1051900080EE9DEFF30192A781A7C6010E94CED6B3
:1051A00060E0C7010E9498DCC7010E94B4DC02CF16
:1051B00080E0E6CEA0E0B0E0E0EEF8E20C942AF168
:1051C000EC010E94B41FEEA5FFA52481358140E1CA
:1051D00057E2668981E697E00E94ABA77C01EEA5C5
:1051E000FFA52085318540E050E0678981E697E0A2
:1051F0000E94ABA76C01EEA5FFA52485358540E193
:1052000057E2608D81E697E00E94ABA78C01EEA586
:10521000FFA5AC0160E375E7878590890E9482A7AE
:1052200099AB88ABEEA5FFA5B601818992890E9452
:105230005FA79BAB8AABEEA5FFA5A80160E375E76E
:10524000838994890E9482A79DAB8CABAE01405D9F
:105250005F4F23E0B701CE0180539E4F0E94A3DB36
:105260006DA581E697E00E9433A69C0140E355E7D7
:1052700060ED7AE8CE0181519E4F0E9494D7CDB760
:10528000DEB7E8E00C9446F1A2E3B2E0EAE4F9E22A
:105290000C942EF18C01FC01ED5AFF4F8081680FB8
:1052A000CE0101960E949321CE0101960E94E890C2
:1052B000D801ED91FC910484F585E02DC801199584
:1052C00083EE93E09A838983CE0101960E94FE1CAF
:1052D000CE5CDD4FE4E00C944AF1AF92BF92CF92E6
:1052E000DF92EF92FF921F93CF93DF93EC010E9426
:1052F000B41F10E06E0184E5C80ED11C5E01E3E529
:10530000AE0EB11CF6018081181750F0DF91CF91DD
:105310001F91FF90EF90DF90CF90BF90AF900895D6
:10532000F0E41F9F7001112483EFE81A8CEFF80A54
:10533000EC0EFD1EF5016081610F81E697E00E9491
:1053400033A69C0140E355E760ED7AE8C7010E946F
:1053500094D71F5FD7CFA0E0B0E0E1EBF9E20C9467
:1053600024F18C0168E575E10E942A2085EF93E025
:10537000F8019183808383EB96E00E94D79A682F8F
:10538000F801EB5AFF4F808383EB96E00E94649B09
:10539000F801EA5AFF4F80834801F7E58F0E911C10
:1053A000F401118210821382128281E0848383E0EF
:1053B00085831682108617821286118613861486BC
:1053C0001586168617868FEF9FEF918B808B138A39
:1053D000128AF296C8018F559E4F51E043E02FEF9D
:1053E0003FEF11821082138212825483458316820A
:1053F00010861782128611861386148615861686E5
:105400001786318B208B138A128A7496E817F90756
:1054100041F7E801C35FDC4FC8018357994F6C0126
:1054200065E0662EEE24EA94FE2CE0EEAE2EEDEF63
:10543000BE2EF3E07F2E198218821B821A821886F4
:1054400069861A861C861B861E861D86F88AEF864C
:105450001A8A198A8BEF92E10E94E21801979D83C4
:105460008C838BEF92E10E94EC1801979F838E83CF
:105470001C8A1B8A1E8A1D8A188E1F8A1A8E198EF4
:105480001B8EFD8EEC8E1F8E1E8EB9A2A8A27AA254
:105490001BA21DA21CA21FA21EA219A618A61BA613
:1054A0001AA61DA61CA61FA61EA619AA18AA1BAAE4
:1054B0001AAA1DAA1CAA1FAA1EAA19AE18AE1BAEB4
:1054C0001AAE1DAE1CAE1FAE1EAECE010E94D6D6C9
:1054D00088A199A1988B8F878E8D9F8D9A8B898BB0
:1054E000C05CDF4FCC15DD0509F0A5CFE801CC5A33
:1054F000DF4F89E08883F12C3AE1D32E44E1E42E9A
:1055000057E1C52E8881F816B0F005591F4FF401F8
:105510008681882329F0878190850817190731F043
:10552000F40110870783128611861682CDB7DEB785
:10553000EEE00C9440F18F2D90E0A801DF9C400D2F
:10554000511D11244F555E4F9801EF9C200D311DC8
:105550001124F901E157FF4F6081662331F0319644
:10556000208131814217530789F0E89E9001E99E1E
:10557000300D1124200F311FF901E057FF4F5183E7
:1055800040833296118210823397108226E0880F72
:10559000991F2A95E1F7F801E80FF91FE85DFC4F24
:1055A000C082835F9C4F800F911F0E94D6D6F394D8
:1055B000A9CFA0E0B0E0EFEDFAE20C9425F15C0198
:1055C000D12C4C0184E5880E911CF4018081D81601
:1055D000B0F0C0E0D4E18AE1782E7501F3E5EF0E7A
:1055E000F11CF4018081C81708F443C069E0C501CB
:1055F0000E94AA20CDB7DEB7EDE00C9441F1E0E4C3
:10560000DE9EE001112485010C0F1D1FF801E85DED
:10561000FC4F808184FF10C0095E1C4FF80180811F
:10562000882351F060E0CE01835F9C4F8A0D9B1D63
:105630000E945AD5F8011082CA0DDB1DFE01E55DFE
:10564000FC4FE080F18035970081118132972081F5
:105650003181329740815181329760817181C12CB3
:105660008BEF92E10E94291AC05DDC4F1882D3941F
:10567000ACCFCC2ED12C8501DC9F000D111D112447
:1056800007571F4FC8010E946ADD7C9CA0017D9CCA
:10569000500D11244F555E4F4A0D5B1DF70160817F
:1056A0006C0F2AE183EB96E00E94F29BC8010E94F6
:1056B000B4DCCF5F96CFFC01968180E0992331F076
:1056C00081E0890F833010F082E0890F468557858D
:1056D0009FE0899F400D511D112464857585CF0180
:1056E0004A960E94A5D60895FC01EC5AFF4F2081EE
:1056F000621710F40E9444290895CF93DF93D82FA6
:10570000C92F42E069E00E94F320882321F08D2F09
:105710009C2F0E94D92A8D2F9C2F0E945B2BDF91FA
:10572000CF910895FF920F931F93CF93DF93EC01D6
:105730008B01F42ECB010E946ADDBE0165597F4FBB
:105740004EE18F2D0E9463A06F2D81E697E00E94AD
:105750001CA5C8010E94B4DCCDB7DEB7E5E00C940F
:1057600049F1A0E0B0E0E7EBFBE20C9422F12C0160
:105770000E945B2B83E00E9412B4D2015296CD911D
:10578000DC915397FC0184813E01FCE08F9F600C0B
:10579000711C112450966D917C9151974B0129E118
:1057A000829F800C911C112456968D919C91579745
:1057B000C80FD91F2197C819D90954964D915C91EA
:1057C00089E0A82E85E1B82ECC24C394E12CF12CDD
:1057D00000EE1DEF23E08BEF92E10E94031BD2014C
:1057E00054964D915C915597425E5F4F50966D91E6
:1057F0007C919BECA92E93E1B92E0FEF1FEF23E0D4
:105800008BEF92E10E94031BF201848995894E96E9
:10581000B201695A7F4FDB0111967C926E9213960A
:105820009C938E931297EA5AFF4F4081C2010E94C7
:10583000922B64E0C2010E94622010E03201B4E5C4
:105840006B0E711C2FE0D22E04E13CE0E32EF12C14
:1058500094E0910FF3018081181740F0C2010E947B
:10586000D92ACDB7DEB7E0E10C943EF1F2014489CC
:105870005589D99E400D511D1124C201019F800DF3
:10588000911D1124FC01E757FF4FD20150962D9135
:105890003C9131832083329651834083B0E41B9F37
:1058A000C00111249201280F391FF901E05EFC4F5D
:1058B000918280823296518340833296D183C08315
:1058C0003296F182E082835F9C4F840D951D0E9489
:1058D000D6D61F5FBDCF0E94922B0895A4E0B0E002
:1058E000E4E7FCE20C9420F17C01613009F4CEC0C5
:1058F000623009F0BBC0DC0116961C9180E01123D8
:1059000009F4B5C0113009F0B6C06701B7E5CB0E98
:10591000D11C5701EAE1AE0EB11C80E098EFD7012F
:105920009A969C938E93999794961C9361E0C501E7
:105930000E945AD5F6018785811102C01787168209
:10594000C6010E94B4DC55245394812C912C1B82F7
:105950003701F6E56F0E711C8FE9282E8DE1382E88
:10596000D3014C902114310419F0C7010E949F1DEE
:1059700000E010E020E030E0AE014F5F5F4FBE017D
:105980006E5F7F4F8DEC96E00E94E594B981BC83F9
:105990004A814423D1F0042E000C550B440D511DB7
:1059A00047FC5A95443051051CF044505109FACF38
:1059B00057FF03C04C5F5F4FF5CFF3014083B60143
:1059C000C7010E94922BF1E0FB8389ED96E00E94D3
:1059D00020968C01A0E0B0E088199909A109B109CD
:1059E000B7FF04C088519C4FAF4FBF4F81329340E7
:1059F000A105B1058CF081E05826D6011F968C9147
:105A00001F97581629F01F965C921F9716961C92A6
:105A1000C6010E94B4DC4801BC81BB2309F4A0CFBD
:105A200080EE9DEFF70192A781A781E084A361E05A
:105A3000C5010E945AD5D6011F968C911F978823C5
:105A400029F01F961C921F9716961C92C6010E9461
:105A5000B4DCBB81BB2351F0F701EB5AFF4FD301FC
:105A60004C91608183EB96E00E94499B81E02496F3
:105A7000E2E10C943CF16EEF610FF701ED5AFF4F3C
:105A80008081681BC7010E94742BF0CF0E947D2B80
:105A9000EDCFA0E0B0E0EFE4FDE20C9426F1EC01E4
:105AA00083E00E9412B4FC0184818A889B88FCE018
:105AB0008F9F800C911C11244C895D89688979899C
:105AC000F9E0AF2EF5E1BF2ECC24C394E12CF12CEC
:105AD00000EE1DEF23E08BEF92E10E94031B4C8947
