:100000000C94040B0C943B0B0C943B0B0C943B0B8F
:100010000C943B0B0C943B0B0C943B0B0C943B0B48
:100020000C943B0B0C943B0B0C943B0B0C943B0B38
:100030000C943B0B0C943B0B0C943B0B0C943B0B28
:100040000C943B0B0C943B0B0C943B0B0C943B0B18
:100050000C943B0B0C943B0B0C943B0B0C943B0B08
:100060000C943B0B0C943B0B0C943B0B0C943B0BF8
:100070000C943B0B0C943B0B0C943B0B00000000CE
:100080000000000000000000000000C0C0C0C0C0B0
:10009000C0C0C00000C0C0000000D8D8D8D8000040
:1000A0000000000000000000006666FFFF66666654
:1000B00066FFFF6666000000187EDB98D8781E1B7E
:1000C00019DB7E18000000E3A3E6060C1818306068
:1000D00067C5C700000078CCCCCCD8707BDFCCCE15
:1000E000FF73000000606060C000000000000000BE
:1000F00000000000183060C0C0C0C0C0C060301830
:10010000000000C060301818181818183060C000BF
:100110000000000018DBFF3C3CFFDB180000000083
:10012000000000181818FFFF181818000000000041
:1001300000000000000000000000606060C00000DF
:1001400000000000FFFF00000000000000000000B1
:100150000000000000000000C0C000000003030613
:10016000060C1818306060C0C00000007EFFC3C3DA
:10017000CBCBD3D3C3C3FF7E000000070F1F3B735D
:10018000030303030303030000007EFFC30303060E
:100190000C183060FFFF0000007EFFC303031E1E2B
:1001A0000303C3FF7E000000C3C3C3C3C3FFFF0339
:1001B00003030303000000FFFFC0C0C0FE7F030372
:1001C000C3FF7E0000007EFFC3C0C0FEFFC3C3C3E9
:1001D000FF7E000000FFFF0303070E1C181818180D
:1001E000180000007EFFC3C3C37E7EC3C3C3FF7E6F
:1001F0000000007EFFC3C3C3FF7F0303C3FF7E0075
:100200000000000000C0C00000C0C00000000000EE
:1002100000000000000060600000606060C000003E
:10022000000E1C3870E0E070381C0E00000000006A
:100230000000FFFF0000FFFF000000000000007052
:10024000381C0E07070E1C3870000000007EFFC32C
:1002500003060C1818000018180000003E7FE3CFBA
:10026000DFDBDBDFCEE17F3E0000007EFFC3C3C3E8
:10027000FFFFC3C3C3C3C3000000FEFFC3C3C3FE6D
:10028000FFC3C3C3FFFE0000007EFFC3C0C0C0C0E9
:10029000C0C0C3FF7E000000FEFFC3C3C3C3C3C30F
:1002A000C3C3FFFE000000FFFFC0C0C0FCFCC0C015
:1002B000C0FFFF000000FFFFC0C0C0FCFCC0C0C00A
:1002C000C0C00000007EFFC3C0C0CFCFC3C3C3FF08
:1002D0007E000000C3C3C3C3C3FFFFC3C3C3C3C304
:1002E000000000C0C0C0C0C0C0C0C0C0C0C0C0000E
:1002F0000000FEFE06060606060606C6FE7C000098
:1003000000C3C7CEDCF8F0F8FCCEC7C3C3000000C2
:10031000C0C0C0C0C0C0C0C0C0C0FFFF000000C39C
:10032000E7FFFFDBC3C3C3C3C3C3C3000000C3C332
:10033000E3F3FBDFCFC7C3C3C3C30000007EFFC32B
:10034000C3C3C3C3C3C3C3FF7E000000FEFFC3C358
:10035000C3FFFEC0C0C0C0C00000007EFFC3C3C357
:10036000C3C3C3C3C3FF7E070300FEFFC3C3C3FEF3
:10037000FEC3C3C3C3C30000007EFFC3C0C0FE7F73
:100380000303C3FF7E000000FFFF18181818181899
:1003900018181818000000C3C3C3C3C3C3C3C3C322
:1003A000C3FF7E000000C3C3C3C3C3C3C3C3E77E90
:1003B0003C18000000C3C3C3C3C3C3C3DBDBDBFF04
:1003C00066000000C3C366663C18183C6666C3C37B
:1003D000000000C3C366663C3C18181818181800C3
:1003E0000000FFFF03070E1C3870E0C0FFFF000095
:1003F00000F8F8C0C0C0C0C0C0C0C0F8F80000001D
:10040000C0C060603018180C06060303000000F836
:10041000F81818181818181818F8F8000000183CE0
:100420007EE7000000000000000000000000000067
:1004300000000000000000FFFF000000C0C060607E
:1004400000000000000000000000000000000000AC
:100450007EFEC6C6C6FE7E000000C0C0C0C0C0FC96
:10046000FEC6C6C6FEFC00000000000000007EFEC6
:10047000C0C0C0FE7E00000006060606067EFEC660
:10048000C6C6FE7E00000000000000007CFEC6FC28
:10049000C0FE7E0000003C7C606060F8F860606038
:1004A000606000000000000000007EFEC6C6C6FEC0
:1004B0007E06FE7CC0C0C0C0C0FCFEC6C6C6C6C6A6
:1004C0000000000000C0C000C0C0C0C0C0F070008C
:1004D000000000001818001818181818181818F834
:1004E00070C0C0C0C0CCD8F0F0D8CCC6C6000000E8
:1004F000C0C0C0C0C0C0C0C0C0C0F878000000000C
:10050000000000007CFED6D6C6C6C6000000000073
:100510000000007CFEC6C6C6C6C600000000000083
:1005200000007CFEC6C6C6FE7C0000000000000085
:1005300000FCFEC6C6C6FEFCC0C0C0000000000035
:100540007EFEC6C6C6FE7E0606060000000000D877
:10055000F8E0C0C0C0C000000000000000007CFE49
:10056000C07C06FE7C000000303030FCFC303030B7
:1005700030303E1E0000000000000000C6C6C6C6A7
:10058000C6FE7C0000000000000000C6C6C6C6EE25
:100590007C380000000000000000C6C6C6D6D6FEAB
:1005A0007C0000000000000000C6C67C387CC6C687
:1005B0000000000000000000C6C6C6C6C6FE7E06DB
:1005C000FE7C0000000000FEFE0C3860FEFE000015
:1005D000001C3C303030E0E03030303C1C0000008B
:1005E000C0C0C0C0C0C0C0C0C0C0C0C0000000E02B
:1005F000F03030301C1C303030F0E000000073FB75
:10060000DFCE00000000000000000000000000003D
:1006100000480000780C7CCCCC7600000000000084
:100620004800007CC6C6C6C67C000000000000482A
:100630000000CCCCCCCCCC760000000044001038BC
:100640006CC6C6FEC6C6C60000000044007CC6C616
:10065000C6C6C6C6C67C000000004400C6C6C6C6E4
:10066000C6C6C6C67C00000000000078CCCCF8CC22
:10067000CCCCF8C0C0C000183C7EFF181818181861
:100680001818180000000000133373FFFF733313B2
:1006900000000000000000C2C6CEFFFFCEC6C200B0
:1006A000000000000000C8CCCEFFFFCECCC8000088
:1006B0000000000000103070FFFF703010000000DC
:1006C00000000000080C0EFFFF0E0C0800000000E8
:1006D000000000000000000000000C0C0C0C000CDE
:1006E0000C00001B1B120000000000000A0A1F0A79
:1006F0001F0A0A0000040F140E051E040000191939
:10070000020408131300000814140815120D000049
:100710001818100000000000000810101010100839
:100720000000100808080808100000000A041F0450
:100730000A0000000004041F040400000000000080
:100740000000181810000000001F0000000000004A
:100750000000000018180000010102040810100039
:10076000000E11111111110E0000040C14040404E8
:100770001F00000E11010608101F00000E11010ECF
:1007800001110E00001111111F01010100001F10C5
:10079000101E01110E00000608101E11110E00009F
:1007A0001F01020408080800000E11110E11110E9D
:1007B00000000E11110F01020C00000018180018A3
:1007C0001800000000001818001818100002040893
:1007D00010080402000000001F001F0000000010AD
:1007E00008040204081000000E11010204000400B5
:1007F000000E11171517100E00000E11111F111108
:100800001100001E11111E11111E00000E111010FA
:1008100010110E00001E11111111111E00001F10E9
:10082000101E10101F00001F10101E1010100000CE
:100830000E11101711110F00001111111F111111BC
:1008400000001F04040404041F00001F0101010133
:10085000110E000011121C121111110000101010C5
:100860001010101F0000111B1511111111000011A3
:1008700019151311111100000E11111111110E0093
:10088000001E11111E10101000000E111111111177
:100890000E03001E11111E11111100000E11100E79
:1008A00001110E00001F04040404040400001111CF
:1008B000111111110E000011111111110A04000083
:1008C00011111111151B11000011110A040A111147
:1008D00000001111110A04040400001F01020408A1
:1008E000101F00001C10101010101C000010100829
:1008F0000402010100001C04040404041C000004A0
:100900000A110000000000000000000000001F00AD
:100910000010080000000000000000000D1311117D
:100920000F00001010161911111E000000000E110A
:1009300010110E000001010D1311110F0000000035
:100940000E111E100F00000304041F040404000015
:1009500000000D1311110F010E10101619111111B5
:1009600000001000101010100C000004000404041B
:1009700004040418101012141A11110000101010A1
:100980001010100C000000001A15151111000000C5
:10099000001E11111111000000000E1111110E00A6
:1009A000000000161911111E101000000D13111176
:1009B0000F010100001B0C080808000000000F10C8
:1009C0000E011E000004041F0404040300000000C4
:1009D000111111130D0000000011110A0A0400008A
:1009E00000001111151B1100000000110A040A116A
:1009F000000000001111110A06040800001F020483
:100A0000081F000006080810080806000004040477
:100A10000404040400000C02020102020C00000D98
:100A200016000000000000000A000E010F110F0068
:100A3000000A000E1111110E00000A001212121607
:100A40000A00000A0E111F11111100000A0E1111E7
:100A500011110E00000A11111111110E00000E11DA
:100A600011161111161010040E1F040404040000C6
:100A700000050D1F0D050000000012161F161200C4
:100A800000000014161F16140000000004081F08C0
:100A9000040000000004021F020400000000000027
:100AA000000000040404000400050000000000022F
:100AB00007020702000306020306000501020405FF
:100AC0000002050205030004000000000002040407
:100AD00004020004020202040002070707020000E9
:100AE00002070200000000000002040000070000EE
:100AF00000000000000400010102040400020505DA
:100B000005020002060202070006010204070006B1
:100B1000010201070005050701010007040601079E
:100B2000000304060507000701020202000705078B
:100B3000050700070503010600000400040000008B
:100B40000002000204010204020100000700070085
:100B50000004020102040006010200020006010373
:100B60000507000205070505000605060506000342
:100B7000040404030006050505060007040604072F
:100B80000007040604040003040505030005050727
:100B90000505000702020207000701010106000522
:100BA00005060505000404040407000507050505FE
:100BB00000050707050500020505050200060506F4
:100BC00004040002050505030006050605050003EB
:100BD00004070106000702020202000505050502DE
:100BE00000050505020200050505070500050502CB
:100BF00005050005050202020007010204070006C0
:100C000004040406000404020101000602020206B4
:100C100000020500000000000000000700040200C0
:100C200000000000000305030004040605060000A0
:100C30000003040300010103050300000007060789
:100C4000000102070202000000030503030404067A
:100C5000050500040004040400020002020204046A
:100C6000040506050004040404020000000707054B
:100C7000000000060505000000070507000000064B
:100C8000050604000003050301000005060400003A
:100C9000000302060002070202010000000505032E
:100CA0000000000505020000000507070000000520
:100CB000020500000005050302000007020700020C
:100CC0000204020200020202020200020201020207
:100CD00000060300000000000503050300000507EF
:100CE00005070000050505030005020507050005C9
:100CF00002050502000505050502000205060506B8
:100D000004020702020200000307030000000507B7
:100D100005000000060706000000040704000000AC
:100D200001070100000000000000000000040404AE
:100D300004000400000909000000000000060F067E
:100D4000060F06000002070E070E0400000D0D023C
:100D5000040B0B0000040A040B0A0500000808003D
:100D6000000000000004080808080400000804044B
:100D7000040408000009060F060900000000040E24
:100D80000400000000000000000404080000000E41
:100D9000000000000000000000080800000102023E
:100DA0000404080000060909090906000002060AF1
:100DB00002020200000E010204080F00000E0102F0
:100DC00001010E00000809090F010100000F080EC3
:100DD00001010E000006080E09090600000F0102BD
:100DE00004040400000609060909060000060907B4
:100DF00001010600000008080008080000000004C7
:100E00000400040408020408080402000000000FA3
:100E1000000F000000080402020408000006090296
:100E2000040004000006090B0D0A06000006090F65
:100E300009090900000E090A09090E00000708083F
:100E400008080700000E090909090E00000F080E26
:100E500008080F00000F080E080808000007080B1C
:100E6000090907000009090F09090900000E040417
:100E700004040E000007010101110E0000090A0C14
:100E80000A0909000008080808080F0000090F09EE
:100E90000909090000090D0B0909090000060909E3
:100EA00009090600000E090E0808080000060909D5
:100EB00009090603000E090E0909090000070806C2
:100EC00001010E00000E04040404040000090909D5
:100ED00009090600000909090906060000090909AF
:100EE000090F090000090906060909000009090A95
:100EF00004040400000F010204080F00000E08089B
:100F000008080E000008040402020100000E02029C
:100F100002020E0000040A000000000000000000B1
:100F200000000F000008040000000000000000079F
:100F3000090907000008080E09090E000000000753
:100F40000808070000010107090907000000000761
:100F50000F0807000003040E04040400000000074B
:100F6000090907010608080E090909000008000818
:100F70000808040000040004040404040808080A23
:100F80000C0A09000008080808080600000000090B
:100F90000F0909000000000E090909000000000601
:100FA000090906000000000609090E0808000007EC
:100FB000090907010100000A0C08080000000007E9
:100FC0000E010E000000040E0404030000000009DE
:100FD00009090700000000090906060000000009D1
:100FE000090F0900000000090606090000000009B9
:100FF000090906020400000F02040F0000030206A4
:1010000002020300000404040404040000060203B6
:1010100002020600000D0B0000000000000A000E96
:10102000010F110F000A000E1111110E000A00121B
:101030001212160A000A0E111F111111000A0E11C8
:101040001111110E000A11111111110E000C1212C2
:101050001C12121C10040E1F040404040000050DD1
:101060001F0D0500000012161F16120000001416B6
:101070001F161400000004081F08040000000402EA
:101080001F0204000000000000000000000000003B
:10109000000030303030303000003030000000369A
:1010A00036363600000000000000000012123F1229
:1010B0001212123F12120000000C1E2D2C1C0E0DDD
:1010C0002D1E0C0000003B2B3E060C0C181F353764
:1010D0000000001C3E36361C3F37363F1B00000028
:1010E00018183000000000000000000000060C1876
:1010F00030303030180C0600000030180C060606A0
:10110000060C1830000000000C2D3F1E3F2D0C0077
:101110000000000000000C0C3F3F0C0C0000000021
:10112000000000000000000000001818300000005F
:1011300000003F3F00000000000000000000000031
:101140000000003030000000030306060C0C1818E5
:1011500030300000001E3F3333373B33333F1E0037
:101160000000070F1F3B0303030303030000001EDF
:101170003F330303060C183F3F0000001E3F3303BC
:101180000E0E03333F1E000000333333333F3F0363
:101190000303030000003F3F30303E1F03333F1E78
:1011A0000000001E3F33303E3F33333F1E0000003F
:1011B0003F3F030306060C0C0C0C0000001E3F33DF
:1011C000331E1E33333F1E0000001E3F33333F1FCC
:1011D00003333F1E000000000000303000003030BC
:1011E000000000000000000018180000181830006F
:1011F0000000070E1C38381C0E070000000000001D
:10120000FFFF0000FFFF000000000000381C0E0779
:10121000070E1C38000000001E3F3303060C0C00B4
:101220000C0C0000001E3F3337373737303F1E00AD
:1012300000001E3F33333F3F333333330000003E63
:101240003F33333E3F33333F3E0000001E3F3330D9
:10125000303030333F1E0000003E3F3333333333F2
:10126000333F3E0000003F3F30303C3C30303F3F9A
:101270000000003F3F30303C3C3030303000000058
:101280001E3F3330373733333F1E000000333333D4
:10129000333F3F33333333000000303030303030B1
:1012A000303030300000003E3E0606060606363E70
:1012B0001C0000003333373E3C3E373333330000ED
:1012C0000030303030303030303F3F000000333FAE
:1012D0003F3F33333333333300000033333B3F3F3F
:1012E00037333333330000001E3F3333333333336C
:1012F0003F1E0000003E3F33333F3E303030300071
:1013000000001E3F3333333333333F1E0700003EAC
:101310003F33333E3F333333330000001E3F33301F
:101320003E1F03333F1E0000003F3F0C0C0C0C0C13
:101330000C0C0C00000033333333333333333F1E94
:10134000000000333333333333333F1E0C000000CF
:10135000333333333333333F3F12000000333333FF
:101360001E0C0C1E3333330000003333331E1E0CAF
:101370000C0C0C0C0000003F3F03070E1C38303FE4
:101380003F0000003E3E3030303030303E3E000006
:1013900000303018180C0C060603030000003E3E17
:1013A0000606060606063E3E0000000C1E33000040
:1013B000000000000000000100000000000000002C
:1013C0003F3F00000030301818000000000000000F
:1013D0000000000000001F3F33333F1F00000030BB
:1013E0003030303E3F33333F3E000000000000000D
:1013F0001F3F30303F1F000000030303031F3F3334
:10140000333F1F000000000000001E333E303F1F2E
:101410000000000F1F18183E3E1818181800000092
:10142000000000001F3F33333F1F033F1E303030AA
:10143000303E3F3333333300000000303000303073
:1014400030303C1C000000000606000606060606BA
:1014500006063E1C303030333E3C3633333300001A
:101460000030303030303030303C1C0000000000A4
:1014700000001A3F37333333000000000000001E25
:101480003F33333333000000000000001E3F33338E
:101490003F1E000000000000003E3F33333F3E305F
:1014A0003030000000001F3F33333F1F03030300B1
:1014B000000000363E3830303000000000000000F0
:1014C0001E3F30033F1E0000000C0C3F3F0C0C0C75
:1014D0000C0F0700000000000000333333333F1EC1
:1014E000000000000000003333333F1E0C000000FA
:1014F00000000000333333373F1E000000000000BF
:101500000033330C1E33330000000000000033337F
:1015100033333F1F033F1E000000003F3F06183FCC
:101520003F000000070F0C0C38380C0C0F070000B0
:101530000018181818181818181818000000383C47
:101540000C0C07070C0C3C3800000019392726004A
:10155000000000000000000000003333001F3F3394
:10156000333F1F000000003333001E3F33333F1E64
:1015700000000000333300333333333F1E000000DC
:101580002200081C36637F63636300000022003E74
:101590006363636363633E0000002200636363630D
:1015A0006363633E000000001E33333E3333333E3B
:1015B000303030000C1E3F0C0C0C0C0C0C0C0000DE
:1015C00000000009193F3F19090000000000000059
:1015D00022263F3F26220000000000000024263F74
:1015E0003F26240000000000000008183F3F1808B4
:1015F0000000000000000004063F3F060400000059
:101600000000D822F522EE2211241FBECFEFD0E138
:10161000DEBFCDBF84B78093CF0114BE0FB6F89460
:10162000A8958091600088618093600010926000AE
:101630000FBE11E0A0E0B1E0ECE3F2E502C00590DE
:101640000D92A639B107D9F721E0A6E9B1E001C0B2
:101650001D92AF3CB207E1F71BE0C3E0DBE004C042
:101660002197FE010E947625C130D107C9F70E945B
:10167000C9220C9409290C940000CF93DF93EC014C
:101680001D861E861F868EE091E099838883CE0199
:1016900042960E940A0F82E791E09B8B8A8BDF9132
:1016A000CF9108958F929F92AF92BF92CF92EF9277
:1016B000FF920F931F93CF93DF93812C912CC0E265
:1016C000D0E084010C2B1D2B80E0A82E81E0B82EE9
:1016D000CC24C394E12CF12C24E044E650E068E7EC
:1016E00070E088EA91E00E94A810C05CDF4F8FEFA5
:1016F000881A87EF980AC03288E0D80711F7DF917F
:10170000CF911F910F91FF90EF90CF90BF90AF902E
:101710009F908F900895A6E0B0E0E1E9FBE00C9483
:101720007C2522E030E03C832B8390E4892E912CB1
:1017300066246394712C36E9A32EB12C44244A9478
:10174000542C5FE0C52ED12C6EEF262E33243A9414
:1017500088E190E09E838D8388EA91E00E943D0FAE
:1017600002972D813E818217930711F0232B19F4E4
:1017700031942194310888EA91E00E94470F019743
:101780008C159D0519F0C114D10419F4519441949C
:10179000510888EA91E00E943D0F01978A159B0548
:1017A00019F0A114B10419F471946194710888EAD4
:1017B00091E00E94470F02978815990519F081144E
:1017C000910439F48B819C819195819591099C8339
:1017D0008B832D813E81220D331D3E832D83C40CCE
:1017E000D51CA60CB71C8B819C81880E991E760196
:1017F000EE0CFF1CE294F29480EFF822FE24E82223
:10180000FE2490EEE92297E0F922220F220F220F08
:101810002A83198229813A81E22AF32AC5018F712C
:101820009927E82AF92A84019501A6016D817E8114
:1018300088EA91E00E9404108FCFAAE1B0E0E3E2D1
:10184000FCE00C947C259C012E5E3F4F388F2F8B43
:101850001E8A1D8AAD89BE89CD01A0E0B0E08983D2
:101860009A83AB83BC83BC01CD010E941F24E62F69
:101870002CEB3BEB4BEB5FE3E9837A838B839C831D
:1018800069817A818B819C810E94B224E62F20E0BD
:1018900030E040EA53E4E9837A838B839C83698157
:1018A0007A818B819C810E94AD23E62F20E336E96B
:1018B0004CEB5FE3E9837A838B839C8369817A8134
:1018C0008B819C810E9440236F87788B898B9A8BB8
:1018D0001C8A1B8AAB89BC89CD01A0E0B0E089835A
:1018E0009A83AB83BC83BC01CD010E941F242DECE5
:1018F0003CEC4CE85FE369837A838B839C8369814A
:101900007A818B819C810E94B22420E030E040E704
:1019100053E469837A838B839C8369817A818B8189
:101920009C810E94AD232DEC3CEC4CEC5EE3698382
:101930007A838B839C8369817A818B819C810E94CD
:1019400040231B018D879E878B01898F4F84588888
:1019500069887A881D821E821F82188619861A86D7
:101960001B861C86832D322CB98DBA8F998F282E19
:1019700077C09401A501C982DA82EB82FC82698179
:101980007A818B819C810E944023BF85A889F98937
:10199000EA892B2F3A2F4F2F5E2F69837A838B830F
:1019A0009C8369817A818B819C810E9441236B0198
:1019B0007C01742D652D962D872D242D352D462DDA
:1019C000572DDB01FC01B983AA83FB83EC8369817A
:1019D0007A818B819C810E944123FA8DE98D202F91
:1019E000312F4F2F5E2F69837A838B839C8369818C
:1019F0007A818B819C810E94B224D101FD85EE8584
:101A00002B2F322D4F2F5E2F69837A838B839C83FC
:101A100069817A818B819C810E9441238B018A8F0D
:101A2000998F2D813E814F81588569857A858B8577
:101A30009C85A1E00E94B3252D833E834F83588768
:101A400069877A878B879C8721153140410551052D
:101A5000610571058105910509F46DC02601370105
:101A6000242D352D462D572D49825A826B827C823A
:101A700069817A818B819C810E94B2246B017C01F7
:101A80009A8D898D202F312F492F582F09831A8342
:101A90009B838C8369817A818B819C810E94B22493
:101AA0004B015C019B01AC01C982DA82EB82FC82B2
:101AB00069817A818B819C810E94412320E030E002
:101AC00040E851E469837A838B839C8369817A81BE
:101AD0008B819C810E94AD2487FD4BCF8D819E819F
:101AE0009C01322F2227330F330F330F22273873F5
:101AF0008F719927282B392B4B895C896D897E89B9
:101B00008F89988D0E948A0F2B893C892F5F3F4FC8
:101B10003C8B2B8B203F310509F0DCCE8D899E89D3
:101B200001969E8B8D8B8034914009F093CE6A96FE
:101B3000E2E10C94982520E030E0DECFEC018AB1A0
:101B4000806C8AB95E9A5F9878948E010E5E1F4F02
:101B5000C8010E94F0155F9A62E0C8010E94AA15B0
:101B600084E090E09093C5008093C4001092C00080
:101B700088E18093C10086E08093C200198B088BB6
:101B800085E090E00E94CB0D5E98CE010E94520B42
:101B9000CE010E94271A9C01892B59F08FEF98E003
:101BA0000197F1F700C000002150310921153105DE
:101BB000A9F70895982F81E0911180E00895F89495
:101BC00088E19EE00FB6F894A895809360000FBE60
:101BD00090936000FFCF80E090E00895089508950D
:101BE0000895853058F490E09C01220F331F820F36
:101BF000931F880F991F8F549E4F08958CE090E09B
:101C00008F549E4F0895FC018CE790E09183808370
:101C100088E082838FE0838389E0848380E1858309
:101C20000895FC0181ED96E09183808385E08283B5
:101C300089E0838386E084838AE085830895FC01BC
:101C40008DE99AE09183808383E0828386E08383B9
:101C500084E0848387E085830895FC0185E29DE02C
:101C60009183808395E0928388E083839483858346
:101C70000895FC0185E890E19183808386E082836A
:101C80008DE0838387E084838EE0858308950895C3
:101C900062E070E00E94EF0D0895A4E1B0E0E3E59A
:101CA000FEE00C947C251C015B014A01E986FA8662
:101CB000041B150BC901861B970BD101ED90FC90FD
:101CC0002617370709F497C00115110509F482C0DA
:101CD000680117FF04C0CC24DD24C01AD10A9C017E
:101CE00097FF04C022273327281B390BC216D306BF
:101CF00008F469012601612C712C9C01990F440B99
:101D0000550B2F87388B498B5A8BC801110FAA0BA3
:101D1000BB0B8B879C87AD87BE8719821A821B827B
:101D20001C821D821E821F8218861C8A1B8A03C089
:101D3000D101ED90FC9069817A818B819C81A30116
:101D400092010E9457258401020F131F6D817E812D
:101D50008F819885A30192010E945725B501620FDA
:101D6000731FD7011496ED91FC9129853A85A8013E
:101D7000C10109958B899C898C010F5F1F4F1C8BBA
:101D80000B8B2D813E814F815885EF84F88809891E
:101D90001A892E0D3F1D401F511F2D833E834F83F7
:101DA000588729813A814B815C81EB84FC840D85C5
:101DB0001E852E0D3F1D401F511F29833A834B83E3
:101DC0005C83C816D90609F0B3CF6496E2E10C949F
:101DD000982520C0D7011696ED91FC91C12CE9847D
:101DE000FA8401E010E09C01C10109956496E2E1EA
:101DF0000C9498250FC0D7011696ED91FC91C12C3B
:101E0000E984FA8421E030E0C10109956496E2E1B9
:101E10000C949825FC018EE191E09183808384E607
:101E2000878310860895FC018EE191E09183808381
:101E3000CF010E94470E0895CF93DF93EC018EE10E
:101E400091E099838883CE010E94470E69E070E09B
:101E5000CE010E94EF0DDF91CF910895FC017383B5
:101E60006283558344830895FC0167830895FC01D0
:101E700060870895FC0166830895FC01868181FFD7
:101E800003C0848195810895828193810895FC0126
:101E9000868181FF03C08281938108958481958129
:101EA0000895FC0187810895FC0180850895FC0157
:101EB00086810895CF92EF92FF920F931F93DC01DA
:101EC0007B01ED91FC9111970680F781E02D129630
:101ED0009C91129713968C91139714962C911497AA
:101EE00015963C91159716964C911697092F182F19
:101EF00041FD03C08901292F382FC12C40E050E05B
:101F000060E070E0CD0109951F910F91FF90EF9077
:101F1000CF900895DC01ED91FC910480F581E02DD6
:101F200009950895A0E0B0E0E8E9FFE00C9486256B
:101F3000EC018B017A01690161507109E881F98135
:101F40000480F581E02D0995A70141505109E881F0
:101F5000F9810480F581E02D9601B801CE01099543
:101F6000E881F9810480F581E02D9601A701B8018F
:101F7000CE010995A7014F5F5F4FE881F981048089
:101F8000F581E02D9601B801CE010995B8016F5F8A
:101F90007F4FE881F9810480F581E02D9601A7014A
:101FA000CE010995CDB7DEB7E8E00C94A225CF921B
:101FB000EF92FF920F931F93DC017801ED91FC915A
:101FC0000680F781E02DC12C890121E030E00995E0
:101FD0001F910F91FF90EF90CF900895CF92EF92C5
:101FE000FF920F931F93DC017801ED91FC91068025
:101FF000F781E02DC12C01E010E009951F910F91B0
:10200000FF90EF90CF900895EF92FF920F931F9360
:10201000DC01ED91FC910284F385E02D09951F917F
:102020000F91FF90EF900895CF92EF92FF920F9350
:102030001F93DC01ED91FC910680F781E02D09955D
:102040001F910F91FF90EF90CF900895A7E0B0E01F
:10205000ECE2F0E10C947C258E839F834B015A01C6
:1020600019013801E982DF2C280181E0481A510862
:10207000440E551EAE81BF81ED91FC910680F78123
:10208000E02DC0FE4FC0C12C01E010E0C901029755
:102090009B838A839C01DB011196BD83AC83BD01C8
:1020A0008E819F810995AE81BF81ED91FC91119741
:1020B0000680F781E02DE9802A813B81A2016C81B5
:1020C0007D81CD010995B2E06B1A71088FEFA81AD6
:1020D000B80AAE81BF81ED91FC9111970680F7811E
:1020E000E02DC12CE980FD2C830121E030E0A50129
:1020F000B401CD010995B10161507109680D791DD7
:10210000AE81BF81ED91FC9111970680F781E02DA2
:10211000E98021E030E0A501CD0109952796E2E1B3
:102120000C949825C12CE98001E010E08E819F81FC
:102130000995AE81BF81ED91FC9111970680F781E1
:10214000E02DE9809101A201B401CD010995BBCF39
:10215000AF92BF92CF92EF92FF920F931F93DC0149
:10216000ED91FC910084F185E02D09951F910F916F
:10217000FF90EF90CF90BF90AF900895AF92BF9235
:10218000CF92EF92FF920F931F93CF93DF93CDB730
:10219000DEB7EC970FB6F894DEBF0FBECDBF9E0141
:1021A0002A5A3F4F66964EAD5FAD66976CE370E07E
:1021B000CE0101960E9404262A96AEADBFAD2A97A5
:1021C000ED91FC9111970084F185E02DCE010196EF
:1021D0005C016496CFAC64976396EEACFFAC6397FA
:1021E00061960EAD1FAD61972F962FAD2F972E964E
:1021F0004EAD5FAD2E972C966EAD7FAD2C97CD0179
:102200000995EC960FB6F894DEBF0FBECDBFDF91F7
:10221000CF911F910F91FF90EF90CF90BF90AF9013
:102220000895ACE3B0E0E7E1F1E10C947C253C01DA
:10223000562ED72E342E452E222EA501D4012D91B7
:102240003C916CE370E0CE0101960E940426D3011C
:10225000ED91FC910084F185E02DCE0101965C01A9
:10226000222D432D542D652D7D2DC3010995EC960E
:10227000E2E10C949825ACE3B0E0E1E4F1E10C94E8
:102280007E254C01762ED72E542E652E422EB5017A
:102290004CE350E0CE0101960E94F525D401ED916A
:1022A000FC910084F185E02DCE0101965C01242D86
:1022B000452D562D672D7D2DC4010995EC96E0E145
:1022C0000C949A25AF92BF92CF92EF92FF920F9308
:1022D0001F93CF93DF93CDB7DEB7EC970FB6F8948B
:1022E000DEBF0FBECDBF9E012A5A3F4F66964EAD50
:1022F0005FAD66976CE370E0CE0101960E943426D4
:102300002A96AEADBFAD2A97ED91FC91119700844E
:10231000F185E02DCE0101965C016496CFAC649707
:102320006396EEACFFAC639761960EAD1FAD6197FF
:102330002F962FAD2F972E964EAD5FAD2E972C96E4
:102340006EAD7FAD2C97CD010995EC960FB6F89444
:10235000DEBF0FBECDBFDF91CF911F910F91FF90D8
:10236000EF90CF90BF90AF900895ACE3B0E0EBEB6F
:10237000F1E10C947C253C01562ED72E342E452EAF
:10238000222EA501D4012D913C916CE370E0CE0189
:1023900001960E943426D301ED91FC910084F185D1
:1023A000E02DCE0101965C01222D432D542D652D8B
:1023B0007D2DC3010995EC96E2E10C9498250895D2
:1023C000A7E1B0E0E6EEF1E10C947C258E8B9F8BCB
:1023D0006F8378874B8B5C8B822F0B831C83E98206
:1023E000FA8285010E94F10D8D839E83AD81BE81AD
:1023F00012969C90129713969C9113971496FC90AA
:10240000149715968C90782C791AF5018081882381
:1024100009F4F7C0292F30E0388B2F87D5011196AA
:10242000BC87AB871E861D86E82DF0E0FA8BE98B12
:102430002F2D30E03A872987292C312C3C2D317003
:102440003D8BDF2C572C30EE432E480E8BE6841547
:1024500008F4B7C0842D90E0AF85B889A89F7001BB
:10246000A99FF00CB89FF00C11248E899F890E94BF
:102470003D0FEF81F885E817F90708F04AC0AE89EB
:10248000BF89ED91FC9111970288F389E02D0989AC
:102490001A8929853A854B895C896F817885CD01B8
:1024A0000995882009F496C000E0C12C0515B8F5FF
:1024B000DD2081F010E0AE89BF89ED91FC9111978C
:1024C0000488F589E02D69817A81CD0109951F5F26
:1024D000D112F1CF0F5F8012E9CFAE89BF89ED91A4
:1024E000FC910688F789E02DB1E1EF3DFB0709F08B
:1024F0006DC0442009F456C0ED89EE2309F452C0A2
:10250000C1106AC0EB85FC858191FC87EB87811146
:102510009ACF8D859E856796E2E10C9498253701C8
:10252000BFEF6B1A7B0AAD81BE81ED91FC91EE0D80
:10253000FF1DE491CE2ADD2081F15101B1E0AB1AFB
:10254000B10810E0EE2EF12C13C0C7010A2C02C016
:10255000959587950A94E2F780FF14C06B817C8182
:10256000CD0109951F5FB1E0AB1AB108D116A9F0F2
:10257000AE89BF89ED91FC9111970488F589E02D12
:10258000191518F369817A818E899F8909951F5FD2
:10259000B1E0AB1AB108D112EBCF73010F5F80121B
:1025A00085CF9BCF2D853E8589859A85280F391F3C
:1025B0003E872D87AF81B885A80FB91FB887AF8335
:1025C000A1CF8FE190E02FE1422E46CF8E899F89E7
:1025D00009958FCFC12C81CF8D2DC0FC15C08150A6
:1025E000C694C0FEFCCF90E0AD85BE85A80FB91F94
:1025F000BE87AD87EF81F885E80FF91FF887EF8375
:1026000081CF1E861D8685CFED85FE8529853A857D
:10261000E20FF31FFE87ED878F819885820F931F4E
:1026200098878F836FCF8F929F92AF92BF92CF92F6
:10263000EF92FF920F931F93CF93DF93EC01CB01A7
:10264000DA015901A8012115310569F101151105BA
:1026500051F1E881F98137FD32C0480117FD3DC0D5
:102660000288F389E02DAD01CE0109958501E8814D
:10267000F9810488F589E02DB701CE010995015053
:1026800011090115110599F781E0881A9108811443
:10269000910461F7E881F9810688F789E02D81E1ED
:1026A000EF3DF80731F5DF91CF911F910F91FF902A
:1026B000EF90CF90BF90AF909F908F90089522277A
:1026C00033272A193B09B501680F791F0680F78166
:1026D000E02DAD01CE010995E6CF00271127041B9F
:1026E000150B4A0F5B1F0680F781E02DCE0109957F
:1026F000DACFCE010995D7CFEF92FF920F931F93B8
:10270000CF93DF93EC017901E881F9810288F389A5
:10271000E02D01E010E021E030E00995E881F98149
:102720000488F589E02DB701CE010995E881F9818A
:102730000688F789E02D81E1EF3DF80731F4CDB748
:10274000DEB7E6E00C94A42507C0CE010995CDB70D
:10275000DEB7E6E00C94A425FC0184E391E09183CC
:102760008083CF010E94130F0895CF93DF93EC0174
:1027700084E391E099838883CE010E94130F69E07E
:1027800070E0CE010E94EF0DDF91CF910895DC0142
:10279000ED91FC91028CF38DE02D09950895DC01FB
:1027A000ED91FC91008CF18DE02D60E0099508958C
:1027B0000F931F93CF93DF93EC018A01E881F98196
:1027C000008CF18DE02D0995E881F981028CF38D63
:1027D000E02DB801CE010995DF91CF911F910F91A6
:1027E00008950E94340F0895CF93C62F0E94370F8B
:1027F000CC2319F05D98CF9108955D9ACF910895FB
:10280000A0E0B0E0E6E0F4E10C948025EC017B016F
:102810004A01590168010E94570F9401200F311F8E
:1028200081FF1DC082FDB4C0EA0CFB1C40E451E0F6
:102830004E195F0991E0A91AB108A40EB51E83FDD7
:10284000D5C080EF90E07C01E21AF30A21E0C21AC1
:10285000D108CE0CDF1C850136014A010CC0AE0C3C
:10286000BF1C650181E0C81AD108590191E0A91A7D
:10287000B10884013701A881B9815C96ED91FC9182
:102880005D9723E1E83DF20709F0ABC05896ED9162
:10289000FC9165E3CE010995E881F981028CF38D05
:1028A000E02DB401CE010995A881B9815C96ED9126
:1028B000FC915D9783E1E83DF80709F08DC05896DB
:1028C000ED91FC9166E3CE010995E881F981028CD6
:1028D000F38DE02DB501CE010995A881B9815C96F3
:1028E000ED91FC915D97FE2CEE24EC28FD2893E100
:1028F000E83DF90709F06BC05896ED91FC9167E34C
:10290000CE010995E881F981028CF38DE02DB701A4
:10291000CE010995A881B9815C96ED91FC915D97F6
:1029200023E1E83DF20709F04DC05896ED91FC9186
:1029300060E2CE010995E881F981028CF38DE02DEA
:10294000B301CE010995A881B9815C96ED91FC9106
:102950005D9783E1E83DF80781F55896ED91FC918C
:1029600061E2CE010995E881F981028CF38DE02DB9
:10297000B801CE010995E881F981008CF18DE02D37
:1029800062E2CE010995CDB7DEB7EEE00C949C254E
:1029900091E0A91AB108AE0CBF1C83FD30C080EFD6
:1029A00090E0821B930B21E0C21AD108C80ED91EF9
:1029B0008701360147017C015ECFA80161E2CE01AB
:1029C0000995D9CFA30160E2CE010995BCCFA7013B
:1029D00067E3CE0109959ECFA50166E3CE01099577
:1029E0007CCFA40165E3CE0109955ECF690191E03A
:1029F000C91AD1088501340174014A013CCF69012B
:102A000081E0C81AD108870134017401480133CF2D
:102A1000FC0180E591E091838083CF010E94AC139B
:102A20000895CF93DF93EC0180E591E0998388834B
:102A3000CE010E94AC1369E070E0CE010E94EF0D60
:102A4000DF91CF910895CF93DF93EC010E94570F50
:102A500080FD20C0A881B9815C96ED91FC915D97C5
:102A6000982F947083FF19C0992381F183E1E83D89
:102A7000F80709F069C05896ED91FC9163E0CE012A
:102A80000995E881F981028CF38DE02D61E370E016
:102A9000CE010995DF91CF910895992369F183E1E2
:102AA000E83DF80709F044C05896ED91FC9163E0C9
:102AB000CE010995E881F981028CF38DE02D61E268
:102AC00070E0CE010995DF91CF91089583E1E83D53
:102AD000F80741F55896ED91FC9163E0CE01099518
:102AE000E881F981028CF38DE02D61E170E0CE0187
:102AF0000995DF91CF91089583E1E83DF807F1F45E
:102B00005896ED91FC9163E0CE010995E881F98139
:102B1000028CF38DE02D61E070E0CE010995DF912C
:102B2000CF91089541E150E063E0CE010995B2CF25
:102B300041E250E063E0CE010995ACCF41E050E0C6
:102B400063E0CE010995A6CF41E350E063E0CE01FA
:102B50000995A0CFCF93DF93D82FC92F0E943A0FAA
:102B60008D2F9C2F0E942315DF91CF9108952998D6
:102B70000895299A08952A982F98299862B95A9AFF
:102B80005A98299A08952A9A2F98299872B95A9A88
:102B90005A9862B95A9A5A98299A089572B95A9AC3
:102BA0005A9862B95A9A5A980895FC0182E791E0BE
:102BB00091838083CF010E9408150895CF93DF93FE
:102BC000EC0182E791E099838883CE010E94081589
:102BD00069E070E0CE010E94EF0DDF91CF91089582
:102BE000CF93DF93EC015D9840E451E060EF70E03B
:102BF0000E942E0F62E0CE010E943A0F8AB18C63D0
:102C00008AB984B1876884B981B18FEF81B997B1EE
:102C100087B95B985C9A5A9A299828988BE490E037
:102C20000E94CB0D289A8BE490E00E94CB0D299A4C
:102C3000E881F981008CF18DE02D64E2CE010995E7
:102C4000E881F981048CF58DE02D40E050E065E0ED
:102C5000CE010995CE010E94231560E070E0CE01FF
:102C60000E945A0FE881F981048CF58DE02D48E22D
:102C700050E068E1CE010995E881F981048CF58D79
:102C8000E02D42E050E062E1CE010995E881F98152
:102C9000048CF58DE02D42E150E068EFCE010995FE
:102CA000E881F981048CF58DE02D42E150E069EF77
:102CB000CE010995E881F981048CF58DE02D40E085
:102CC00050E060E1CE010995E881F981048CF58D31
:102CD000E02D40E150E064EFCE0109958CE890E0F2
:102CE0000E94CB0DE881F981048CF58DE02D41E047
:102CF00050E065E0CE01099584EF91E00E94CB0D94
:102D00005D9ADF91CF9108950F931F930E94001455
:102D10002A9A2F9829981F910F910895299A0E9415
:102D2000CF1308956F927F928F929F92AF92BF922E
:102D3000CF92EF92FF920F931F93CF93DF934C01AB
:102D40003B01CA015901A801F401A081B18137FDFD
:102D500042C0EA0157FD53C05296ED91FC918A01A1
:102D60009501AC0166E1E438F60709F05DC0B301F6
:102D7000C4010E9400142A9A2F9829982A9A2F9801
:102D80002998C501F2B85A9A5A98E2B85A9A5A98AC
:102D900001970097B9F72197209799F7299AD401BD
:102DA000ED91FC910688F789E02DB6E1EE38FB073E
:102DB000C1F5299AC4010E94CF13DF91CF911F91D1
:102DC0000F91FF90EF90CF90BF90AF909F908F901A
:102DD0007F906F9008951696ED91FC91179722279A
:102DE00033272A193B096A0C7B1C67E1E432F6079A
:102DF000F9F45901012B09F3EA0157FFADCF1696FB
:102E0000ED91FC9117975195419551098C0F9D1F9C
:102E100027E1E432F20789F4A114B10409F099CF53
:102E2000CCCFC4010995C9CFB301C4010995A6CF80
:102E3000AC01B301C4010995C0CF8A019501AC0171
:102E4000B301C4010995B9CFCF92EF92FF920F93CE
:102E50001F93F901309731F00115110519F09F0109
:102E60000E9492161F910F91FF90EF90CF900895BE
:102E7000089562E170E00E94EF0D0895ACE0B0E0CB
:102E8000E4E4F7E10C947C254C01DC011D960C91E7
:102E900010E09AE0E92EF12CF40126852A3099F40D
:102EA0001AC03091C600C801820F911DB7010E945F
:102EB0004325F401E80FF91F33832F5FD4011E96D9
:102EC0002C932A3041F08091C00087FDEACF222365
:102ED00019F3215001C029E0F401E00FF11FE38054
:102EE000F4012687C80101966AE070E00E9443253C
:102EF00085878091C00085FFFCCFE092C600F12C51
:102F0000FE2CEE24D4011D960C9110E08AE0682E70
:102F1000712CF40126852A3099F41AC03091C6002C
:102F2000C801820F911DB3010E944325F401E80FEF
:102F3000F91F33832F5FD4011E962C932A3041F062
:102F40008091C00087FDEACF222319F3215001C0F0
:102F500029E0F401E00FF11F3381F4012687C80155
:102F600001966AE070E00E94432585878091C00049
:102F700085FFFCCF3093C6001701232AD4011D968C
:102F80000C9110E0BAE0EB2EF12CF40126852A30EA
:102F900099F41AC03091C600C801820F911DB70183
:102FA0000E944325F401E80FF91F33832F5FD401FA
:102FB0001E962C932A3041F08091C00087FDEACF05
:102FC000222319F3215001C029E0F401E00FF11F81
:102FD000E380F4012687C80101966AE070E00E9450
:102FE000432585878091C00085FFFCCFE092C60015
:102FF000F12CFE2CEE24D4011D960C9110E0AAE0D9
:103000006A2E712CF40126852A3099F41AC0309169
:10301000C600C801820F911DB3010E944325F4012F
:10302000E80FF91F33832F5FD4011E962C932A30AB
:1030300041F08091C00087FDEACF222319F321508F
:1030400001C029E0F401E00FF11F3381F40126876C
:10305000C80101966AE070E00E944325858780914F
:10306000C00085FFFCCF3093C600C701832B9C872F
:103070008B87D4011D960C9110E0EAE0EE2EF12C26
:10308000F40126852A3099F41AC03091C600C8018F
:10309000820F911DB7010E944325F401E80FF91F2B
:1030A00033832F5FD4011E962C932A3041F08091F8
:1030B000C00087FDEACF222319F3215001C029E087
:1030C000F401E00FF11FB381BE83F4012687C8012C
:1030D00001966AE070E00E94432585878091C000D8
:1030E00085FFFCCFFE81F093C600D4011D960C91A4
:1030F00010E07AE0E72EF12CF40126852A3099F4CD
:103100001AC03091C600C801820F911DB7010E94FC
:103110004325F401E80FF91F33832F5FD4011E9676
:103120002C932A3041F08091C00087FDEACF222302
:1031300019F3215001C029E0F401E00FF11F3381A0
:10314000F4012687C80101966AE070E00E944325D9
:1031500085878091C00085FFFCCF3093C600032F88
:1031600010E0102F0027D4011D96EC91F0E06AE0EA
:10317000E62EF12CD4011E962C912A30A1F41BC00E
:103180003091C600CF01820F911DB7010E944325E7
:10319000D401A80FB91F13963C932F5FD4011E963C
:1031A0002C932A3041F08091C00087FDE9CF222383
:1031B00009F3215001C029E0D401AE0FBF1F1396BF
:1031C0003C91D4011E962C93CF0101966AE070E0E9
:1031D0000E944325F40185878091C00085FFFCCFC4
:1031E0003093C600C801832B9A878987D4011D9626
:1031F0000C9110E04AE0E42EF12CF40126852A30EF
:1032000099F41AC03091C600C801820F911DB70110
:103210000E944325F401E80FF91F33832F5FD40187
:103220001E962C932A3041F08091C00087FDEACF92
:10323000222319F3215001C029E0F401E00FF11F0E
:103240003381F4012687C80101966AE070E00E948C
:10325000432585878091C00085FFFCCF3093C60051
:10326000032F10E0102F0027D4011D96EC91F0E001
:103270003AE0E32EF12CD4011E962C912A30A1F4D1
:103280001BC03091C600CF01820F911DB7010E9473
:103290004325D401A80FB91F13963C932F5FD40187
:1032A0001E962C932A3041F08091C00087FDE9CF13
:1032B000222309F3215001C029E0D401AE0FBF1F22
:1032C00013963C91D4011E962C93CF0101966AE08F
:1032D00070E00E944325F40185878091C00085FF3E
:1032E000FCCF3093C600C801832B98878F83D4010D
:1032F0001D960C9110E09AE0E92EF12CF401268540
:103300002A3099F41AC03091C600C801820F911D6D
:10331000B7010E944325F401E80FF91F33832F5FA3
:10332000D4011E962C932A3041F08091C00087FD75
:10333000EACF222319F3215001C029E0F401E00F64
:10334000F11FD380F4012687C80101966AE070E07E
:103350000E94432585878091C00085FFFCCFD092D5
:10336000C600CE0105962C018AE0682E712CDE0184
:1033700011967D01F401058510E0D4011E962C9173
:103380002A3091F44AC03091C600C801820F911DC5
:10339000B3010E944325F401E80FF91F33832F5F27
:1033A000F40126872A30C9F18091C00087FDEBCF58
:1033B000222319F32150F401E00FF11F3381D401CE
:1033C0001E962C93C8010196B3010E944325F40177
:1033D00085878091C00085FFFCCF3093C6003323E2
:1033E000F1F0F70131937F014E165F0619F61D8249
:1033F000CE0101965C01CD2CEF80F88409851A85F9
:103400002E814B855C85B101D40150968D919C91A4
:103410000E94A810280E391EAACF29E0CCCFD701D0
:103420001C92FE0131965F01CD2CEF80F884098556
:103430001A852E814B855C85B101D40150968D9102
:103440009C910E94A8102C96E2E10C949825A0E093
:10345000B0E0EDE2FAE10C948025EC01FAE0AF2E49
:10346000B12C5E980D8510E02E852A3091F42AC18A
:103470003091C600C801820F911DB5010E944325FD
:10348000FE01E80FF91F33832F5F2E872A3009F4DE
:1034900019C19091C00097FDEBCF222329F3215051
:1034A000FE01E00FF11F43812E87C8010196B5018F
:1034B0000E9443258D878091C00085FFFCCF4093FB
:1034C000C6005E9AEDEFE40FE83058F6F0E0EA5EF1
:1034D000F64D0C9476250D8510E02E852A3089F462
:1034E00018C03091C600C801820F911DB5010E941D
:1034F0004325FE01E80FF91F33832F5F2E872A3003
:1035000041F08091C00087FDECCF222331F34FEFD3
:10351000420FFE01E00FF11F23814E87C801019683
:10352000B5010E9443258D878091C00085FFFCCFA7
:103530002093C60088899989DC01ED91FC9104846F
:10354000F585E02D622F09958CCFCE010E943E17A4
:1035500088CF0D8510E02E852A3091F4A8C13091D6
:10356000C600C801820F911DB5010E944325FE01CE
:10357000E80FF91F33832F5F2E872A3009F497C194
:103580008091C00087FDEBCF222329F3215090C109
:103590000D8510E02E852A3091F454C13091C6007B
:1035A000C801820F911DB5010E944325FE01E80F5D
:1035B000F91F33832F5F2E872A3009F443C180918E
:1035C000C00087FDEBCF222329F321503CC10D859C
:1035D00010E02E852A3091F400C13091C600C80158
:1035E000820F911DB5010E944325FE01E80FF91FCE
:1035F00033832F5F2E872A3009F4EFC08091C000FB
:1036000087FDEBCF222329F32150E8C00D8510E080
:103610002E852A3091F4ACC03091C600C801820FCB
:10362000911DB5010E944325FE01E80FF91F338368
:103630002F5F2E872A3009F49BC08091C00087FD40
:10364000EBCF222329F3215094C00D8510E02E8565
:103650002A3091F459C03091C600C801820F911DE3
:10366000B5010E944325FE01E80FF91F33832F5F48
:103670002E872A3009F448C08091C00087FDEBCF27
:10368000222329F3215041C00D8510E02E852A30D8
:1036900089F41AC03091C600C801820F911DB5018E
:1036A0000E944325FE01E80FF91F33832F5F2E8709
:1036B0002A3051F08091C00087FDECCF222331F3F6
:1036C000215003C029E0ECCE29E0FE01E00FF11FFC
:1036D00033812E87C8010196B5010E9443258D874D
:1036E0008091C00085FFFCCF3093C60088899989FE
:1036F00061E0313009F060E0DC01ED91FC9106847D
:10370000F785E02D0995ADCE29E0FE01E00FF11F10
:10371000E3802E87C8010196B5010E9443258D875D
:103720008091C00085FFFCCFE092C600F12CFE2CFA
:10373000EE240D8510E02E852A3091F410C73091CB
:10374000C600C801820F911DB5010E944325FE01EC
:10375000E80FF91F33832F5F2E872A3009F4FFC645
:103760008091C00087FDEBCF222329F32150F8C6BA
:1037700029E0FE01E00FF11F33812E87C801019679
:10378000B5010E9443258D878091C00085FFFCCF45
:103790003093C600032F10E0102F0027ED84F12C8A
:1037A0002E852A3091F4F3C53091C600C701820FEF
:1037B000911DB5010E944325FE01E80FF91F3383D7
:1037C0002F5F2E872A3009F4E2C58091C00087FD63
:1037D000EBCF222329F32150DBC529E0FE01E00FC6
:1037E000F11FE3812E87C8010196B5010E94432590
:1037F0008D878091C00085FFFCCFE093C600F0E08C
:10380000FE2FEE270D8510E02E852A3099F401C495
:103810003091C600C801820F911DB5010E94432559
:10382000DE01A80FB91F13963C932F5F2E872A3015
:1038300009F4EFC38091C00087FDEACF222321F372
:103840002150E8C329E0FE01E00FF11FE3812E873C
:10385000C8010196B5010E9443258D878091C00063
:1038600085FFFCCFE093C600F0E0FE2FEE270D852C
:1038700010E02E852A3099F40DC23091C600C8019F
:10388000820F911DB5010E944325DE01A80FB91FCB
:1038900013963C932F5F2E872A3009F4FBC1809149
:1038A000C00087FDEACF222321F32150F4C129E093
:1038B000FE01E00FF11FE3812E87C8010196B501DB
:1038C0000E9443258D878091C00085FFFCCFE09347
:1038D000C600F0E0FE2FEE270D8510E02E852A3081
:1038E00091F419C03091C600C801820F911DB50135
:1038F0000E944325DE01A80FB91F13963C932F5F4A
:103900002E872A3041F08091C00087FDEBCF222323
:1039100029F3215001C029E0DE01A00FB11F139649
:103920003C912E87C8010196B5010E9443258D87E1
:103930008091C00085FFFCCF3093C600E32B0D853E
:1039400010E02E852A3091F419C03091C600C801CC
:10395000820F911DB5010E944325DE01A80FB91FFA
:1039600013963C932F5F2E872A3041F08091C00040
:1039700087FDEBCF222329F3215001C029E0DE018E
:10398000A00FB11F13968C902E87C8010196B50128
:103990000E9443258D878091C00085FFFCCF8092D7
:1039A000C600912C982C88240D8510E02E852A3095
:1039B00091F419C03091C600C801820F911DB50164
:1039C0000E944325DE01A80FB91F13963C932F5F79
:1039D0002E872A3041F08091C00087FDEBCF222353
:1039E00029F3215001C029E0DE01A00FB11F139679
:1039F0003C912E87C8010196B5010E9443258D8711
:103A00008091C00085FFFCCF3093C600832A0D85CE
:103A100010E02E852A3091F419C03091C600C801FB
:103A2000820F911DB5010E944325DE01A80FB91F29
:103A300013963C932F5F2E872A3041F08091C0006F
:103A400087FDEBCF222329F3215001C029E0DE01BD
:103A5000A00FB11F13966C902E87C8010196B50177
:103A60000E9443258D878091C00085FFFCCF609226
:103A7000C600712C762C66240D8510E02E852A3028
:103A800091F419C03091C600C801820F911DB50193
:103A90000E944325DE01A80FB91F13963C932F5FA8
:103AA0002E872A3041F08091C00087FDEBCF222382
:103AB00029F3215001C029E0DE01A00FB11F1396A8
:103AC0003C912E87C8010196B5010E9443258D8740
:103AD0008091C00085FFFCCF3093C600632A0D851E
:103AE00010E02E852A3091F419C03091C600C8012B
:103AF000820F911DB5010E944325DE01A80FB91F59
:103B000013963C932F5F2E872A3041F08091C0009E
:103B100087FDEBCF222329F3215001C029E0DE01EC
:103B2000A00FB11F13963C912E87C8010196B501D5
:103B30000E9443258D878091C00085FFFCCF309384
:103B4000C600032F10E0102F0027ED84F12C2E85E6
:103B50002A3091F419C03091C600C701820F911D1F
:103B6000B5010E944325DE01A80FB91F13963C93AF
:103B70002F5F2E872A3041F08091C00087FDEBCF68
:103B8000222329F3215001C029E0DE01AE0DBF1D23
:103B900013963C912E87C7010196B5010E944325DB
:103BA0008D878091C00085FFFCCF3093C600032B2A
:103BB000ED84F12C3E853A3091F419C02091C60075
:103BC000C701830F911DB5010E944325DE01A80F97
:103BD000B91F13962C933F5F3E873A3041F0809196
:103BE000C00087FDEBCF332329F3315001C039E00A
:103BF000DE01AE0DBF1D13962C913E87C7010196C5
:103C0000B5010E9443258D878091C00085FFFCCFC0
:103C10002093C600E22EF12CFE2CEE242D8530E000
:103C20004E854A3091F419C0D090C600C901840F66
:103C3000911DB5010E944325DE01A80FB91F1396FF
:103C4000DC924F5F4E874A3041F08091C00087FD83
:103C5000EBCF442329F3415001C049E0DE01A20F1C
:103C6000B31F1396DC904E87C9010196B5010E94DF
:103C700043258D878091C00085FFFCCFD092C60080
:103C8000ED28C12C9301A401BF01888999890E9464
:103C90001410E7CB29E0DE01A00FB11F13963C9171
:103CA0002E87C8010196B5010E9443258D8780911A
:103CB000C00085FFFCCF3093C600E32B0D8510E0DC
:103CC0002E852A3091F419C03091C600C801820FA8
:103CD000911DB5010E944325DE01A80FB91F13965F
:103CE0003C932F5F2E872A3041F08091C00087FDE2
:103CF000EBCF222329F3215001C029E0DE01A00FE0
:103D0000B11F13968C902E87C8010196B5010E94B1
:103D100043258D878091C00085FFFCCF8092C6002F
:103D2000912C982C88240D8510E02E852A3091F452
:103D300019C03091C600C801820F911DB5010E94C3
:103D40004325DE01A80FB91F13963C932F5F2E87E2
:103D50002A3041F08091C00087FDEBCF222329F368
:103D6000215001C029E0DE01A00FB11F13963C9144
:103D70002E87C8010196B5010E9443258D87809149
:103D8000C00085FFFCCF3093C600832A0D8510E06C
:103D90002E852A3091F419C03091C600C801820FD7
:103DA000911DB5010E944325DE01A80FB91F13968E
:103DB0003C932F5F2E872A3041F08091C00087FD11
:103DC000EBCF222329F3215001C029E0DE01A00F0F
:103DD000B11F13966C902E87C8010196B5010E9401
:103DE00043258D878091C00085FFFCCF6092C6007F
:103DF000712C762C66240D8510E02E852A3091F4E6
:103E000019C03091C600C801820F911DB5010E94F2
:103E10004325DE01A80FB91F13963C932F5F2E8711
:103E20002A3041F08091C00087FDEBCF222329F397
:103E3000215001C029E0DE01A00FB11F13963C9173
:103E40002E87C8010196B5010E9443258D87809178
:103E5000C00085FFFCCF3093C600632A0D8510E0BB
:103E60002E852A3091F419C03091C600C801820F06
:103E7000911DB5010E944325DE01A80FB91F1396BD
:103E80003C932F5F2E872A3041F08091C00087FD40
:103E9000EBCF222329F3215001C029E0DE01A00F3E
:103EA000B11F13963C912E87C8010196B5010E945F
:103EB00043258D878091C00085FFFCCF3093C600DD
:103EC000032F10E0102F0027ED84F12C2E852A30CF
:103ED00091F419C03091C600C701820F911DB50140
:103EE0000E944325DE01A80FB91F13963C932F5F54
:103EF0002E872A3041F08091C00087FDEBCF22232E
:103F000029F3215001C029E0DE01AE0DBF1D13963B
:103F10003C912E87C7010196B5010E9443258D87EC
:103F20008091C00085FFFCCF3093C600032BED8449
:103F3000F12C3E853A3091F419C02091C600C7019A
:103F4000830F911DB5010E944325DE01A80FB91F03
:103F500013962C933F5F3E873A3041F08091C0002A
:103F600087FDEBCF332329F3315001C039E0DE0167
:103F7000AE0DBF1D13962C913E87C7010196B5016A
:103F80000E9443258D878091C00085FFFCCF209340
:103F9000C600E22EF12CFE2CEE242D8530E04E855D
:103FA0004A3091F419C0D090C600C901840F911D08
:103FB000B5010E944325DE01A80FB91F1396DC92BC
:103FC0004F5F4E874A3041F08091C00087FDEBCFB4
:103FD000442329F3415001C049E0DE01A20FB31F81
:103FE0001396DC904E87C9010196B5010E944325C6
:103FF0008D878091C00085FFFCCFD092C600ED2850
:10400000C12C9301A401BF01888999890E942610BF
:1040100028CA29E0DE01A00FB11F13963C912E871C
:10402000C8010196B5010E9443258D878091C0008B
:1040300085FFFCCF3093C600E32B0D8510E02E8565
:104040002A3091F419C03091C600C801820F911D29
:10405000B5010E944325DE01A80FB91F13963C93BA
:104060002F5F2E872A3041F08091C00087FDEBCF73
:10407000222329F3215001C029E0DE01A00FB11F46
:1040800013968C902E87C8010196B5010E94432596
:104090008D878091C00085FFFCCF8092C600912C57
:1040A000982C88240D8510E02E852A3091F419C0B3
:1040B0003091C600C801820F911DB5010E944325B1
:1040C000DE01A80FB91F13963C932F5F2E872A306D
:1040D00041F08091C00087FDEBCF222329F32150CE
:1040E00001C029E0DE01A00FB11F13963C912E877D
:1040F000C8010196B5010E9443258D878091C000BB
:1041000085FFFCCF3093C600832A0D8510E02E85F5
:104110002A3091F419C03091C600C801820F911D58
:10412000B5010E944325DE01A80FB91F13963C93E9
:104130002F5F2E872A3041F08091C00087FDEBCFA2
:10414000222329F3215001C029E0DE01A00FB11F75
:1041500013966C902E87C8010196B5010E944325E5
:104160008D878091C00085FFFCCF6092C600712CC6
:10417000762C66240D8510E02E852A3091F419C026
:104180003091C600C801820F911DB5010E944325E0
:10419000DE01A80FB91F13963C932F5F2E872A309C
:1041A00041F08091C00087FDEBCF222329F32150FD
:1041B00001C029E0DE01A00FB11F13963C912E87AC
:1041C000C8010196B5010E9443258D878091C000EA
:1041D00085FFFCCF3093C600632A0D8510E02E8545
:1041E0002A3091F419C03091C600C801820F911D88
:1041F000B5010E944325DE01A80FB91F13963C9319
:104200002F5F2E872A3041F08091C00087FDEBCFD1
:10421000222329F3215001C029E0DE01A00FB11FA4
:1042200013963C912E87C8010196B5010E94432543
:104230008D878091C00085FFFCCF3093C600032F8F
:1042400010E0102F0027ED84F12C2E852A3091F4F8
:1042500019C03091C600C701820F911DB5010E949F
:104260004325DE01A80FB91F13963C932F5F2E87BD
:104270002A3041F08091C00087FDEBCF222329F343
:10428000215001C029E0DE01AE0DBF1D13963C9107
:104290002E87C7010196B5010E9443258D87809125
:1042A000C00085FFFCCF3093C600032BED84F12CBA
:1042B0003E853A3091F419C02091C600C701830FA2
:1042C000911DB5010E944325DE01A80FB91F139669
:1042D0002C933F5F3E873A3041F08091C00087FDCC
:1042E000EBCF332329F3315001C039E0DE01AE0DAD
:1042F000BF1D13962C913E87C7010196B5010E9400
:1043000043258D878091C00085FFFCCF2093C60098
:10431000E22EF12CFE2CEE242D8530E04E854A3025
:1043200091F419C0D090C600C901840F911DB50148
:104330000E944325DE01A80FB91F1396DC924F5F40
:104340004E874A3041F08091C00087FDEBCF442377
:1043500029F3415001C049E0DE01A20FB31F1396BB
:10436000DC904E87C9010196B5010E9443258D87D7
:104370008091C00085FFFCCFD092C600ED2893014C
:10438000A401BF01888999890E9404106AC829E0A4
:10439000FE01EE0DFF1D33812E87C7010196B50189
:1043A0000E9443258D878091C00085FFFCCF30930C
:1043B000C600032BED84F12C2E852A3089F418C019
:1043C0003091C600C701820F911DB5010E9443259F
:1043D000FE01E80FF91F33832F5F2E872A3041F04B
:1043E0008091C00087FDECCF222331F3215001C022
:1043F00029E0FE01EE0DFF1D83802E87C701019687
:10440000B5010E9443258D878091C00085FFFCCFB8
:104410008092C600912C982C8824ED84F12C2E8556
:104420002A3089F418C03091C600C701820F911D4F
:10443000B5010E944325FE01E80FF91F33832F5F6A
:104440002E872A3041F08091C00087FDECCF2223D7
:1044500031F3215001C029E0FE01EE0DFF1D338133
:104460002E87C7010196B5010E9443258D87809153
:10447000C00085FFFCCF3093C600832AED84F12C69
:104480002E852A3089F418C03091C600C701820FEA
:10449000911DB5010E944325FE01E80FF91F3383EA
:1044A0002F5F2E872A3041F08091C00087FDECCF2E
:1044B000222331F3215001C029E0FE01EE0DFF1D42
:1044C00033812E87C7010196B5010E9443258D8750
:1044D0008091C00085FFFCCF3093C600E32EF12C05
:1044E000FE2CEE24ED85F0E03E853A3091F419C0C3
:1044F0002091C600CF01830F911DB5010E94432575
:10450000DE01A80FB91F13962C933F5F3E873A3008
:1045100041F08091C00087FDEBCF332329F3315068
:1045200001C039E0DE01AE0FBF1F13962C913E870C
:10453000CF010196B5010E9443258D878091C0006F
:1045400085FFFCCF2093C600C701822B9C01A401EC
:10455000B801888999890E948A0F0C94311A29E040
:10456000FE01E00FF11F33812E87C8010196B501CE
:104570000E9443258D878091C00085FFFCCF30933A
:10458000C600B701632B888999890E945A0F0C9441
:10459000311A0FB6F894A8958091600088618093D5
:1045A0006000109260000FBE86E991E00E949E0DAF
:1045B000CF93DF93C6E9D1E01D861E861F868EE06D
:1045C00091E09983888388EA91E00E940A0F82E74C
:1045D00091E09B8B8A8BDF91CF91089588EA91E0DF
:1045E0000E94D51508950C940000AEE1B0E0EBEF09
:1045F000F2E20C948C25CE0149960E941F0E86E0B3
:10460000FE017996A1EBB1E001900D928A95E1F758
:10461000CE0143960E942D0E86E0FE017396A7EB15
:10462000B1E001900D928A95E1F7CE010D960E94BE
:10463000110E86E0FE013D96ADEBB1E001900D92CA
:104640008A95E1F7CE0107960E94390E86E0FE01B9
:104650003796A3ECB1E001900D928A95E1F7CE0177
:1046600001960E94030E86E0FE013196A9ECB1E0AE
:1046700001900D928A95E1F76E96E2E00C94A825E0
:104680005058BB27AA270E9458230C9473240E94D9
:10469000652438F00E946C2420F039F49F3F19F40F
:1046A00026F40C9462240EF4E095E7FB0C945C2451
:1046B000E92F0E94842458F3BA176207730784070E
:1046C000950720F079F4A6F50C94A6240EF4E09555
:1046D0000B2EBA2FA02D0B01B90190010C01CA01BC
:1046E000A0011124FF27591B99F0593F50F4503E67
:1046F00068F11A16F040A22F232F342F4427585F59
:10470000F3CF469537952795A795F0405395C9F770
:104710007EF41F16BA0B620B730B840BBAF0915028
:10472000A1F0FF0FBB1F661F771F881FC2F70EC0C7
:10473000BA0F621F731F841F48F48795779567959A
:10474000B795F7959E3F08F0B0CF9395880F08F086
:104750009927EE0F9795879508950E94C1230C9491
:1047600073240E946C2458F00E94652440F029F4C0
:104770005F3F29F00C945C2451110C94A7240C94F5
:1047800062240E94842468F39923B1F3552391F3A2
:10479000951B550BBB27AA2762177307840738F0B0
:1047A0009F5F5F4F220F331F441FAA1FA9F335D00D
:1047B0000E2E3AF0E0E832D091505040E695001CC1
:1047C000CAF72BD0FE2F29D0660F771F881FBB1F7B
:1047D000261737074807AB07B0E809F0BB0B802D59
:1047E000BF01FF2793585F4F3AF09E3F510578F085
:1047F0000C945C240C94A7245F3FE4F3983ED4F31C
:10480000869577956795B795F7959F5FC9F7880F58
:10481000911D9695879597F90895E1E0660F771FAA
:10482000881FBB1F621773078407BA0720F0621B3B
:10483000730B840BBA0BEE1F88F7E0950895E8948C
:1048400009C097FB3EF490958095709561957F4FD8
:104850008F4F9F4F9923A9F0F92F96E9BB27939586
:10486000F695879577956795B795F111F8CFFAF496
:10487000BB0F11F460FF1BC06F5F7F4F8F4F9F4FC7
:1048800016C0882311F096E911C0772321F09EE825
:10489000872F762F05C0662371F096E8862F70E08B
:1048A00060E02AF09A95660F771F881FDAF7880F65
:1048B0009695879597F9089597F99F6780E870E036
:1048C00060E008959FEF80EC089500240A94161686
:1048D000170618060906089500240A9412161306EE
:1048E000140605060895092E0394000C11F488237C
:1048F00052F0BB0F40F4BF2B11F460FF04C06F5F98
:104900007F4F8F4F9F4F089557FD9058440F551F6D
:1049100059F05F3F71F04795880F97FB991F61F041
:104920009F3F79F087950895121613061406551FB8
:10493000F2CF4695F1DF08C0161617061806991F24
:10494000F1CF86957105610508940895E894BB2719
:1049500066277727CB0197F908950E941F2508F451
:104960008FEF08950E94C5240C9473240E9465243F
:1049700038F00E946C2420F0952311F00C945C24F4
:104980000C94622411240C94A7240E94842470F3B4
:10499000959FC1F3950F50E0551F629FF001729FE4
:1049A000BB27F00DB11D639FAA27F00DB11DAA1FF3
:1049B000649F6627B00DA11D661F829F2227B00D40
:1049C000A11D621F739FB00DA11D621F839FA00DCB
:1049D000611D221F749F3327A00D611D231F849F1B
:1049E000600D211D822F762F6A2F11249F57504072
:1049F0009AF0F1F088234AF0EE0FFF1FBB1F661FED
:104A0000771F881F91505040A9F79E3F510580F0B5
:104A10000C945C240C94A7245F3FE4F3983ED4F3F9
:104A2000869577956795B795F795E7959F5FC1F759
:104A3000FE2B880F911D9695879597F90895990FEC
:104A40000008550FAA0BE0E8FEEF16161706E80758
:104A5000F907C0F012161306E407F50798F0621B79
:104A6000730B840B950B39F40A2661F0232B242B4E
:104A7000252B21F408950A2609F4A140A6958FEF6D
:104A8000811D811D089597FB072E16F4009407D011
:104A900077FD09D00E94BF2507FC05D03EF4909514
:104AA00081959F4F0895709561957F4F0895052ECC
:104AB00097FB1EF400940E946E2557FD07D00E94BC
:104AC000D32507FC03D04EF40C946E2550954095E9
:104AD000309521953F4F4F4F5F4F089590958095AA
:104AE000709561957F4F8F4F9F4F0895EE0FFF1F79
:104AF0000590F491E02D09942F923F924F925F928E
:104B00006F927F928F929F92AF92BF92CF92DF92DD
:104B1000EF92FF920F931F93CF93DF93CDB7DEB742
:104B2000CA1BDB0B0FB6F894DEBF0FBECDBF0994D6
:104B30002A88398848885F846E847D848C849B842D
:104B4000AA84B984C884DF80EE80FD800C811B813B
:104B5000AA81B981CE0FD11D0FB6F894DEBF0FBE6A
:104B6000CDBFED0108950024A7FD00942A0F301D4C
:104B7000401D501D601D701D801D901D0895AA1BB5
:104B8000BB1B51E107C0AA1FBB1FA617B70710F038
:104B9000A61BB70B881F991F5A95A9F7809590956A
:104BA000BC01CD010895A1E21A2EAA1BBB1BFD0179
:104BB0000DC0AA1FBB1FEE1FFF1FA217B307E407FC
:104BC000F50720F0A21BB30BE40BF50B661F771F54
:104BD000881F991F1A9469F7609570958095909534
:104BE0009B01AC01BD01CF010895FB01DC014150E7
:104BF000504048F005900D920020C9F701C01D9269
:104C000041505040E0F70895AEE0B0E0EAE0F6E24F
:104C10000C948A258C01F62FE72FBA01A90186E0B2
:104C20008C831A8309838F2F9E2F813020E892076F
:104C300010F080E090E801979E838D83CE0101966D
:104C40000E9464264D815E8157FD0AC02F81388500
:104C5000421753070CF49A01020F131FF801108238
:104C60002E96E4E00C94A625AEE0B0E0EAE3F6E28E
:104C70000C948A258C01F62FE72FBA01A9018EE04A
:104C80008C831A8309838F2F9E2F813020E892070F
:104C900010F080E090E801979E838D83CE0101960D
:104CA0000E9464264D815E8157FD0AC02F813885A0
:104CB000421753070CF49A01020F131FF8011082D8
:104CC0002E96E4E00C94A625AFE0B0E0EAE6F6E22A
:104CD0000C947F256C017B018A01DC0117961C92E4
:104CE0001E92169713968C9181FFECC12AE0522EEA
:104CF000F6019381F70193FD859193FF81917F01E7
:104D0000882309F473C0853239F493FD859193FFAC
:104D100081917F01853229F4B60190E00E947B28C1
:104D2000E7CF912C612C712CFFE1F71508F446C0F8
:104D30008B32C9F1F8F48032C1F1833209F43BC0FF
:104D4000833609F48AC0833709F493C0833509F0A8
:104D5000B6C0F801A190B1908F01692D70E076FC8A
:104D600002C06FEF7FEFC5010E9465284C01689477
:104D700077F85FC08D32E1F0803351F020ED280FDD
:104D80002A3048F18E3209F039C0689476F802C0B2
:104D9000689470F8F70193FD859193FF81917F01ED
:104DA0008111C2CF33C0689471F8689472F8F2CF61
:104DB000689473F8EFCF689474F8ECCF77FC26C052
:104DC00020ED280F2A3070F476FE05C0959C200D4A
:104DD0001124922EDFCF659C200D1124622E689441
:104DE00075F8D8CF8E3251F476FECFCFD601169615
:104DF0008D919C912F96EFE00C949B258C3619F4A5
:104E0000689477F8C7CF883609F4C4CF982F9F7D70
:104E10009554933008F094CF0C5F1F4F8FE3898334
:104E200088248394912CAE014F5F5F4F5A01E89420
:104E300077F873FC05C0862D90E08816990640F13E
:104E40008114910461F5662009F452CFB60180E225
:104E500090E00E947B286A94F6CFD8018C918983D8
:104E60000E5F1F4F88248394912CFE0131965F01C1
:104E7000DECFD801AD90BD908D01692D70E076FC3C
:104E800002C06FEF7FEFC5010E9470284C01CFCFA9
:104E9000B60180E290E00E947B286A94CCCFF501B5
:104EA00077FC859177FE81915F01B60190E00E94C9
:104EB0007B2861106A94F1E08F1A9108C1CF843683
:104EC00019F0893609F081C0F80177FE77C0619149
:104ED0007191819191918F01272D2F76822E97FFCD
:104EE00009C090958095709561957F4F8F4F9F4F2A
:104EF000689487F82AE030E0AE014F5F5F4F5A01B7
:104F00000E94AB288A19A82EBA2C782C86FE0CC0D9
:104F1000E89470F8A91440F484FE05C082FC03C034
:104F2000782D7E7E772EB92C74FEA5C0FE01EA0D89
:104F3000F11D8081803309F097C0872D897E782EFE
:104F400073FC0EC070FEA6C09A2CB61418F4960C12
:104F50009B18B62C862D8B196B1408F480E0B80EC4
:104F6000B61408F099C06B1874FE98C0B60180E3BF
:104F700090E00E947B2872FE09C088E590E071FCF9
:104F800002C088E790E0B6010E947B28A91408F4CB
:104F900092C0AA94B12C9FEFA91AB90ADE0111960A
:104FA0004D01AA0EBB1EF50182915F01B60190E092
:104FB0000E947B288A149B04B1F745CF61917191BF
:104FC000072E000C880B990B86CF872CE89484F869
:104FD0002AE030E0853769F0572D597F852E8037DC
:104FE00071F118F5883571F18F3609F0FFCE28E0A0
:104FF00030E0F80187FE2EC081919191A191B1918D
:105000008C879D87AE87BF878F01BE016F5F7F4F03
:105010005B01AB016C857D858E859F850E94AB28E9
:105020008A19A82EE89487F86FCF883709F0DECE6A
:1050300084FE02C0689482F820E130E0DACF689400
:1050400084F8F6CF74FE03C0652F6660862E20E1DB
:1050500032E0CFCF81919191AC0160E070E04C875C
:105060005D876E877F87D0CF72FC02C0B39468CF14
:10507000B394B39465CF872D8678882309F460CFE5
:10508000F5CFB60180E290E00E947B2883948614DD
:10509000C0F360CF8B2CFBCF612C66CF872D867839
:1050A000882309F473CF8BE271FE80E277FC8DE2F6
:1050B000B60190E069CFB60180E390E00E947B28C2
:1050C0009A9464CF8FEF9FEF95CEFC0105906150CD
:1050D00070400110D8F7809590958E0F9F1F08950E
:1050E000FC016150704001900110D8F780959095B7
:1050F0008E0F9F1F08950F931F93CF93DF93182F49
:10510000092FEB018B8181FD09C01FEF0FEF812F6C
:10511000902FDF91CF911F910F91089582FF14C0BE
:105120002E813F818C819D81281739073CF4E881CD
:10513000F981CF0101969983888310838E819F81A5
:1051400001969F838E83E3CFE885F985812F0995AA
:10515000892BA1F3DACFFA01AA27283051F12031A7
:1051600081F1E8946F936E7F6E5F7F4F8F4F9F4FFB
:10517000AF4FB1E03ED0B4E03CD0670F781F891F3D
:105180009A1FA11D680F791F8A1F911DA11D6A0F0B
:10519000711D811D911DA11D20D009F468943F91BE
:1051A0002AE0269F11243019305D3193DEF6CF01BD
:1051B0000895462F4770405D4193B3E00FD0C9F783
:1051C000F6CF462F4F70405D4A3318F0495D31FDF0
:1051D0004052419302D0A9F7EACFB4E0A695979543
:1051E000879577956795BA95C9F700976105710519
:1051F00008959B01AC010A2E069457954795379563
:105200002795BA95C9F7620F731F841F951FA01DBC
:1052100008951BE0C3E0DBE004C0FE010E94762598
:105220002196C430D107C9F7F894FFCF251B061B80
:0C523000E71AC81AA91AA51A6B1A441B29
:10523C006865726D65734F4E4500000000003817AD
:10524C00391700000000470E480E00000000000057
:10525C000000F00DF00DF00D4D0EF00DF00DF00DF9
:10526C0000000000000000007C131313E0114D0E31
:10527C00F00DF00DF00DF00DF00DDF110000000041
:10528C00000000007C131313E0114D0EF113F41306
:10529C00AA150014C713CF13F00DF00DD81300008E
:1052AC000000D515DE157C132417E0114D0EF113FB
:1052BC00F413AA158416CE158E16BB15C315D81368
:0652CC00B715B915F0153D
:00000001FF
